:0400000007EF00F016
:0A0008003F8251ED04F0B5EF0CF05B
:100800000000000000001F151F000E0A0E001F153B
:100810001F0D44697374616E636961206F626A655C
:10082000746F3A20005069657A6173206120636FAC
:100830006E7461723A002020434F4D504C45544134
:1008400053212121200056616C6F72206E6F20763B
:10085000616C69646F0056616C6F72206465205032
:10086000574D3A200020202020454D455247454E07
:1008700043590046616C74616E746573203A004F91
:10088000626A657469766F203A002020202020205B
:1008900053544F50004269656E76656E696461001D
:0108A0000057
:1008A2000600D9CF12F0DACF13F0F3CF14F0F4CF61
:1008B20015F0F6CF16F0F7CF17F0F8CF18F0F5CF06
:1008C20019F0F2A496D0C20ED76EF70ED66EF2943D
:1008D20089B202D0898201D0899289A26FD02A6A14
:1008E200000E75EC0DF01D6E1D50640DF3CF01F07E
:1008F200F4CF02F0000E046E03682FEC0AF001C080
:100902001EF002C01FF01EC009F01FC00AF01A0E2E
:100912000B6E000E0C6EB8EC08F0560E026E025012
:10092200D8A4080E036E40EC0CF01A0E026E000EF4
:10093200036E40EC0CF0250EE9EC0DF0110E026E88
:100942000250D8A4080E036E40EC0CF0A8EC0AF09A
:10095200206E090E206402D0090E206E2050300F46
:10096200E9EC0DF00D0EE9EC0DF0000E046E640ED4
:10097200036EF00E1E02F3CF10F0F4CF11F01F023F
:10098200F350112610C001F011C002F02FEC0AF052
:1009920001C009F002C00AF009EC0DF009C01AF01A
:1009A2000AC01BF00BC01CF01AC001F01BC002F001
:1009B2001CC003F021EC09F00150BE6E3250D8A4E5
:1009C20005D03104D8A402D08988316A322A140EA3
:1009D200326001D0316A130E326407D0280E3260C1
:1009E20004D08998010E316E04D0270E326401D0F2
:1009F2000300F2A0FCD0F00E8118D8B4DDD034048C
:100A0200D8A4DAD0FE0E8A6E81B808D03AC039F086
:100A120039503A5C386EC4EC0BF0CCD081BA0BD0B2
:100A2200372A030E3760C6D03B6A010E096E3B506F
:100A320045EC08F0BFD081BC04D03AC038F0396A26
:100A4200EAD781BE06D089B802D08988B3D0899806
:100A5200B1D0FD0E8A6E81B80CD0372A030E3760F2
:100A6200A9D0070E3B6E010E096E3B5045EC08F013
:100A7200A1D081BA0CD0372A030E37609BD0080E62
:100A82003B6E010E096E3B5045EC08F093D081BCE1
:100A92000CD0372A030E37608DD0090E3B6E010E43
:100AA200096E3B5045EC08F085D081BE24D0370456
:100AB200D8A40BD0C00EB2EC0DF0200EA7EC0DF0B6
:100AC200C00EB2EC0DF0370675D0020E3718D8A45E
:100AD20010D0C10EB2EC0DF0200EA7EC0DF0C10E3D
:100AE200B2EC0DF00A0E056E3A50EDEC0CF03B6ED6
:100AF200EAD700005FD0FB0E8A6E81B80CD0372A8D
:100B0200030E376057D0040E3B6E010E096E3B5048
:100B120045EC08F04FD081BA0CD0372A030E37606B
:100B220049D0050E3B6E010E096E3B5045EC08F0B4
:100B320041D081BC0CD0372A030E37603BD0060E61
:100B42003B6E010E096E3B5045EC08F033D081BE7E
:100B520003D0010E336E2ED0F70E8A6E81B80CD000
:100B6200372A030E376026D0010E3B6E010E096E46
:100B72003B5045EC08F01ED081BA0CD0372A030E48
:100B8200376018D0020E3B6E010E096E3B5045ECE9
:100B920008F010D081BC0CD0372A030E37600AD07F
:100BA200030E3B6E010E096E3B5045EC08F002D07D
:100BB20081AE352AF00E8A6E3550D8A407D037049C
:100BC200D8A404D03B500A0DF3CF3AF0020E37649A
:100BD20005D03650D8A402D0020E376E520E106ED7
:100BE2002A0EE82EFED7102EFCD7326AF29019C0D8
:100BF200F5FF18C0F8FF17C0F7FF16C0F6FF15C0C3
:100C0200F4FF14C0F3FF13C0DAFF12C0D9FF3F9202
:100C12001100010E926EF00E936E94909494956A68
:100C2200966A100E896E8A6A8B6A8C6A8D6AF19E48
:100C3200240EAC6E900EAB6E080EB86E190EAF6E2F
:100C4200010EC26E0E0EC16E080EC06ECC6AF90E97
:100C5200CB6ECA6A010EBE6E0C0EBD6ECA84800EC9
:100C6200CD6EF290F286020ED56EC20ED76EF70EE0
:100C7200D66EF294F28AF28ED58E040E85EC0DF0C9
:100C8200E1EC09F0BDEC0DF0D0A818D0D1EC0DF0DC
:100C920040EC07F0326AD1EC0DF0950E266E4DEC69
:100CA2000DF0020E0001656F450E646FA90EE82E6D
:100CB200FED7642FFCD7652FFAD700D0D0B803D067
:100CC200050E8D6ED088376A3A6A356A326AD1EC7F
:100CD2000DF0C7EC0DF03DC026F04DEC0DF0C00E4E
:100CE2009CEC0DF0010E346E366A04D03304D8B495
:100CF20024EC0DF03550D8B4F9D7020E376007D086
:100D02003B6A0A0E256E3A50D1EC0CF03A6E030E95
:100D1200376E3B0E3A6414D0D1EC0DF0460E266EBF
:100D22004DEC0DF0030E0001656F8A0E646F550ED7
:100D3200E82EFED7642FFCD7652FFAD700D0FF002C
:100D42003A503B243A6E3AC039F039503A5C386E28
:100D5200010E366ED1EC0DF0730E266E4DEC0DF0D9
:100D6200020E296E3950C5EC07F0C00E9CEC0DF056
:100D72007F0E266E4DEC0DF0020E296E3A50C5EC38
:100D820007F00001666B3304D8B424EC0DF070EC6C
:100D92000AF02E6E310E0001646FB20EE82EFED7FD
:100DA200642FFCD70000080E2E6006D02E50D8B457
:100DB20003D02EC02BF001D02B6A2B50D8B42CD0EC
:100DC20000016651D8A428D03A50385CD8B024D05B
:100DD200326A210E0001646F760EE82EFED7642F70
:100DE200FCD70000382A39060A0E216E385039EC39
:100DF2000DF00009D8A40ED03A503818D8B40AD051
:100E02008984A30E0001646F550EE82EFED7642F6D
:100E1200FCD789949AEC0BF02BC066F0BDEC0DF078
:100E22008B0E9CEC0DF0020E296E3950C5EC07F0CA
:100E32003A503818D8A4A7D78984D1EC0DF03CC019
:100E420026F04DEC0DF0020E0001656F450E646F49
:100E5200A90EE82EFED7642FFCD7652FFAD700D053
:100E62008994356A3304D8B424EC0DF03550D8B4E3
:100E7200F9D7356A3A6A376A9AEC0BF024D70F0E23
:100E82000001606F040E85EC0DF0E1EC09F0BDECA1
:100E92000DF0090E256E000E17EC0BF0010E256EFB
:100EA200010E17EC0BF00001616B11D06151800F44
:100EB2009CEC0DF0010E91EC0DF0110E296E3A0E24
:100EC200E82EFED7292EFCD700D00001612B6151FC
:100ED200605DD8B0EBD7616B21D06151800F9CEC83
:100EE2000DF0000E91EC0DF0110E296E3A0EE82E67
:100EF200FED7292EFCD700D000016151800F9CEC57
:100F02000DF0010E91EC0DF0110E296E3A0EE82E45
:100F1200FED7292EFCD700D00001612B6051615D04
:100F2200D8A0DBD76051800F9CEC0DF0000E91EC45
:100F32000DF060C061F000016151D8B422D061515E
:100F4200800F9CEC0DF0000E91EC0DF0110E296E4D
:100F52003A0EE82EFED7292EFCD700D000016151AF
:100F6200800F9CEC0DF0010E91EC0DF0110E296E2C
:100F72003A0EE82EFED7292EFCD700D000016107D9
:100F8200DAD7C7EC0DF012000001636F898671D0C9
:100F92000A0E216E0001635139EC0DF00001626FFF
:100FA2006251300F69EC0CF0DBEC0DF0040E44ECF6
:100FB2000BF012000A0E256E640E216E00016351C1
:100FC20039EC0DF0D1EC0CF00001616F0A0E216ECC
:100FD200635139EC0DF00001626F6151300F69EC21
:100FE2000CF0DBEC0DF0040E44EC0BF0000162514E
:100FF200300F69EC0CF0DBEC0DF0040E44EC0BF05E
:101002001200640E256E00016351D1EC0CF0000158
:10101200606F0A0E256E640E216E635139EC0DF07D
:10102200D1EC0CF00001616F0A0E216E635139ECB4
:101032000DF00001626F6051300F69EC0CF0DBECD7
:101042000DF0040E44EC0BF000016151300F69EC1D
:101052000CF0DBEC0DF0040E44EC0BF000016251DD
:10106200300F69EC0CF0DBEC0DF0040E44EC0BF0ED
:1010720012002950010AD8B48BD7030AD8B49AD7E0
:10108200010AD8A41200BDD70D6E898665D00A0E5A
:10109200016E0D5061EC0DF00C6E0C50300F8FECA8
:1010A2000CF0E2EC0DF0040E6FEC0BF012000A0EE5
:1010B200056E640E016E0D5061EC0DF0EDEC0CF05E
:1010C2000B6E0A0E016E0D5061EC0DF00C6E0B50A2
:1010D200300F8FEC0CF0E2EC0DF0040E6FEC0BF025
:1010E2000C50300F8FEC0CF0E2EC0DF0040E6FECB4
:1010F2000BF01200640E056E0D50EDEC0CF00A6E52
:101102000A0E056E640E016E0D5061EC0DF0EDECF1
:101112000CF00B6E0A0E016E0D5061EC0DF00C6EB0
:101122000A50300F8FEC0CF0E2EC0DF0040E6FEC75
:101132000BF00B50300F8FEC0CF0E2EC0DF0040EC4
:101142006FEC0BF00C50300F8FEC0CF0E2EC0DF06A
:10115200040E6FEC0BF012000950010AD8B497D7B5
:10116200030AD8B4A4D7010AD8A41200C3D70ABE6E
:1011720006D00A5013E10A0E095CD8B00FD009500C
:10118200300F0BC0D9FF0CC0DAFFDF6E20EE01F08A
:101192000B50D9260C50DA22DF6A12000ABE06D0A2
:1011A2000A5030E1640E095CD8B02CD009C001F0BD
:1011B2000AC002F0000E046E0A0E036E2FEC0AF053
:1011C2000150300F0BC0D9FF0CC0DAFFDF6E20EEEA
:1011D20001F00B50D9260C50DA2209C001F00AC0E6
:1011E20002F0000E046E0A0E036EE0EC0AF00150EB
:1011F200300FDF6E20EE02F00B50D9260C50DA22AF
:10120200DF6A12000BC0D9FF0CC0DAFF310EDF6EAD
:1012120020EE01F00B50D9260C50DA22300EDF6E90
:1012220020EE02F00B50D9260C50DA22300EDF6E7F
:1012320020EE03F00B50D9260C50DA22DF6A12009E
:1012420003C005F0066A076A0234053601E3068028
:1012520005500F6E0F50D8A409D0000E016E000E7B
:10126200026E000E036E000E046E1200170E056E63
:1012720001C006F002C007F003C008F00528096E9D
:1012820004D0D890083207320632092EFAD7065017
:101292000A6E028EFF0E0116FF0E0216000E0316D4
:1012A20001500B6E02500C6E03500D6E0E6A8E0EC4
:1012B2000F5E0FAE0DD00F50800A8F0FD8A0CDD782
:1012C200D8900E320D320C320B320F3EF9D70DD0C0
:1012D200170E0F6407D0C1D7D8900B360C360D36D7
:1012E2000E360F060F50D8A4F7D70A50D8B408D03C
:1012F2000E1E0D1E0C1E0B6C000E0C220D220E2259
:101302000BC001F00CC002F00DC003F00EC004F0DF
:1013120012000450D8B405D0015002100310D8A412
:101322000CD0000E016E000E026E000E036E120053
:10133200042AD890033202320132000E0114066EE2
:10134200000E0214076EFE0E0314086E06500710FC
:101352000810D8B40CD0ECD7042A010E0126000ED6
:101362000222000E0322D890033202320132000E12
:101372000114066E000E0214076EFF0E0314086EAF
:10138200065007100810D8B406D0E6D70406D89045
:1013920001360236033602BE03D0020E0460F6D7CF
:1013A20004A0029ED8900432045003120550D8A41F
:1013B200038E01C001F002C002F003C003F012006C
:1013C2008996040E3E18D8A404D08C500F0B300915
:1013D20001D03F0E8C6EDBEC0DF0010E44EC0BF0F5
:1013E200040E3E18D8A404D08C500F0B300901D043
:1013F2003F0E8C6EDBEC0DF0030E44EC0BF0040E92
:101402003E18D8A404D08C500F0B300901D03F0EE7
:101412008C6EDBEC0DF0040E44EC0BF0040E3E1867
:10142200D8A411D08C500F0B20098C6EDBEC0DF080
:10143200040E44EC0BF02F0E69EC0CF0DBEC0DF01B
:10144200040E44EC0BF0D1EC0DF00F0E69EC0CF035
:10145200DBEC0DF0040E44EC0BF01200066A04AE55
:1014620006D0036C041ED8B0042A010E066E02AE2A
:1014720006D0016C021ED8B0022A010E061A000E16
:10148200086E000E076E03500410D8B41CD0010E73
:10149200056E04D0D89003360436052A04AEFAD776
:1014A200D890073608360350015C04500258D8A081
:1014B20005D00350015E0450025A0780D8900432CE
:1014C2000332052EEDD70650D8B404D0076C081E9F
:1014D200D8B0082A07C001F008C002F01200040EBA
:1014E200BA6E000ECF6E000ECE6EA190828000D03A
:1014F2008290010E306E82B203D03004D8B4FBD792
:101502003050D8A402D0000E1200CD80A1B002D07B
:101512009EA0FCD7CD909EA002D0286816D0E40EE3
:10152200BB5C0D0EBC58D8A004D00D0EBC6EE40EF0
:10153200BB6EBBCF21F0BCCF22F0000E246E0E0E8C
:10154200236EEEEC0BF02150286E28501200040E90
:10155200BA6E000ECF6E000ECE6EA190828000D0C9
:101562008290010E306E82B203D03004D8B4FBD721
:101572003050D8A402D0000E1200CD80A1B002D00B
:101582009EA0FCD7CD909EA002D0086816D0E40E93
:10159200BB5C0D0EBC58D8A004D00D0EBC6EE40E80
:1015A200BB6EBBCF01F0BCCF02F0000E046E0E0E7C
:1015B200036E17EC0CF00150086E08501200066A18
:1015C20002AE06D0016C021ED8B0022A010E066ECF
:1015D20004AE04D0036C041ED8B0042A03500410D5
:1015E200D8B418D0010E056E04D0D8900336043654
:1015F200052A04AEFAD70350015C04500258D8A061
:1016020004D00350015E0450025AD89004320332CF
:10161200052EF1D70650D8B404D0016C021ED8B002
:10162200022A01C001F002C002F01200276E899660
:101632002750080DF350400F69EC0CF0DBEC0DF075
:10164200040E44EC0BF08986286A25502824266E65
:1016520026C0F6FF080EF76E0800F55069EC0CF094
:10166200DBEC0DF0040E44EC0BF0282A070E286484
:10167200ECD78996800E69EC0CF0DBEC0DF0040ED1
:1016820044EC0BF01200226E1BD0050E216EDE0E12
:10169200E82EFED7212EFCD71200530EE82EFED7DD
:1016A2000000350EE82EFED700001200080EE82ECC
:1016B200FED700001200030EE82EFED70000120033
:1016C2002250010AD8B4E1D7030AD8B4E6D7010AF6
:1016D200D8B4ECD7070AD8A41200EDD7026E1BD0FB
:1016E200050E016EDE0EE82EFED7012EFCD712008B
:1016F200530EE82EFED70000350EE82EFED700006E
:101702001200080EE82EFED700001200030EE82E8B
:10171200FED7000012000250010AD8B4E1D7030A32
:10172200D8B4E6D7010AD8B4ECD7070AD8A4120075
:10173200EDD70A0E216E385039EC0DF08C6E0A0E80
:10174200386003D0050E8D6E1200140E386003D07F
:10175200040E8D6E12001E0E386003D0060E8D6EC2
:101762001200280E386003D0020E8D6E1200320E67
:10177200386003D0030E8D6E12003C0E38601200EA
:10178200070E8D6E12000A0E016E385061EC0DF0DC
:101792008C6E0A0E386003D0050E8D6E1200140E88
:1017A200386003D0040E8D6E12001E0E386003D016
:1017B200060E8D6E1200280E386003D0020E8D6E5A
:1017C2001200320E386003D0030E8D6E12003C0EF2
:1017D20038601200070E8D6E1200000E276E000E8A
:1017E200266E23502410D8B41CD0010E256E04D0CE
:1017F200D89023362436252A24AEFAD7D890263616
:1018020027362350215C24502258D8A005D02350DB
:10181200215E2450225A2680D89024322332252E4B
:10182200EDD726C021F027C022F01200000E066E6E
:10183200000E056E03500410D8B41CD0010E076EC2
:1018420004D0D89003360436072A04AEFAD7D890CB
:10185200053606360350015C04500258D8A005D064
:101862000350015E0450025A0580D89004320332BC
:10187200072EEDD705C001F006C002F0120014D009
:1018820002C0F6FF03C0F7FFF86A070EF76403D041
:101892000800F55005D0F6CFD9FFF7CFDAFFDF50B9
:1018A200E9EC0DF0024A032A02C0F6FF03C0F7FF7B
:1018B200F86A070EF76403D00800F55005D0F6CF9A
:1018C200D9FFF7CFDAFFDF500009D8B41200D8D71A
:1018D200246E040E3E18D8A41AD024C023F0F00EB1
:1018E20023168C500F0B23108C6EDBEC0DF0010EC7
:1018F20044EC0BF024C023F0233AF00E23168C5054
:101902000F0B23108C6E010E44EC0BF01200080E2C
:101912003E18D8A4120024C08CFF1200046E040EDC
:101922003E18D8A41AD004C003F0F00E03168C504F
:101932000F0B03108C6EE2EC0DF0010E6FEC0BF04E
:1019420004C003F0033AF00E03168C500F0B031081
:101952008C6E010E6FEC0BF01200080E3E18D8A42C
:10196200120004C08CFF1200DE0EF66E1B0EF76E24
:10197200000EF86E0900F5CF3CF00900F5CF3DF0FE
:101982000900F5CF3EF000EE2AF0120EEE6AE806EC
:10199200FDE13F903F92000EF86E00010AEF06F063
:1019A200266E286A2550D8B415D0010E276E03D0B2
:1019B200D8902536272A25AEFBD7D8902836255031
:1019C200265CD8A003D02550265E2880D8902532E8
:1019D200272EF3D728501200066E086A0550D8B495
:1019E20015D0010E076E03D0D8900536072A05AE32
:1019F200FBD7D89008360550065CD8A003D0055016
:101A0200065E0880D8900532072EF3D708501200E0
:101A12000C6A0AAE06D0096C0A1ED8B00A2A010E58
:101A22000C6E09C001F00AC002F0036A8E0E046E49
:101A32000CC005F08AEC09F001C009F002C00AF0FE
:101A420003C00BF01200010E8D6E080E8C6ED1ECED
:101A52000DF0650E266E4DEC0DF0C00E9CEC0DF0F7
:101A62008A0E266E4DEC0DF0010EBE6EF29EFED772
:101A7200226E080E236E246AD89022342434246EF7
:101A8200D89022362150245CD8A002D02150245E66
:101A9200232EF2D72450120009D026C0F6FF080EDA
:101AA200F76E0800F55091EC0DF0262A26C0F6FFDD
:101AB200080EF76E0800F5500009D8B41200EDD7F1
:101AC200026E080E036E046AD89002340434046E67
:101AD200D89002360150045CD8A002D00150045EB6
:101AE200032EF2D704501200016E0C0E016402D0D4
:101AF200000E12000144E846FC0B0109C26EC282CC
:101B0200C2B2FED7C4501200216E040E2118D8B4FE
:101B120004D0080E2118D8A4120021C03EF01200F1
:101B2200256E8986255069EC0CF0DBEC0DF0040E75
:101B320044EC0BF01200256E8996255069EC0CF0EE
:101B4200DBEC0DF0040E44EC0BF01200056E8986FE
:101B520005508FEC0CF0E2EC0DF0040E6FEC0BF084
:101B62001200056E899605508FEC0CF0E2EC0DF038
:101B7200040E6FEC0BF0120089960C0E69EC0CF05F
:101B8200DBEC0DF0040E44EC0BF0120089960E0E05
:101B920069EC0CF0DBEC0DF0040E44EC0BF01200DF
:101BA2008996010E69EC0CF0DBEC0DF0020E44ECB0
:101BB2000BF01200898A030EE82EFED70000899AE4
:101BC2001200898A030EE82EFED70000899A1200BD
:0F1BD200016EACA2FED701C0ADFF120036250890
:020000040020DA
:08000000FFFFFFFFFFFFFFFF00
:020000040030CA
:0E00000000091F1EFF8181FF0FC00FE00F409F
:00000001FF
