:0400000007EF00F016
:0A000800458234ED04F01AEF0BF00E
:10080000005069657A6173206120436F6E74617274
:100810003A200056616C6F7220496E76616C696493
:100820006F0046696E206465204375656E746100D3
:1008300050726573696F6E65204F4B004269656E3B
:1008400076656E69646F73004F626A657469766F6E
:100850003A2000456D657267656E636961004661A7
:100860006C74616E3A2000000600F3CF11F0F4CFF3
:1008700012F0F6CF13F0F7CF14F0F8CF15F0F5CF54
:1008800016F038503910D8A49FD0F2A091D0F00EB5
:100890008118D8B482D0416AFE0E8A6E81B806D023
:1008A000010E416E010E91EC0AF077D081BA06D0AC
:1008B000020E416E020E91EC0AF06FD081BC06D0A0
:1008C000030E416E030E91EC0AF067D081BE05D095
:1008D000040E416E9FEC05F060D0FD0E8A6E81B86B
:1008E00006D0050E416E040E91EC0AF056D081BA86
:1008F00006D0060E416E050E91EC0AF04ED081BC7A
:1009000006D0070E416E060E91EC0AF046D081BE6D
:1009100005D0080E416E1EEC0CF03FD0FB0E8A6E27
:1009200081B806D0090E416E070E91EC0AF035D061
:1009300081BA06D00A0E416E080E91EC0AF02DD055
:1009400081BC06D00B0E416E090E91EC0AF025D049
:1009500081BE05D0030E416E6EEC0BF01ED0F70E7B
:100960008A6E81B805D00D0E416E0FEC0AF015D0DD
:1009700081BA06D00E0E416E000E91EC0AF00DD039
:1009800081BC05D00F0E416EFCEC0AF006D081BE92
:1009900004D0100E416E88EC0BF0F00E8A6E110E32
:1009A000106E3A0EE82EFED7102EFCD700D0F29033
:1009B000F2A40AD0F2940B0ED76EDC0ED66E8CA287
:1009C00002D08C8201D08C9216C0F5FF15C0F8FFC2
:1009D00014C0F7FF13C0F6FF12C0F4FF11C0F3FFFD
:1009E000459211000F0EC16E956A926A948296909C
:1009F000969296948C6AF00E936EF19E210E246E60
:100A0000760EE82EFED7242EFCD700D00B0ED76E24
:100A1000DC0ED66E010ED56EF294F28AD58EF2906F
:100A2000F286F28E8D908D928D94020E256E450E7B
:100A3000246EAA0EE82EFED7242EFCD7252EFAD738
:100A4000040E2CEC0CF0E7EC07F038503910D8A469
:100A500007EF00F03C0E1C6EBBEC0BF068EC09F0ED
:100A6000010E38EC0CF02FEC09F0020E38EC0CF013
:100A7000070E256E580E246E5A0EE82EFED7242E31
:100A8000FCD7252EFAD764EC0CF0010E1C6EBBECE3
:100A90000BF0C00E43EC0CF0000E3F6E010E3E6EEC
:100AA0008982290E246E940EE82EFED7242EFCD7C0
:100AB00000D01BEC07F0290E246E940EE82EFED712
:100AC000242EFCD700D01BEC07F0290E246E940EC8
:100AD000E82EFED7242EFCD700D01BEC07F0290E01
:100AE000246E940EE82EFED7242EFCD700D08992D7
:100AF000290E246E940EE82EFED7242EFCD700D0AB
:100B00001BEC07F0290E246E940EE82EFED7242E3F
:100B1000FCD700D01BEC07F0290E246E940EE82EB3
:100B2000FED7242EFCD700D01BEC07F0290E246E34
:100B3000940EE82EFED7242EFCD700D0B1D73E0469
:100B40003F10D8A462D036503710D8A45ED00A0E19
:100B50002E02F3CF0EF0F4CF0FF02F02F3500F263A
:100B600030500E24286E31500F20296E29BE06D039
:100B7000295033E13C0E285CD8B02FD029BE2DD0AF
:100B8000295003E12804D8A028D0000E356E010EAC
:100B9000346E28C026F029C027F0000E3F6E000EEC
:100BA0003E6E6EEC0CF05E0E066EF7EC0BF0020E75
:100BB000096E2650A8EC06F0C00E4EEC0CF0480E64
:100BC000066EF7EC0BF0020E096E2850A8EC06F04A
:100BD000000E3D6E000E3C6E45D06EEC0CF0130E18
:100BE000066EF7EC0BF0000E3D6E000E3C6E040E30
:100BF0000F6ECF0E0E6E020EE82EFED70E2EFCD715
:100C00000F2EFAD76EEC0BF02DD036043710D8A487
:100C100029D06EEC0CF0010E066EF7EC0BF0C00E56
:100C20004EEC0CF0000E3F6E010E3E6E000E3D6E5F
:100C3000000E3C6E000E376E000E366E28C026F099
:100C400029C027F0000E336E000E326E000E2D6E9E
:100C5000000E2C6E000E2B6E000E2A6EF3EC08F0C8
:100C600089EC0CF081EC07F01200236E898865D0C6
:100C70000A0E176E2350CFEC0BF0226E2250300F6D
:100C8000B6EC0AF078EC0CF0040E3BEC0AF0120023
:100C90000A0E1B6E640E176E2350CFEC0BF036EC71
:100CA0000BF0216E0A0E176E2350CFEC0BF0226E64
:100CB0002150300FB6EC0AF078EC0CF0040E3BEC4F
:100CC0000AF02250300FB6EC0AF078EC0CF0040E6B
:100CD0003BEC0AF01200640E1B6E235036EC0BF056
:100CE000206E0A0E1B6E640E176E2350CFEC0BF0B5
:100CF00036EC0BF0216E0A0E176E2350CFEC0BF082
:100D0000226E2050300FB6EC0AF078EC0CF0040E96
:100D10003BEC0AF02150300FB6EC0AF078EC0CF006
:100D2000040E3BEC0AF02250300FB6EC0AF078ECDF
:100D30000CF0040E3BEC0AF012001F50010AD8B46C
:100D400097D7030AD8B4A4D7010AD8A41200C3D7EE
:100D50000D6E898865D00A0E016E0D50E3EC0BF024
:100D60000C6E0C50300FD9EC0AF07FEC0CF0040E36
:100D700066EC0AF012000A0E056E640E016E0D504C
:100D8000E3EC0BF052EC0BF00B6E0A0E016E0D5003
:100D9000E3EC0BF00C6E0B50300FD9EC0AF07FEC4B
:100DA0000CF0040E66EC0AF00C50300FD9EC0AF08F
:100DB0007FEC0CF0040E66EC0AF01200640E056E77
:100DC0000D5052EC0BF00A6E0A0E056E640E016EA9
:100DD0000D50E3EC0BF052EC0BF00B6E0A0E016EB3
:100DE0000D50E3EC0BF00C6E0A50300FD9EC0AF00A
:100DF0007FEC0CF0040E66EC0AF00B50300FD9ECCF
:100E00000AF07FEC0CF0040E66EC0AF00C50300F88
:100E1000D9EC0AF07FEC0CF0040E66EC0AF012003C
:100E20000950010AD8B497D7030AD8B4A4D7010A45
:100E3000D8A41200C3D734043510D8A4120082B24B
:100E40001200000E3B6E010E3A6E38503910D8A4D5
:100E50001200324A332A2606D8A0270632C017F0DD
:100E600033C018F0000E1A6E0A0E196EA1EC09F0CC
:100E700017C02CF018C02DF02C50325C176E2D507E
:100E80003358186E000E1A6E0A0E196E35EC08F003
:100E900017C02AF018C02BF0B7EC08F086EC0CF065
:100EA00064EC0CF05E0E1C6EBBEC0BF0020E1F6EC1
:100EB000265035EC06F0C00E43EC0CF0480E1C6ECC
:100EC000BBEC0BF0020E1F6E285035EC06F02850DC
:100ED000321816E129503318D8A4120064EC0CF033
:100EE000220E1C6EBBEC0BF0C00E43EC0CF0300E6F
:100EF0001C6EBBEC0BF0000E376E010E366E12004E
:100F0000120034043510D8A4120082B21200000E70
:100F10003B6E010E3A6E38503910D8A41200324A96
:100F2000332A2606D8A0270632C001F033C002F0CB
:100F3000000E046E0A0E036ED8EC09F001C02CF00E
:100F400002C02DF02C50325C016E2D503358026ED1
:100F5000000E046E0A0E036E76EC08F001C02AF053
:100F600002C02BF0F3EC08F089EC0CF06EEC0CF006
:100F70005E0E066EF7EC0BF0020E096E2650A8EC22
:100F800006F0C00E4EEC0CF0480E066EF7EC0BF0BF
:100F9000020E096E2850A8EC06F02850321816E10F
:100FA00029503318D8A412006EEC0CF0220E066EF5
:100FB000F7EC0BF0C00E4EEC0CF0300E066EF7ECBA
:100FC0000BF0000E376E010E366E1200120089987B
:100FD000040E4418D8A404D08C500F0B300901D053
:100FE0003F0E8C6E78EC0CF0010E3BEC0AF0040E18
:100FF0004418D8A404D08C500F0B300901D03F0EF8
:101000008C6E78EC0CF0030E3BEC0AF0040E4418E6
:10101000D8A404D08C500F0B300901D03F0E8C6E39
:1010200078EC0CF0040E3BEC0AF0040E4418D8A443
:1010300011D08C500F0B20098C6E78EC0CF0040E44
:101040003BEC0AF02F0EB6EC0AF078EC0CF0040E34
:101050003BEC0AF064EC0CF00F0EB6EC0AF078EC06
:101060000CF0040E3BEC0AF012001C6A1AAE06D01B
:10107000196C1A1ED8B01A2A010E1C6E18AE06D0B2
:10108000176C181ED8B0182A010E1C1A000E1E6EFE
:10109000000E1D6E19501A10D8B41CD0010E1B6E14
:1010A00004D0D89019361A361B2A1AAEFAD7D8901F
:1010B0001D361E361950175C1A501858D8A005D086
:1010C0001950175E1A50185A1D80D8901A321932CA
:1010D0001B2EEDD71C50D8B404D01D6C1E1ED8B0EA
:1010E0001E2A1DC017F01EC018F01200066A04AEBA
:1010F00006D0036C041ED8B0042A010E066E02AEA0
:1011000006D0016C021ED8B0022A010E061A000E8B
:10111000086E000E076E03500410D8B41CD0010EE8
:10112000056E04D0D89003360436052A04AEFAD7EB
:10113000D890073608360350015C04500258D8A0F6
:1011400005D00350015E0450025A0780D890043243
:101150000332052EEDD70650D8B404D0076C081E14
:10116000D8B0082A07C001F008C002F012003A50B7
:101170003B10D8A404D08D908D928D9412002A50EB
:101180002B10D8A404D08D808D928D8412002A0457
:101190002B10D8A404D08D908D928D841200020E55
:1011A0002A182B10D8A404D08D908D828D84120023
:1011B000030E2A182B10D8A404D08D908D828D9404
:1011C0001200040E2A182B10D8A404D08D808D8212
:1011D0008D941200050E2A182B10D8A412008D80B1
:1011E0008D828D8412003A503B10D8A404D08D908B
:1011F0008D928D9412002A502B10D8A404D08D808B
:101200008D928D8412002A042B10D8A404D08D90C6
:101210008D928D841200020E2A182B10D8A404D0AF
:101220008D908D828D841200030E2A182B10D8A465
:1012300004D08D908D828D941200040E2A182B10EC
:10124000D8A404D08D808D828D941200050E2A18AA
:101250002B10D8A412008D808D828D841200500E28
:10126000A2EC0BF08988040E3BEC0AF01F0EB6ECE2
:101270000AF078EC0CF0150EB6EC0AF078EC0CF0F5
:101280001F0EB6EC0AF078EC0CF01F0EB6EC0AF06C
:1012900078EC0CF00E0EB6EC0AF078EC0CF00A0EBE
:1012A000B6EC0AF078EC0CF01B0EB6EC0AF078EC19
:1012B0000CF0000EB6EC0AF078EC0CF08998C10E38
:1012C000B6EC0AF078EC0CF0020E3BEC0AF01200DF
:1012D000480EA2EC0BF08988040E3BEC0AF01B0EC2
:1012E000B6EC0AF078EC0CF0000EB6EC0AF078ECF4
:1012F0000CF01B0EB6EC0AF078EC0CF01B0EB6EC02
:101300000AF078EC0CF0000EB6EC0AF078EC0CF079
:10131000110EB6EC0AF078EC0CF00E0EB6EC0AF0FA
:1013200078EC0CF0000EB6EC0AF078EC0CF0899832
:10133000C00EB6EC0AF078EC0CF0020E3BEC0AF0B2
:1013400012001C6A18AE06D0176C181ED8B0182AE6
:10135000010E1C6E1AAE04D0196C1A1ED8B01A2ACF
:1013600019501A10D8B418D0010E1B6E04D0D890A2
:1013700019361A361B2A1AAEFAD71950175C1A50AA
:101380001858D8A004D01950175E1A50185AD8907F
:101390001A3219321B2EF1D71C50D8B404D0176C56
:1013A000181ED8B0182A17C017F018C018F012006D
:1013B000066A02AE06D0016C021ED8B0022A010EE7
:1013C000066E04AE04D0036C041ED8B0042A035089
:1013D0000410D8B418D0010E056E04D0D89003368E
:1013E0000436052A04AEFAD70350015C04500258B3
:1013F000D8A004D00350015E0450025AD8900432A1
:101400000332052EF1D70650D8B404D0016C021E69
:10141000D8B0022A01C001F002C002F0120028C0B8
:1014200026F029C027F0000E336E000E326E000E3B
:101430002D6E000E2C6E000E2B6E000E2A6EF3EC3D
:1014400008F089EC0CF06EEC0CF05E0E066EF7EC1A
:101450000BF0020E096E2650A8EC06F0C00E4EEC02
:101460000CF0480E066EF7EC0BF0020E096E2850D9
:10147000A8EC06F01200186E1BD0050E176EDE0EDB
:10148000E82EFED7172EFCD71200530EE82EFED7FB
:101490000000350EE82EFED700001200080EE82EE0
:1014A000FED700001200030EE82EFED70000120047
:1014B0001850010AD8B4E1D7030AD8B4E6D7010A14
:1014C000D8B4ECD7070AD8A41200EDD7026E1BD00F
:1014D000050E016EDE0EE82EFED7012EFCD712009F
:1014E000530EE82EFED70000350EE82EFED7000082
:1014F0001200080EE82EFED700001200030EE82EA0
:10150000FED7000012000250010AD8B4E1D7030A46
:10151000D8B4E6D7010AD8B4ECD7070AD8A4120089
:10152000EDD7066E3E043F10D8A412003C503D108B
:10153000D8A40CD006C02EF02F6A2E50300F59ECD4
:101540000CF0000E3D6E010E3C6E12003C043D108E
:10155000D8A4120006C030F0316A3050300F59EC78
:101560000CF0000E3D6E020E3C6E12001A6E040E60
:101570004418D8A417D01AC019F0F00E19168C50C0
:101580000F0B19108C6E78EC0CF0010E3BEC0AF08E
:101590001AC019F0193AF00E19168C500F0B1910C9
:1015A0008C6E1200080E4418D8A412001AC08CFFCA
:1015B0001200046E040E4418D8A417D004C003F01F
:1015C000F00E03168C500F0B03108C6E7FEC0CF09A
:1015D000010E66EC0AF004C003F0033AF00E0316A5
:1015E0008C500F0B03108C6E1200080E4418D8A4F8
:1015F000120004C08CFF120028C032F029C033F062
:101600006EEC0CF0220E066EF7EC0BF0C00E4EECFA
:101610000CF0300E066EF7EC0BF0000E376E010E7C
:10162000366E000E3D6E000E3C6E000E356E000EE6
:10163000346E1200180EF66E190EF76E000EF86E6C
:101640000900F5CF42F00900F5CF43F00900F5CFCE
:1016500044F000EE26F01C0EEE6AE806FDE145902F
:101660004592000EF86E0001F2EF04F01C6E1E6A47
:101670001B50D8B415D0010E1D6E03D0D8901B3668
:101680001D2A1BAEFBD7D8901E361B501C5CD8A061
:1016900003D01B501C5E1E80D8901B321D2EF3D72A
:1016A0001E501200066E086A0550D8B415D0010EFF
:1016B000076E03D0D8900536072A05AEFBD7D89021
:1016C00008360550065CD8A003D00550065E088099
:1016D000D8900532072EF3D7085012003E043F1071
:1016E000D8A412006EEC0CF0010E066EF7EC0BF0B5
:1016F000C00E4EEC0CF0000E3F6E010E3E6E000E62
:10170000296E000E286E000E3D6E000E3C6E12001B
:1017100042C001F043C002F0FF0E046E03680BEC00
:101720000CF001C042F002C043F042044310D8A4C0
:1017300002D089861200422804E14328D8A412006E
:10174000899612001B6E89981B04D8A403D064EC00
:101750000CF012001B50FE0B020AD8A403D08EEC32
:101760000CF012001B50B6EC0AF078EC0CF0040EF2
:101770003BEC0AF0120009D01CC0F6FF080EF76E11
:101780000800F55038EC0CF01C2A1CC0F6FF080EBF
:10179000F76E0800F5500009D8B41200EDD7186EA6
:1017A000080E196E1A6AD89018341A341A6ED89026
:1017B000183617501A5CD8A002D017501A5E192E8E
:1017C000F2D71A501200026E080E036E046AD89007
:1017D00002340434046ED89002360150045CD8A060
:1017E00002D00150045E032EF2D70450120009D03B
:1017F00006C0F6FF080EF76E0800F55059EC0CF025
:10180000062A06C0F6FF080EF76E0800F55000091C
:10181000D8B41200EDD701500302F3CF05F0F4CF96
:1018200006F001500402F350062602500302F35062
:10183000062605C001F006C002F012008D808D92D0
:101840008D94000E396E010E386E6EEC0CF0530E56
:10185000066EF7EC0BF01200176E040E1718D8B4D2
:1018600004D0080E1718D8A4120017C044F01200B4
:101870001B6E89881B50B6EC0AF078EC0CF0040E55
:101880003BEC0AF012001B6E89981B50B6EC0AF074
:1018900078EC0CF0040E3BEC0AF01200056E89980F
:1018A0000550D9EC0AF07FEC0CF0040E66EC0AF05F
:1018B0001200056E89880550D9EC0AF07FEC0CF017
:1018C000040E66EC0AF012008998010EB6EC0AF0DC
:1018D00078EC0CF0020E3BEC0AF012008998010E35
:1018E000D9EC0AF07FEC0CF0020E66EC0AF0120064
:1018F000898A030EE82EFED70000899A1200898A91
:10190000030EE82EFED70000899A12002CC08CFF2F
:0B19100012002CC08CFF1200FFFF082B
:02191C001200B7
:020000040020DA
:08000000FFFFFFFFFFFFFFFF00
:020000040030CA
:0E00000000091F1EFF8181FF0FC00FE00F409F
:00000001FF
