:04000000DBEF04F03E
:1008000000008996040E0818D8A404D08C500F0B51
:10081000300901D03F0E8C6E15EC05F0010E8DEC09
:1008200004F0040E0818D8A404D08C500F0B300923
:1008300001D03F0E8C6E15EC05F0030E8DEC04F02C
:10084000040E0818D8A404D08C500F0B300901D026
:100850003F0E8C6E15EC05F0040E8DEC04F0040ECA
:100860000818D8A411D08C500F0B20098C6E15ECF1
:1008700005F0040E8DEC04F02F0EB8EC04F015EC2E
:1008800005F0040E8DEC04F00BEC05F00F0EB8EC47
:1008900004F015EC05F0040E8DEC04F012000F0EC0
:1008A000C16E926A956A896A8C6A020E076E450E5D
:1008B000066EAA0EE82EFED7062EFCD7072EFAD714
:1008C000040EE9EC04F001EC04F0480EF5EC04F041
:1008D0006F0EF5EC04F06C0EF5EC04F0610EF5EC27
:1008E00004F0200EF5EC04F06D0EF5EC04F0750E3E
:1008F000F5EC04F06E0EF5EC04F0640EF5EC04F08B
:100900006F0EF5EC04F0C00E00EC05F0370EF5ECC0
:1009100004F03B0EF5EC04F0FFD7026E1BD0050E81
:10092000016EDE0EE82EFED7012EFCD71200530E0C
:10093000E82EFED70000350EE82EFED7000012008C
:10094000080EE82EFED700001200030EE82EFED798
:10095000000012000250010AD8B4E1D7030AD8B44B
:10096000E6D7010AD8B4ECD7070AD8A41200EDD70D
:10097000046E040E0818D8A417D004C003F0F00EBB
:1009800003168C500F0B03108C6E15EC05F0010E46
:100990008DEC04F004C003F0033AF00E03168C5003
:1009A0000F0B03108C6E1200080E0818D8A412004A
:1009B00004C08CFF1200380EF66E0A0EF76E000EA1
:1009C000F86E0900F5CF08F0000EF86E00014FEF49
:1009D00004F0016E040E0118D8B404D0080E0118FA
:1009E000D8A4120001C008F01200056E89860550D7
:1009F000B8EC04F015EC05F0040E8DEC04F01200D8
:100A0000056E89960550B8EC04F015EC05F0040E5F
:100A10008DEC04F012008996010EB8EC04F015EC90
:100A200005F0020E8DEC04F012008988030EE82E0A
:090A3000FED700008998120008AD
:020000040020DA
:08000000FFFFFFFFFFFFFFFF00
:020000040030CA
:0E00000000091F1EFF8385FF0FC00FE00F4099
:00000001FF
