:0400000007EF00F016
:10000800028241ED00F04FEF00F094929494000EBC
:10001800956E000E8C6E000ECC6EF90ECB6E000E37
:10002800CA6E010EBB6E0C0EBA6EF90EBE6E0C0EC9
:10003800BD6ECA848C80210E016E760EE82EFED726
:10004800012EFCD700D08C90210E016E760EE82E82
:10005800FED7012EFCD700D0F80EBB6402D0010EEB
:10006800BB6EBB50020FBB6E020EBE6002D0F90E13
:10007800BE6EBE50FE0FBE6EDDD706009E90EC0E23
:10008800CF6E780ECE6EED0EBF6EEF0EBE6E090E01
:10009800BD6E0292110002900292000109EF00F079
:020000040020DA
:08000000FFFFFFFFFFFFFFFF00
:020000040030CA
:0E00000000091F1EFF8385FF0FC00FE00F4099
:00000001FF
