:0400000007EF00F016
:0A0008003F8251ED04F0B6EF0CF05A
:100800000000000000001F151F000E0A0E001F153B
:100810001F0D44697374616E636961206F626A655C
:10082000746F3A20005069657A6173206120636FAC
:100830006E7461723A002020434F4D504C45544134
:1008400053212121200056616C6F72206E6F20763B
:10085000616C69646F0056616C6F72206465205032
:10086000574D3A200020202020454D455247454E07
:1008700043590046616C74616E746573203A004F91
:10088000626A657469766F203A002020202020205B
:1008900053544F50004269656E76656E696461001D
:0108A0000057
:1008A2000600D9CF12F0DACF13F0F3CF14F0F4CF61
:1008B20015F0F6CF16F0F7CF17F0F8CF18F0F5CF06
:1008C20019F0F2A496D0C20ED76EF70ED66EF2943D
:1008D20089B202D0898201D0899289A26FD02A6A14
:1008E200000E76EC0DF01D6E1D50640DF3CF01F07D
:1008F200F4CF02F0000E046E036830EC0AF001C07F
:100902001EF002C01FF01EC009F01FC00AF01A0E2E
:100912000B6E000E0C6EB9EC08F0560E026E025011
:10092200D8A4080E036E41EC0CF01A0E026E000EF3
:10093200036E41EC0CF0250EEAEC0DF0110E026E86
:100942000250D8A4080E036E41EC0CF0A9EC0AF098
:10095200206E090E206402D0090E206E2050300F46
:10096200EAEC0DF00D0EEAEC0DF0000E046E640ED2
:10097200036EF00E1E02F3CF10F0F4CF11F01F023F
:10098200F350112610C001F011C002F030EC0AF051
:1009920001C009F002C00AF00AEC0DF009C01AF019
:1009A2000AC01BF00BC01CF01AC001F01BC002F001
:1009B2001CC003F022EC09F00150BE6E3250D8A4E4
:1009C20005D03104D8A402D08988316A322A140EA3
:1009D200326001D0316A130E326407D0280E3260C1
:1009E20004D08998010E316E04D0270E326401D0F2
:1009F2000300F2A0FCD0F00E8118D8B4DDD034048C
:100A0200D8A4DAD0FE0E8A6E81B808D03AC039F086
:100A120039503A5C386EC5EC0BF0CCD081BA0BD0B1
:100A2200372A030E3760C6D03B6A010E096E3B506F
:100A320046EC08F0BFD081BC04D03AC038F0396A25
:100A4200EAD781BE06D089B802D08988B3D0899806
:100A5200B1D0FD0E8A6E81B80CD0372A030E3760F2
:100A6200A9D0070E3B6E010E096E3B5046EC08F012
:100A7200A1D081BA0CD0372A030E37609BD0080E62
:100A82003B6E010E096E3B5046EC08F093D081BCE0
:100A92000CD0372A030E37608DD0090E3B6E010E43
:100AA200096E3B5046EC08F085D081BE24D0370455
:100AB200D8A40BD0C00EB3EC0DF0200EA8EC0DF0B4
:100AC200C00EB3EC0DF0370675D0020E3718D8A45D
:100AD20010D0C10EB3EC0DF0200EA8EC0DF0C10E3B
:100AE200B3EC0DF00A0E056E3A50EEEC0CF03B6ED4
:100AF200EAD700005FD0FB0E8A6E81B80CD0372A8D
:100B0200030E376057D0040E3B6E010E096E3B5048
:100B120046EC08F04FD081BA0CD0372A030E37606A
:100B220049D0050E3B6E010E096E3B5046EC08F0B3
:100B320041D081BC0CD0372A030E37603BD0060E61
:100B42003B6E010E096E3B5046EC08F033D081BE7D
:100B520003D0010E336E2ED0F70E8A6E81B80CD000
:100B6200372A030E376026D0010E3B6E010E096E46
:100B72003B5046EC08F01ED081BA0CD0372A030E47
:100B8200376018D0020E3B6E010E096E3B5046ECE8
:100B920008F010D081BC0CD0372A030E37600AD07F
:100BA200030E3B6E010E096E3B5046EC08F002D07C
:100BB20081AE352AF00E8A6E3550D8A407D037049C
:100BC200D8A404D03B500A0DF3CF3AF0020E37649A
:100BD20005D03650D8A402D0020E376E520E106ED7
:100BE2002A0EE82EFED7102EFCD7326AF29019C0D8
:100BF200F5FF18C0F8FF17C0F7FF16C0F6FF15C0C3
:100C0200F4FF14C0F3FF13C0DAFF12C0D9FF3F9202
:100C12001100010E926EF00E936E94909494956A68
:100C2200966A100E896E8A6A8B6A8C6A8D6AF19E48
:100C3200240EAC6E900EAB6E080EB86E190EAF6E2F
:100C4200010EC26E0E0EC16E080EC06ECC6AF90E97
:100C5200CB6ECA6A010EBE6E0C0EBD6ECA84800EC9
:100C6200CD6EF290F286020ED56EC20ED76EF70EE0
:100C7200D66EF294F28AF28ED58E040E86EC0DF0C8
:100C8200E2EC09F0BEEC0DF0D0A818D0D2EC0DF0D9
:100C920041EC07F0326AD2EC0DF0950E266E4EEC66
:100CA2000DF0020E0001656F450E646FA90EE82E6D
:100CB200FED7642FFCD7652FFAD700D0D0B803D067
:100CC200050E8D6ED088376A3A6A356A326AD2EC7E
:100CD2000DF0C8EC0DF03DC026F04EEC0DF0C00E4C
:100CE2009DEC0DF0010E346E366A04D03304D8B494
:100CF20025EC0DF03550D8B4F9D7020E376007D085
:100D02003B6A0A0E256E3A50D2EC0CF03A6E030E94
:100D1200376E3B0E3A6414D0D2EC0DF0460E266EBE
:100D22004EEC0DF0030E0001656F8A0E646F550ED6
:100D3200E82EFED7642FFCD7652FFAD700D0FF002C
:100D42003A503B243A6E3AC039F039503A5C386E28
:100D5200010E366ED2EC0DF0730E266E4EEC0DF0D7
:100D6200020E296E3950C6EC07F0C00E9DEC0DF054
:100D72007F0E266E4EEC0DF0020E296E3A50C6EC36
:100D820007F00001666B3304D8B425EC0DF071EC6A
:100D92000AF02E6E310E0001646FB20EE82EFED7FD
:100DA200642FFCD70000080E2E6006D02E50D8B457
:100DB20003D02EC02BF001D02B6A2B50D8B42CD0EC
:100DC20000016651D8A428D03A50385CD8B024D05B
:100DD200326A210E0001646F760EE82EFED7642F70
:100DE200FCD70000382A39060A0E216E38503AEC38
:100DF2000DF00009D8A40ED03A503818D8B40AD051
:100E02008984A30E0001646F550EE82EFED7642F6D
:100E1200FCD789949BEC0BF02BC066F0BEEC0DF076
:100E22008B0E9DEC0DF0020E296E3950C6EC07F0C8
:100E32003A503818D8A4A7D78984D2EC0DF03CC018
:100E420026F04EEC0DF0020E0001656F450E646F48
:100E5200A90EE82EFED7642FFCD7652FFAD700D053
:100E62008994356A3304D8B425EC0DF03550D8B4E2
:100E7200F9D7356A3A6A386A376A9BEC0BF023D79E
:100E82000F0E0001606F040E86EC0DF0E2EC09F02B
:100E9200BEEC0DF0090E256E000E18EC0BF0010EE3
:100EA200256E010E18EC0BF00001616B11D061513F
:100EB200800F9DEC0DF0010E92EC0DF0110E296EDB
:100EC2003A0EE82EFED7292EFCD700D00001612B66
:100ED2006151605DD8B0EBD7616B21D06151800F59
:100EE2009DEC0DF0000E92EC0DF0110E296E3A0EF3
:100EF200E82EFED7292EFCD700D000016151800FC9
:100F02009DEC0DF0010E92EC0DF0110E296E3A0ED1
:100F1200E82EFED7292EFCD700D00001612B6051AC
:100F2200615DD8A0DBD76051800F9DEC0DF0000E03
:100F320092EC0DF060C061F000016151D8B422D092
:100F42006151800F9DEC0DF0000E92EC0DF0110E30
:100F5200296E3A0EE82EFED7292EFCD700D00001CA
:100F62006151800F9DEC0DF0010E92EC0DF0110E0F
:100F7200296E3A0EE82EFED7292EFCD700D00001AA
:100F82006107DAD7C8EC0DF012000001636F8986A1
:100F920071D00A0E216E000163513AEC0DF000018E
:100FA200626F6251300F6AEC0CF0DCEC0DF0040E53
:100FB20045EC0BF012000A0E256E640E216E000144
:100FC20063513AEC0DF0D2EC0CF00001616F0A0EA5
:100FD200216E63513AEC0DF00001626F6151300FE6
:100FE2006AEC0CF0DCEC0DF0040E45EC0BF00001A9
:100FF2006251300F6AEC0CF0DCEC0DF0040E45ECA3
:101002000BF01200640E256E00016351D2EC0CF05D
:101012000001606F0A0E256E640E216E63513AEC78
:101022000DF0D2EC0CF00001616F0A0E216E6351DB
:101032003AEC0DF00001626F6051300F6AEC0CF077
:10104200DCEC0DF0040E45EC0BF000016151300FA9
:101052006AEC0CF0DCEC0DF0040E45EC0BF0000138
:101062006251300F6AEC0CF0DCEC0DF0040E45EC32
:101072000BF012002950010AD8B48BD7030AD8B456
:101082009AD7010AD8A41200BDD70D6E898665D001
:101092000A0E016E0D5062EC0DF00C6E0C50300F0A
:1010A20090EC0CF0E3EC0DF0040E70EC0BF012007F
:1010B2000A0E056E640E016E0D5062EC0DF0EEEC40
:1010C2000CF00B6E0A0E016E0D5062EC0DF00C6E00
:1010D2000B50300F90EC0CF0E3EC0DF0040E70ECC2
:1010E2000BF00C50300F90EC0CF0E3EC0DF0040E12
:1010F20070EC0BF01200640E056E0D50EEEC0CF06D
:101102000A6E0A0E056E640E016E0D5062EC0DF051
:10111200EEEC0CF00B6E0A0E016E0D5062EC0DF04F
:101122000C6E0A50300F90EC0CF0E3EC0DF0040E54
:1011320070EC0BF00B50300F90EC0CF0E3EC0DF078
:10114200040E70EC0BF00C50300F90EC0CF0E3EC52
:101152000DF0040E70EC0BF012000950010AD8B425
:1011620097D7030AD8B4A4D7010AD8A41200C3D7C8
:101172000ABE06D00A5013E10A0E095CD8B00FD09D
:101182000950300F0BC0D9FF0CC0DAFFDF6E20EE22
:1011920001F00B50D9260C50DA22DF6A12000ABE87
:1011A20006D00A5030E1640E095CD8B02CD009C0D8
:1011B20001F00AC002F0000E046E0A0E036E30EC5B
:1011C2000AF00150300F0BC0D9FF0CC0DAFFDF6EFE
:1011D20020EE01F00B50D9260C50DA2209C001F0A2
:1011E2000AC002F0000E046E0A0E036EE1EC0AF071
:1011F2000150300FDF6E20EE02F00B50D9260C505A
:10120200DA22DF6A12000BC0D9FF0CC0DAFF310EFE
:10121200DF6E20EE01F00B50D9260C50DA22300E90
:10122200DF6E20EE02F00B50D9260C50DA22300E7F
:10123200DF6E20EE03F00B50D9260C50DA22DF6A63
:10124200120003C005F0066A076A0234053601E39C
:10125200068005500F6E0F50D8A409D0000E016E03
:10126200000E026E000E036E000E046E1200170EC8
:10127200056E01C006F002C007F003C008F00528A1
:10128200096E04D0D890083207320632092EFAD7F6
:1012920006500A6E028EFF0E0116FF0E0216000E97
:1012A200031601500B6E02500C6E03500D6E0E6A47
:1012B2008E0E0F5E0FAE0DD00F50800A8F0FD8A08A
:1012C200CDD7D8900E320D320C320B320F3EF9D7F9
:1012D2000DD0170E0F6407D0C1D7D8900B360C363D
:1012E2000D360E360F060F50D8A4F7D70A50D8B4D1
:1012F20008D00E1E0D1E0C1E0B6C000E0C220D22B1
:101302000E220BC001F00CC002F00DC003F00EC0A3
:1013120004F012000450D8B405D00150021003109A
:10132200D8A40CD0000E016E000E026E000E036EE9
:101332001200042AD890033202320132000E011444
:10134200066E000E0214076EFE0E0314086E06509F
:1013520007100810D8B40CD0ECD7042A010E0126CD
:10136200000E0222000E0322D89003320232013212
:10137200000E0114066E000E0214076EFF0E031417
:10138200086E065007100810D8B406D0E6D7040637
:10139200D89001360236033602BE03D0020E046034
:1013A200F6D704A0029ED8900432045003120550CE
:1013B200D8A4038E01C001F002C002F003C003F002
:1013C20012008996040E3E18D8A404D08C500F0B3C
:1013D200300901D03F0E8C6EDCEC0DF0010E45ECB5
:1013E2000BF0040E3E18D8A404D08C500F0B300919
:1013F20001D03F0E8C6EDCEC0DF0030E45EC0BF0D1
:10140200040E3E18D8A404D08C500F0B300901D022
:101412003F0E8C6EDCEC0DF0040E45EC0BF0040E6E
:101422003E18D8A411D08C500F0B20098C6EDCEC26
:101432000DF0040E45EC0BF02F0E6AEC0CF0DCEC18
:101442000DF0040E45EC0BF0D2EC0DF00F0E6AEC31
:101452000CF0DCEC0DF0040E45EC0BF01200066A09
:1014620004AE06D0036C041ED8B0042A010E066E28
:1014720002AE06D0016C021ED8B0022A010E061A74
:10148200000E086E000E076E03500410D8B41CD074
:10149200010E056E04D0D89003360436052A04AE38
:1014A200FAD7D890073608360350015C0450025828
:1014B200D8A005D00350015E0450025A0780D8908C
:1014C20004320332052EEDD70650D8B404D0076C8F
:1014D200081ED8B0082A07C001F008C002F01200A6
:1014E200040EBA6E000ECF6E000ECE6EA1908280F8
:1014F20000D08290010E306E82B203D03004D8B494
:10150200FBD73050D8A402D0000E1200CD80A1B07B
:1015120002D09EA0FCD7CD909EA002D0286816D003
:10152200E40EBB5C0D0EBC58D8A004D00D0EBC6EF0
:10153200E40EBB6EBBCF21F0BCCF22F0000E246EB6
:101542000E0E236EEFEC0BF02150286E2850120085
:10155200040EBA6E000ECF6E000ECE6EA190828087
:1015620000D08290010E306E82B203D03004D8B423
:10157200FBD73050D8A402D0000E1200CD80A1B00B
:1015820002D09EA0FCD7CD909EA002D0086816D0B3
:10159200E40EBB5C0D0EBC58D8A004D00D0EBC6E80
:1015A200E40EBB6EBBCF01F0BCCF02F0000E046EA6
:1015B2000E0E036E18EC0CF00150086E085012006B
:1015C200066A02AE06D0016C021ED8B0022A010ED3
:1015D200066E04AE04D0036C041ED8B0042A035075
:1015E2000410D8B418D0010E056E04D0D89003367A
:1015F2000436052A04AEFAD70350015C045002589F
:10160200D8A004D00350015E0450025AD89004328C
:101612000332052EF1D70650D8B404D0016C021E55
:10162200D8B0022A01C001F002C002F01200276EF7
:1016320089962750080DF350400F6AEC0CF0DCEC51
:101642000DF0040E45EC0BF08986286A25502824FB
:10165200266E26C0F6FF080EF76E0800F5506AECFB
:101662000CF0DCEC0DF0040E45EC0BF0282A070E12
:101672002864ECD78996800E6AEC0CF0DCEC0DF055
:10168200040E45EC0BF01200226E1BD0050E216EEB
:10169200DE0EE82EFED7212EFCD71200530EE82EC6
:1016A200FED70000350EE82EFED700001200080E0D
:1016B200E82EFED700001200030EE82EFED700002F
:1016C20012002250010AD8B4E1D7030AD8B4E6D7EF
:1016D200010AD8B4ECD7070AD8A41200EDD7026EDB
:1016E2001BD0050E016EDE0EE82EFED7012EFCD7B2
:1016F2001200530EE82EFED70000350EE82EFED75C
:1017020000001200080EE82EFED700001200030EA1
:10171200E82EFED7000012000250010AD8B4E1D729
:10172200030AD8B4E6D7010AD8B4ECD7070AD8A47A
:101732001200EDD70A0E216E38503AEC0DF08C6E85
:101742000A0E386003D0050E8D6E1200140E38603A
:1017520003D0040E8D6E12001E0E386003D0060EEA
:101762008D6E1200280E386003D0020E8D6E1200AC
:10177200320E386003D0030E8D6E12003C0E3860BC
:101782001200070E8D6E12000A0E016E385062ECC6
:101792000DF08C6E0A0E386003D0050E8D6E1200AD
:1017A200140E386003D0040E8D6E12001E0E3860C7
:1017B20003D0060E8D6E1200280E386003D0020E82
:1017C2008D6E1200320E386003D0030E8D6E120041
:1017D2003C0E38601200070E8D6E1200000E276E4E
:1017E200000E266E23502410D8B41CD0010E256E94
:1017F20004D0D89023362436252A24AEFAD7D8909E
:10180200263627362350215C24502258D8A005D0F2
:101812002350215E2450225A2680D890243223322B
:10182200252EEDD726C021F027C022F01200000E8F
:10183200066E000E056E03500410D8B41CD0010EC3
:10184200076E04D0D89003360436072A04AEFAD7BE
:10185200D890053606360350015C04500258D8A0D1
:1018620005D00350015E0450025A0580D89004321C
:101872000332072EEDD705C001F006C002F01200B8
:1018820014D002C0F6FF03C0F7FFF86A070EF76430
:1018920003D00800F55005D0F6CFD9FFF7CFDAFF15
:1018A200DF50EAEC0DF0024A032A02C0F6FF03C041
:1018B200F7FFF86A070EF76403D00800F55005D069
:1018C200F6CFD9FFF7CFDAFFDF500009D8B4120004
:1018D200D8D7246E040E3E18D8A41AD024C023F000
:1018E200F00E23168C500F0B23108C6EDCEC0DF0D7
:1018F200010E45EC0BF024C023F0233AF00E231620
:101902008C500F0B23108C6E010E45EC0BF0120065
:10191200080E3E18D8A4120024C08CFF1200046ED8
:10192200040E3E18D8A41AD004C003F0F00E031619
:101932008C500F0B03108C6EE3EC0DF0010E70EC6B
:101942000BF004C003F0033AF00E03168C500F0B99
:1019520003108C6E010E70EC0BF01200080E3E1894
:10196200D8A4120004C08CFF1200E00EF66E1B0E0B
:10197200F76E000EF86E0900F5CF3CF00900F5CFC6
:101982003DF00900F5CF3EF000EE2AF0120EEE6AAD
:10199200E806FDE13F903F92000EF86E00010AEF6B
:1019A20006F0266E286A2550D8B415D0010E276E8F
:1019B20003D0D8902536272A25AEFBD7D8902836D3
:1019C2002550265CD8A003D02550265E2880D890CA
:1019D2002532272EF3D728501200066E086A0550CA
:1019E200D8B415D0010E076E03D0D8900536072A59
:1019F20005AEFBD7D89008360550065CD8A003D0B8
:101A02000550065E0880D8900532072EF3D708509D
:101A120012000C6A0AAE06D0096C0A1ED8B00A2A55
:101A2200010E0C6E09C001F00AC002F0036A8E0EAC
:101A3200046E0CC005F08BEC09F001C009F002C085
:101A42000AF003C00BF01200010E8D6E080E8C6EB0
:101A5200D2EC0DF0650E266E4EEC0DF0C00E9DEC34
:101A62000DF08A0E266E4EEC0DF0010EBE6EF29E49
:101A7200FED7226E080E236E246AD89022342434B4
:101A8200246ED89022362150245CD8A002D0215056
:101A9200245E232EF2D72450120009D026C0F6FF6E
:101AA200080EF76E0800F55092EC0DF0262A26C0BB
:101AB200F6FF080EF76E0800F5500009D8B41200C0
:101AC200EDD7026E080E036E046AD8900234043415
:101AD200046ED89002360150045CD8A002D00150A6
:101AE200045E032EF2D704501200016E0C0E016444
:101AF20002D0000E12000144E846FC0B0109C26E3E
:101B0200C282C2B2FED7C4501200216E040E211846
:101B1200D8B404D0080E2118D8A4120021C03EF077
:101B22001200256E898625506AEC0CF0DCEC0DF073
:101B3200040E45EC0BF01200256E899625506AECD6
:101B42000CF0DCEC0DF0040E45EC0BF01200056E0F
:101B52008986055090EC0CF0E3EC0DF0040E70EC6D
:101B62000BF01200056E8996055090EC0CF0E3EC38
:101B72000DF0040E70EC0BF0120089960C0E6AEC5C
:101B82000CF0DCEC0DF0040E45EC0BF01200899623
:101B92000E0E6AEC0CF0DCEC0DF0040E45EC0BF0D2
:101BA20012008996010E6AEC0CF0DCEC0DF0020ECC
:101BB20045EC0BF01200898A030EE82EFED70000D6
:101BC200899A1200898A030EE82EFED70000899AAC
:101BD2001200016EACA2FED701C0ADFF1200362585
:011BE20008FA
:020000040020DA
:08000000FFFFFFFFFFFFFFFF00
:020000040030CA
:0E00000000091F1EFF8181FF0FC00FE00F409F
:00000001FF
