:0400000007EF00F016
:0A000800438234ED04F0D9EF0AF052
:10080000005069657A6173206120436F6E74617274
:100810003A200056616C6F7220496E76616C696493
:100820006F0046696E206465204375656E746100D3
:1008300050726573696F6E65204F4B004269656E3B
:1008400076656E69646F73004F626A657469766F6E
:100850003A2000456D657267656E636961004661A7
:100860006C74616E3A2000000600F3CF11F0F4CFF3
:1008700012F0F6CF13F0F7CF14F0F8CF15F0F5CF54
:1008800016F036503710D8A49FD0F2A091D0F00EB9
:100890008118D8B482D03F6AFE0E8A6E81B806D025
:1008A000010E3F6E010E6EEC0AF077D081BA06D0D1
:1008B000020E3F6E020E6EEC0AF06FD081BC06D0C5
:1008C000030E3F6E030E6EEC0AF067D081BE05D0BA
:1008D000040E3F6EF2EC04F060D0FD0E8A6E81B81B
:1008E00006D0050E3F6E040E6EEC0AF056D081BAAB
:1008F00006D0060E3F6E050E6EEC0AF04ED081BC9F
:1009000006D0070E3F6E060E6EEC0AF046D081BE92
:1009100005D0080E3F6ED9EC0BF03FD0FB0E8A6E6F
:1009200081B806D0090E3F6E070E6EEC0AF035D086
:1009300081BA06D00A0E3F6E080E6EEC0AF02DD07A
:1009400081BC06D00B0E3F6E090E6EEC0AF025D06E
:1009500081BE05D0030E3F6E60EC0BF01ED0F70E8B
:100960008A6E81B805D00D0E3F6EC6EC09F015D029
:1009700081BA06D00E0E3F6E000E6EEC0AF00DD05E
:1009800081BC05D00F0E3F6E48EC0AF006D081BE48
:1009900004D0100E3F6E2DEC0BF0F00E8A6E110E8F
:1009A000106E3A0EE82EFED7102EFCD700D0F29033
:1009B000F2A40AD0F2940B0ED76EDC0ED66E8CA287
:1009C00002D08C8201D08C9216C0F5FF15C0F8FFC2
:1009D00014C0F7FF13C0F6FF12C0F4FF11C0F3FFFD
:1009E000439211003C043D10D8A456D03450351029
:1009F000D8A452D00A0E2E02F3CF0EF0F4CF0FF08F
:100A00002F02F3500F2630500E24286E31500F2045
:100A1000296E29BE06D029502BE13C0E285CD8B0A7
:100A200027D029BE25D0295003E12804D8A020D002
:100A300028C026F029C027F0000E3D6E000E3C6E47
:100A400029EC0CF05E0E066EB2EC0BF0020E096E95
:100A5000265069EC06F0C00E09EC0CF0480E066E4C
:100A6000B2EC0BF0020E096E285069EC06F03DD096
:100A700029EC0CF0130E066EB2EC0BF0040E0F6EA8
:100A8000CF0E0E6E020EE82EFED70E2EFCD70F2EC6
:100A9000FAD760EC0BF029D034043510D8A425D057
:100AA00029EC0CF0010E066EB2EC0BF0C00E09EC56
:100AB0000CF0000E3D6E010E3C6E000E356E000E09
:100AC000346E28C026F029C027F0000E336E000EC9
:100AD000326E000E2D6E000E2C6E000E2B6E000E70
:100AE0002A6EAAEC08F044EC0CF03DEC07F0120082
:100AF0000F0EC16E956A926A948296909692969421
:100B00008C6AF00E936EF19E210E246E760EE82E06
:100B1000FED7242EFCD700D00B0ED76EDC0ED66E7F
:100B2000010ED56EF294F28AD58EF290F286F28E94
:100B3000020E256E450E246EAA0EE82EFED7242E38
:100B4000FCD7252EFAD7040EE7EC0BF09EEC07F04D
:100B500036503710D8A407EF00F03C0E1C6E76EC30
:100B60000BF01FEC09F0010EF3EC0BF0E6EC08F0D3
:100B7000020EF3EC0BF0070E256E580E246E5A0E83
:100B8000E82EFED7242EFCD7252EFAD71FEC0CF02A
:100B9000010E1C6E76EC0BF0C00EFEEC0BF0000E9E
:100BA0003D6E010E3C6E8982520E246E2A0EE82E96
:100BB000FED7242EFCD7DCEC06F0520E246E2A0E53
:100BC000E82EFED7242EFCD78992520E246E2A0ED0
:100BD000E82EFED7242EFCD7DCEC06F0520E246E55
:100BE0002A0EE82EFED7242EFCD7DDD7236E898867
:100BF00065D00A0E176E23508AEC0BF0226E22503D
:100C0000300F93EC0AF033EC0CF0040EF2EC09F028
:100C100012000A0E1B6E640E176E23508AEC0BF046
:100C2000F5EC0AF0216E0A0E176E23508AEC0BF0D9
:100C3000226E2150300F93EC0AF033EC0CF0040ECE
:100C4000F2EC09F02250300F93EC0AF033EC0CF088
:100C5000040EF2EC09F01200640E1B6E2350F5EC4A
:100C60000AF0206E0A0E1B6E640E176E23508AEC7B
:100C70000BF0F5EC0AF0216E0A0E176E23508AEC89
:100C80000BF0226E2050300F93EC0AF033EC0CF096
:100C9000040EF2EC09F02150300F93EC0AF033EC23
:100CA0000CF0040EF2EC09F02250300F93EC0AF035
:100CB00033EC0CF0040EF2EC09F012001F50010AA4
:100CC000D8B497D7030AD8B4A4D7010AD8A412007D
:100CD000C3D70D6E898865D00A0E016E0D509EEC4B
:100CE0000BF00C6E0C50300FB6EC0AF03AEC0CF036
:100CF000040E1DEC0AF012000A0E056E640E016E61
:100D00000D509EEC0BF011EC0BF00B6E0A0E016E09
:100D10000D509EEC0BF00C6E0B50300FB6EC0AF041
:100D20003AEC0CF0040E1DEC0AF00C50300FB6EC4F
:100D30000AF03AEC0CF0040E1DEC0AF01200640EFE
:100D4000056E0D5011EC0BF00A6E0A0E056E640E66
:100D5000016E0D509EEC0BF011EC0BF00B6E0A0EB9
:100D6000016E0D509EEC0BF00C6E0A50300FB6EC7D
:100D70000AF03AEC0CF0040E1DEC0AF00B50300FA8
:100D8000B6EC0AF03AEC0CF0040E1DEC0AF00C5034
:100D9000300FB6EC0AF03AEC0CF0040E1DEC0AF041
:100DA00012000950010AD8B497D7030AD8B4A4D7BF
:100DB000010AD8A41200C3D782B21200000E396E05
:100DC000010E386E36503710D8A41200324A332A3A
:100DD0002606D8A0270632C017F033C018F0000E40
:100DE0001A6E0A0E196E58EC09F017C02CF018C0D4
:100DF0002DF02C50325C176E2D503358186E000EAB
:100E00001A6E0A0E196EECEC07F017C02AF018C023
:100E10002BF06EEC08F041EC0CF01FEC0CF05E0EC9
:100E20001C6E76EC0BF0020E1F6E2650F6EC05F0F1
:100E3000C00EFEEC0BF0480E1C6E76EC0BF0020EB2
:100E40001F6E2850F6EC05F02850321815E1295095
:100E50003318D8A412001FEC0CF0220E1C6E76EC96
:100E60000BF0C00EFEEC0BF0300E1C6E76EC0BF0AF
:100E7000000E356E010E346E120082B21200000EAA
:100E8000396E010E386E36503710D8A41200324A2F
:100E9000332A2606D8A0270632C001F033C002F05C
:100EA000000E046E0A0E036E8FEC09F001C02CF0E8
:100EB00002C02DF02C50325C016E2D503358026E62
:100EC000000E046E0A0E036E2DEC08F001C02AF02D
:100ED00002C02BF0AAEC08F044EC0CF029EC0CF06A
:100EE0005E0E066EB2EC0BF0020E096E265069EC37
:100EF00006F0C00E09EC0CF0480E066EB2EC0BF0DA
:100F0000020E096E285069EC06F02850321815E1DF
:100F100029503318D8A4120029EC0CF0220E066ECA
:100F2000B2EC0BF0C00E09EC0CF0300E066EB2EC19
:100F30000BF0000E356E010E346E12008998040E0F
:100F40004218D8A404D08C500F0B300901D03F0EAA
:100F50008C6E33EC0CF0010EF2EC09F0040E42182A
:100F6000D8A404D08C500F0B300901D03F0E8C6EEA
:100F700033EC0CF0030EF2EC09F0040E4218D8A486
:100F800004D08C500F0B300901D03F0E8C6E33EC27
:100F90000CF0040EF2EC09F0040E4218D8A411D0A3
:100FA0008C500F0B20098C6E33EC0CF0040EF2EC1D
:100FB00009F02F0E93EC0AF033EC0CF0040EF2EC77
:100FC00009F01FEC0CF00F0E93EC0AF033EC0CF070
:100FD000040EF2EC09F012001C6A1AAE06D0196C6D
:100FE0001A1ED8B01A2A010E1C6E18AE06D0176C45
:100FF000181ED8B0182A010E1C1A000E1E6E000E04
:101000001D6E19501A10D8B41CD0010E1B6E04D0DE
:10101000D89019361A361B2A1AAEFAD7D8901D3630
:101020001E361950175C1A501858D8A005D0195000
:10103000175E1A50185A1D80D8901A3219321B2E7A
:10104000EDD71C50D8B404D01D6C1E1ED8B01E2A7B
:101050001DC017F01EC018F01200066A04AE06D0BC
:10106000036C041ED8B0042A010E066E02AE06D030
:10107000016C021ED8B0022A010E061A000E086E7C
:10108000000E076E03500410D8B41CD0010E056E7C
:1010900004D0D89003360436052A04AEFAD7D89087
:1010A000073608360350015C04500258D8A005D01A
:1010B0000350015E0450025A0780D8900432033274
:1010C000052EEDD70650D8B404D0076C081ED8B052
:1010D000082A07C001F008C002F012003850391089
:1010E000D8A404D08D908D928D9412002A502B108C
:1010F000D8A404D08D808D928D8412002A042B10E8
:10110000D8A404D08D908D928D841200020E2A18DE
:101110002B10D8A404D08D908D828D841200030EE4
:101120002A182B10D8A404D08D908D828D94120093
:10113000040E2A182B10D8A404D08D808D828D9493
:101140001200050E2A182B10D8A412008D808D8253
:101150008D84120038503910D8A404D08D908D920F
:101160008D9412002A502B10D8A404D08D808D921B
:101170008D8412002A042B10D8A404D08D908D9257
:101180008D841200020E2A182B10D8A404D08D9042
:101190008D828D841200030E2A182B10D8A404D03F
:1011A0008D908D828D941200040E2A182B10D8A4D5
:1011B00004D08D808D828D941200050E2A182B107C
:1011C000D8A412008D808D828D841200500E47ECC1
:1011D0000BF08988040EF2EC09F01F0E93EC0AF074
:1011E00033EC0CF0150E93EC0AF033EC0CF01F0E00
:1011F00093EC0AF033EC0CF01F0E93EC0AF033EC96
:101200000CF00E0E93EC0AF033EC0CF00A0E93EC9B
:101210000AF033EC0CF01B0E93EC0AF033EC0CF0FC
:10122000000E93EC0AF033EC0CF08998C10E93ECAD
:101230000AF033EC0CF0020EF2EC09F01200480E4A
:1012400047EC0BF08988040EF2EC09F01B0E93ECCE
:101250000AF033EC0CF0000E93EC0AF033EC0CF0D7
:101260001B0E93EC0AF033EC0CF01B0E93EC0AF01F
:1012700033EC0CF0000E93EC0AF033EC0CF0110E92
:1012800093EC0AF033EC0CF00E0E93EC0AF033EC16
:101290000CF0000E93EC0AF033EC0CF08998C00EC1
:1012A00093EC0AF033EC0CF0020EF2EC09F01200B1
:1012B0001C6A18AE06D0176C181ED8B0182A010E7A
:1012C0001C6E1AAE04D0196C1A1ED8B01A2A195006
:1012D0001A10D8B418D0010E1B6E04D0D89019364D
:1012E0001A361B2A1AAEFAD71950175C1A5018581A
:1012F000D8A004D01950175E1A50185AD8901A3234
:1013000019321B2EF1D71C50D8B404D0176C181EFC
:10131000D8B0182A17C017F018C018F01200066AC3
:1013200002AE06D0016C021ED8B0022A010E066E73
:1013300004AE04D0036C041ED8B0042A0350041079
:10134000D8B418D0010E056E04D0D89003360436F8
:10135000052A04AEFAD70350015C04500258D8A005
:1013600004D00350015E0450025AD8900432033274
:10137000052EF1D70650D8B404D0016C021ED8B0A7
:10138000022A01C001F002C002F0120028C026F0BB
:1013900029C027F0000E336E000E326E000E2D6E47
:1013A000000E2C6E000E2B6E000E2A6EAAEC08F0BA
:1013B00044EC0CF029EC0CF05E0E066EB2EC0BF077
:1013C000020E096E265069EC06F0C00E09EC0CF016
:1013D000480E066EB2EC0BF0020E096E285069EC56
:1013E00006F01200186E1BD0050E176EDE0EE82EEA
:1013F000FED7172EFCD71200530EE82EFED70000A2
:10140000350EE82EFED700001200080EE82EFED79B
:1014100000001200030EE82EFED700001200185044
:10142000010AD8B4E1D7030AD8B4E6D7010AD8B480
:10143000ECD7070AD8A41200EDD7026E1BD0050E18
:10144000016EDE0EE82EFED7012EFCD71200530EE1
:10145000E82EFED70000350EE82EFED70000120061
:10146000080EE82EFED700001200030EE82EFED76D
:10147000000012000250010AD8B4E1D7030AD8B420
:10148000E6D7010AD8B4ECD7070AD8A41200EDD7E2
:1014900029EC0CF0010E066EB2EC0BF0C00E09EC5C
:1014A0000CF0000E3D6E010E3C6E000E356E000E0F
:1014B000346E28C026F029C027F0000E336E000ECF
:1014C000326E000E2D6E000E2C6E000E2B6E000E76
:1014D0002A6EAAEC08F044EC0CF01200066E3C04F4
:1014E0003D10D8A412003A503B10D8A40CD006C02E
:1014F0002EF02F6A2E50300F14EC0CF0000E3B6EC5
:10150000010E3A6E12003A043B10D8A4120006C035
:1015100030F0316A3050300F14EC0CF0000E3B6E9E
:10152000000E3A6E12001A6E040E4218D8A417D09C
:101530001AC019F0F00E19168C500F0B19108C6E82
:1015400033EC0CF0010EF2EC09F01AC019F0193A64
:10155000F00E19168C500F0B19108C6E1200080E1D
:101560004218D8A412001AC08CFF1200046E040E98
:101570004218D8A417D004C003F0F00E03168C5004
:101580000F0B03108C6E3AEC0CF0010E1DEC0AF000
:1015900004C003F0033AF00E03168C500F0B031037
:1015A0008C6E1200080E4218D8A4120004C08CFFE2
:1015B00012008E0EF66E180EF76E000EF86E090011
:1015C000F5CF40F00900F5CF41F00900F5CF42F02A
:1015D00000EE26F01A0EEE6AE806FDE14390439213
:1015E000000EF86E000178EF05F01C6E1E6A1B50AD
:1015F000D8B415D0010E1D6E03D0D8901B361D2A0D
:101600001BAEFBD7D8901E361B501C5CD8A003D055
:101610001B501C5E1E80D8901B321D2EF3D71E500F
:101620001200066E086A0550D8B415D0010E076E78
:1016300003D0D8900536072A05AEFBD7D8900836D8
:101640000550065CD8A003D00550065E0880D890EF
:101650000532072EF3D70850120040C001F041C0F8
:1016600002F0FF0E046E0368C6EC0BF001C040F000
:1016700002C041F040044110D8A402D08986120073
:10168000402804E14128D8A41200899612001B6E5C
:1016900089981B04D8A403D01FEC0CF012001B5037
:1016A000FE0B020AD8A403D049EC0CF012001B5028
:1016B00093EC0AF033EC0CF0040EF2EC09F012009B
:1016C0003C043D10D8A4120029EC0CF0010E066E6B
:1016D000B2EC0BF0C00E09EC0CF0000E3D6E010EEA
:1016E0003C6E000E296E000E286E120009D01CC040
:1016F000F6FF080EF76E0800F550F3EC0BF01C2A0D
:101700001CC0F6FF080EF76E0800F5500009D8B4AB
:101710001200EDD7186E080E196E1A6AD890183498
:101720001A341A6ED890183617501A5CD8A002D006
:1017300017501A5E192EF2D71A501200026E080EB8
:10174000036E046AD89002340434046ED8900236D2
:101750000150045CD8A002D00150045E032EF2D7E1
:101760000450120009D006C0F6FF080EF76E0800FC
:10177000F55014EC0CF0062A06C0F6FF080EF76EC2
:101780000800F5500009D8B41200EDD7015003024B
:10179000F3CF05F0F4CF06F001500402F350062613
:1017A00002500302F350062605C001F006C002F005
:1017B00012008D808D928D94000E376E010E366E64
:1017C00029EC0CF0530E066EB2EC0BF01200176E03
:1017D000040E1718D8B404D0080E1718D8A4120095
:1017E00017C042F012001B6E89881B5093EC0AF060
:1017F00033EC0CF0040EF2EC09F012001B6E899829
:101800001B5093EC0AF033EC0CF0040EF2EC09F0F0
:101810001200056E89980550B6EC0AF03AEC0CF00F
:10182000040E1DEC0AF01200056E89880550B6EC16
:101830000AF03AEC0CF0040E1DEC0AF01200899844
:10184000010E93EC0AF033EC0CF0020EF2EC09F00E
:1018500012008998010EB6EC0AF03AEC0CF0020E78
:101860001DEC0AF01200898A030EE82EFED7000054
:10187000899A1200898A030EE82EFED70000899A01
:1018800012002CC08CFF12002CC08CFF1200FFFF36
:01189000084F
:02189200120042
:020000040020DA
:08000000FFFFFFFFFFFFFFFF00
:020000040030CA
:0E00000000091F1EFF8181FF0FC00FE00F409F
:00000001FF
