:0400000007EF00F016
:0A000800058201ED04F006EF05F09B
:1008000000000600F2A411D0A1A405D0A194C20E4C
:10081000D76EF70E03D00B0ED76EDC0ED66EF294A9
:100820008AB602D08A8601D08A96F2A211D0F292BC
:10083000410E036EEE0EE82EFED7032EFCD700D03D
:1008400081B003D005D0100E8C6E81A081A0FBD7A3
:10085000F0A00ED0F090410E036EEE0EE82EFED703
:10086000032EFCD700D081B202D0000001D0FF00DF
:10087000F0A29CD0410E036EEE0EE82EFED7032EA2
:10088000FCD700D081B481B090D00228026E090E4E
:10089000026410D08C8E030E046E8A0E036E560E08
:1008A000E82EFED7032EFCD7042EFAD78C9E026AC0
:1008B0000128016E060E0118D8A40ED08C8E060EEB
:1008C000046E130E036EAE0EE82EFED7032EFCD779
:1008D000042EFAD78C9E016A0150D8A405D002508C
:1008E000D8A402D0140E1FD00150D8B4FBD70104F5
:1008F000D8A402D0040E17D0020E0118D8A402D03A
:100900000C0E11D0030E0118D8A402D0080E0BD083
:10091000040E0118D8A402D0180E05D0050E011837
:10092000D8A402D01C0E8C6E0250D8A403D08968C3
:10093000020E3AD00204D8A404D00D0E896E8D6A3E
:1009400034D0020E0218D8A402D0FB0E05D0030E3C
:100950000218D8A404D0EF0E896E010E25D0040E23
:100960000218D8A402D0CD0E1DD0050E0218D8A4AE
:1009700002D0EE0E17D0060E0218D8A402D0FE0E3A
:1009800011D0070E0218D8A402D0CF0ED7D7080E68
:100990000218D8A402D0896806D0090E0218D8A47B
:1009A00004D0EF0E896E030E8D6EF0920592110049
:1009B000926A966A956AF70E936E8968020E8D6E3A
:1009C0008C6AD288D29ED286D294D282D290A194BE
:1009D000020ED56E0B0ED76EDC0ED66EF294F28A36
:1009E000F18CF292F288F18AF090F086F188F09220
:1009F000F088F28ED58E026A016AD0B806D0140E45
:100A00008C6E8968020E8D6ED088FFD7026A016AEB
:0A0A1000059005920001D8EF04F0F4
:020000040020DA
:08000000FFFFFFFFFFFFFFFF00
:020000040030CA
:0E000000000C1F1EFF8181FF0FC00FE00F409C
:00000001FF
