:040000003BEF04F0DE
:100800000000956A8C6A946A8B6A010EC26E0E0EA5
:10081000C16E080EC06E000E2BEC04F0056E0A0EC1
:10082000016E055017EC04F005C08CFFF4D7026E82
:10083000080E036E046AD89002340434046ED89013
:1008400002360150045CD8A002D00150045E032E91
:10085000F2D704501200016E0C0E016402D0000E9B
:1008600012000144E846FC0B0109C26EC282C2B20A
:10087000FED7C45012008E0EF66E080EF76E000EF4
:0F088000F86E0900F5CF06F0000101EF04F00853
:020000040020DA
:08000000FFFFFFFFFFFFFFFF00
:020000040030CA
:0E00000000091F1EFF8385FF0FC00FE00F4099
:00000001FF
