:0400000033EF04F0E6
:100800000000926A956A896A8C6A010EC26E010EB6
:10081000C16E080EC06E200EAC6E800EAB6EB86A54
:10082000190EAF6E480E2DEC04F06F0E2DEC04F097
:100830006C0E2DEC04F0610E2DEC04F00D0E2DEC81
:1008400004F0020E036E450E026EAA0EE82EFED7CD
:10085000022EFCD7032EFAD7E5D7016EACA2FED745
:0C08600001C0ADFF1200000101EF04F028
:020000040020DA
:08000000FFFFFFFFFFFFFFFF00
:020000040030CA
:0E00000000091F1EFF8385FF0FC00FE00F4099
:00000001FF
