:0400000007EF00F016
:0A00080048829EED05F026EF0EF091
:100800000001000A006400E803102756616C6F7253
:10081000206465204144433A2025750D00506965E8
:100820007A6173206120436F6E7461723A200056C2
:10083000616C6F7220496E76616C69646F00466905
:100840006E206465204375656E7461005072657337
:10085000696F6E65204F4B004269656E76656E6903
:10086000646F73004F626A657469766F3A20004561
:100870006D657267656E6369610046616C74616E77
:100880003A200000956A926A8D908D928D949280A4
:1008900094940E0EC16EA90EC06E010EC26E240E8F
:1008A000AC6E900EAB6E080EB86E190EAF6E9482E1
:1008B0009690969296948C6AF00E936EF19E210E0D
:1008C0000001996F760EE82EFED7992FFCD7000015
:1008D000F290F286F28E020E00019A6F450E996F29
:1008E000A90EE82EFED7992FFCD79A2FFAD700D061
:1008F000040EA3EC0FF008EC0AF03B503C10D8A417
:1009000007EF00F0580E1C6E24EC0FF004EC0CF016
:10091000010EBAEC0FF0CBEC0BF0020EBAEC0FF0BC
:10092000070E00019A6F580E996F590EE82EFED7E8
:10093000992FFCD79A2FFAD700D0DBEC0FF01D0EC1
:100940001C6E24EC0FF0C00EAFEC0FF0000E426EE8
:10095000010E416E898258EC09F074EC0CF0290EFE
:100960000001996F940EE82EFED7992FFCD7000056
:1009700088EC08F0290E0001996F940EE82EFED73E
:10098000992FFCD7000088EC08F0290E0001996F20
:10099000940EE82EFED7992FFCD7000088EC08F0C3
:1009A000290E0001996F940EE82EFED7992FFCD7DF
:1009B00000008992290E0001996F940EE82EFED74F
:1009C000992FFCD7000088EC08F0290E0001996FE0
:1009D000940EE82EFED7992FFCD7000088EC08F083
:1009E000290E0001996F940EE82EFED7992FFCD79F
:1009F000000088EC08F0290E0001996F940EE82E93
:100A0000FED7992FFCD70000A5D741044210D8A4E7
:100A100063D00001A551A611D8A45ED00A0E9D0393
:100A2000F3CF0EF0F4CF0FF09E03F3500F269F513B
:100A30000E24336EA0510F20346E34BE06D03450D5
:100A400033E13C0E335CD8B02FD034BE2DD03450BF
:100A500003E13304D8A028D0000EA46F010EA36FC9
:100A600033C031F034C032F0000E426E000E416EE1
:100A7000E5EC0FF07A0E066E4CEC0FF0020E096EEC
:100A8000315015EC08F0C00EC5EC0FF0640E066E88
:100A90004CEC0FF0020E096E335015EC08F0000E0E
:100AA000406E000E3F6E47D0E5EC0FF02F0E066E45
:100AB0004CEC0FF0000E406E000E3F6E040E0F6EF9
:100AC000CF0E0E6E020EE82EFED70E2EFCD70F2E86
:100AD000FAD7C3EC0EF02FD00001A505A611D8A4BB
:100AE0002AD0E5EC0FF01D0E066E4CEC0FF0C00E98
:100AF000C5EC0FF0000E426E010E416E000E406E0E
:100B0000000E3F6E000E0001A66F000EA56F33C0F1
:100B100031F034C032F0000E3A6E000E396E000E25
:100B2000386E000E376E000E366E000E356E55ECC8
:100B30000BF000EC10F0F0EC08F012000600F3CF20
:100B400011F0F4CF12F0F6CF13F0F7CF14F0F8CF86
:100B500015F0F5CF16F03B503C10D8B4F2A070D091
:100B6000F00E8118D8B461D0446AFE0E8A6E81B846
:100B700004D0010EB9EC0DF058D081BA04D0020EA9
:100B8000B9EC0DF052D081BC04D0030EB9EC0DF0DD
:100B90004CD081BE03D005EC05F047D0FD0E8A6E27
:100BA00081B804D0040EB9EC0DF03FD081BA04D066
:100BB000050EB9EC0DF039D081BC04D0060EB9ECAD
:100BC0000DF033D081BE03D094EC0FF02ED0FB0E8D
:100BD0008A6E81B804D0070EB9EC0DF026D081BA28
:100BE00004D0080EB9EC0DF020D081BC04D0090E61
:100BF000B9EC0DF01AD081BE03D0C3EC0EF015D0C5
:100C0000F70E8A6E81B803D00EEC0DF00ED081BACB
:100C100004D0000EB9EC0DF008D081BC03D097ECE5
:100C20000AF003D081AEDDEC0EF0F00E8A6E110EEC
:100C3000106E3A0EE82EFED7102EFCD700D0F290A0
:100C400016C0F5FF15C0F8FF14C0F7FF13C0F6FF7C
:100C500012C0F4FF11C0F3FF48921100250E296E57
:100C600072D0250E2D18D8B407D02350D96EDA6A69
:100C70002DC0DFFF232A67D0286A03D0C00E2812B8
:100C800012D0242A2404276E27C0F6FF080EF76E20
:100C90000800F5CF2DF02D50000AD8B461D0750AA8
:100CA000D8B4ECD750D02950D96EDA6ADECF2AF00A
:100CB000DDCF2BF0020E2926010E2D6E2D50020DD8
:100CC000F350010F276E27C0F6FF080EF76E0900DC
:100CD000F5502A5C0900F5502B58D8A005D02D2AD4
:100CE000050E2D18D8A4EAD72DC02CF028D02C50F2
:100CF000020DF350010F276E27C0F6FF080EF76EA6
:100D00000900F5CF19F00A00F5CF1AF02AC017F044
:100D10002BC018F090EC0DF017C01EF018C01FF09B
:100D2000000E216E0A0E206E6AEC0EF01E50300F7F
:100D30002D6E2350D96EDA6A2DC0DFFF232A2C06D0
:100D40002C28D8A4D4D7242A2404276E27C0F6FF41
:100D5000080EF76E0800F5CF2DF02D50D8A481D7DE
:100D60002350D96EDA6ADF6A120024C028F0296A9B
:100D70002A6A2334283601E3298028502B6E2B5011
:100D8000D8A407D0000E226E000E236E000E246E33
:100D9000120027C028F0296A2A6A2634283601E37F
:100DA00029802850306E3050D8A407D0000E226E13
:100DB000000E236E000E246E120030507B0F2B2687
:100DC00024C030F02750301A800E3016238E268E25
:100DD000FF0E2516FF0E2616000E2716000E2C6E8F
:100DE000000E2D6E000E2E6E070E2F6E22A006D066
:100DF00025502C2626502D2227502E22D8902432E2
:100E000023322232D8902536263627362F2EEED79B
:100E1000090E2F6E22A006D025502C2626502D22FA
:100E200027502E22D890243223322232D8902E32CC
:100E30002D322C322F2EEED72CC017F02DC018F0EB
:100E40002EC019F02BC01AF030C01BF0B1EC09F025
:100E500017C022F018C023F019C024F01200236E2E
:100E6000898865D00A0E176E235010EC0FF0226EA1
:100E70002250300FE0EC0DF0EFEC0FF0040E3AECE6
:100E80000DF012000A0E1B6E640E176E235010EC4C
:100E90000FF08BEC0EF0216E0A0E176E235010EC43
:100EA0000FF0226E2150300FE0EC0DF0EFEC0FF060
:100EB000040E3AEC0DF02250300FE0EC0DF0EFECA8
:100EC0000FF0040E3AEC0DF01200640E1B6E23506E
:100ED0008BEC0EF0206E0A0E1B6E640E176E235004
:100EE00010EC0FF08BEC0EF0216E0A0E176E2350F3
:100EF00010EC0FF0226E2050300FE0EC0DF0EFEC14
:100F00000FF0040E3AEC0DF02150300FE0EC0DF034
:100F1000EFEC0FF0040E3AEC0DF02250300FE0EC45
:100F20000DF0EFEC0FF0040E3AEC0DF012001F5034
:100F3000010AD8B497D7030AD8B4A4D7010AD8A411
:100F40001200C3D762C066F0676B686B61356637A5
:100F500001E3678166516D6F6D51D8A407D0000E13
:100F6000606F000E616F000E626F120065C066F068
:100F7000676B686B6435663701E3678166516E6F36
:100F80006E51D8A407D0000E606F000E616F000E86
:100F9000626F1200000E6A6F000E6B6F000E6C6FB6
:100FA0006E51890F6D5F62C06EF065516E1B800ED1
:100FB0006E17618FFF0E6017FF0E6117000E62172C
:100FC000648FFF0E6317FF0E6417000E6517180E6F
:100FD000696FD8906A376B376C376351605D6451C5
:100FE000615965516259D8A007D06351605F64515F
:100FF000615B6551625B6A81D890603761376237A7
:10100000692FE7D76AC017F06BC018F06CC019F0F1
:101010006DC01AF06EC01BF0B1EC09F017C060F0A3
:1010200018C061F019C062F012000D6E898865D099
:101030000A0E016E0D5038EC0FF00C6E0C50300F94
:1010400003EC0EF0F6EC0FF0040E65EC0DF0120060
:101050000A0E056E640E016E0D5038EC0FF0A7EC11
:101060000EF00B6E0A0E016E0D5038EC0FF00C6E88
:101070000B50300F03EC0EF0F6EC0FF0040E65ECA5
:101080000DF00C50300F03EC0EF0F6EC0FF0040EE8
:1010900065EC0DF01200640E056E0D50A7EC0EF01D
:1010A0000A6E0A0E056E640E016E0D5038EC0FF0DC
:1010B000A7EC0EF00B6E0A0E016E0D5038EC0FF01F
:1010C0000C6E0A50300F03EC0EF0F6EC0FF0040E2D
:1010D00065EC0DF00B50300F03EC0EF0F6EC0FF05A
:1010E000040E65EC0DF00C50300F03EC0EF0F6EC36
:1010F0000FF0040E65EC0DF012000950010AD8B48F
:1011000097D7030AD8B4A4D7010AD8A41200C3D72A
:101110000001A305A411D8A4120082B21200000E8F
:101120003E6E010E3D6E3B503C10D8A41200394A71
:101130003A2A3106D8A0320639C017F03AC018F062
:10114000000E1A6E0A0E196E3DEC0CF017C037F047
:1011500018C038F03750395C176E38503A58186E4E
:10116000000E1A6E0A0E196E56EC0AF017C035F012
:1011700018C036F019EC0BF0FDEC0FF0DBEC0FF0C3
:101180007A0E1C6E24EC0FF0020E1F6E31502FEC05
:1011900007F0C00EAFEC0FF0640E1C6E24EC0FF0E5
:1011A000020E1F6E33502FEC07F03350391817E141
:1011B00034503A18D8A41200DBEC0FF03E0E1C6E2F
:1011C00024EC0FF0C00EAFEC0FF04C0E1C6E24ECB4
:1011D0000FF0000E0001A66F010EA56F12001200A5
:1011E0000001A305A411D8A4120082B21200000EBF
:1011F0003E6E010E3D6E3B503C10D8A41200394AA1
:101200003A2A3106D8A0320639C001F03AC002F0BD
:10121000000E046E0A0E036EABEC0CF001C037F04A
:1012200002C038F03750395C016E38503A58026EBF
:10123000000E046E0A0E036ED8EC0AF001C035F001
:1012400002C036F055EC0BF000EC10F0E5EC0FF0BE
:101250007A0E066E4CEC0FF0020E096E315015EC52
:1012600008F0C00EC5EC0FF0640E066E4CEC0FF0EB
:10127000020E096E335015EC08F03350391817E19F
:1012800034503A18D8A41200E5EC0FF03E0E066E6A
:101290004CEC0FF0C00EC5EC0FF04C0E066E4CEC93
:1012A0000FF0000E0001A66F010EA56F12001200D4
:1012B0003B503C10D8A41200C282C2B2FED7C45028
:1012C0000001956F946BC35094259B6F000E952180
:1012D0009C6F000E256EA00E266E400E276E9BC0E2
:1012E0001FF09CC020F073EC0FF01FC022F020C054
:1012F00023F021C024F0B5EC06F022C060F023C03A
:1013000061F024C062F0C00E0001636F7F0E646F55
:10131000440E656FA2EC07F060C096F061C097F0D4
:1013200062C098F00001A151A211D8A413D0000E00
:10133000176E200E186E400E196E96C01AF097C0E8
:101340001BF098C01CF091EC0BF0D8B002D08B844D
:1013500001D08B949BC02EF09CC02FF048EC0EF077
:1013600012001A50D8B405D0175018101910D8A46C
:101370000CD0000E176E000E186E000E196E1200C3
:101380001A2AD890193218321732000E17141C6E10
:10139000000E18141D6EFE0E19141E6E1C501D102A
:1013A0001E10D8B40CD0ECD71A2A010E1726000E46
:1013B0001822000E1922D890193218321732000E56
:1013C00017141C6E000E18141D6EFF0E19141E6EDD
:1013D0001C501D101E10D8B406D0E6D71A06D8909F
:1013E00017361836193618BE03D0020E1A60F6D713
:1013F0001AA0189ED8901A321A5019121B50D8A44D
:10140000198E17C017F018C018F019C019F0120083
:101410008998040E4718D8A404D08C500F0B3009BB
:1014200001D03F0E8C6EEFEC0FF0010E3AEC0DF098
:10143000040E4718D8A404D08C500F0B300901D0EB
:101440003F0E8C6EEFEC0FF0030E3AEC0DF0040E35
:101450004718D8A404D08C500F0B300901D03F0E90
:101460008C6EEFEC0FF0040E3AEC0DF0040E471802
:10147000D8A411D08C500F0B20098C6EEFEC0FF01C
:10148000040E3AEC0DF02F0EE0EC0DF0EFEC0FF047
:10149000040E3AEC0DF0DBEC0FF00F0EE0EC0DF06B
:1014A000EFEC0FF0040E3AEC0DF012001C6A1AAECD
:1014B00006D0196C1A1ED8B01A2A010E1C6E18AE6E
:1014C00006D0176C181ED8B0182A010E1C1A000E70
:1014D0001E6E000E1D6E19501A10D8B41CD0010ECD
:1014E0001B6E04D0D89019361A361B2A1AAEFAD7BA
:1014F000D8901D361E361950175C1A501858D8A0AF
:1015000005D01950175E1A50185A1D80D8901A32FB
:1015100019321B2EEDD71C50D8B404D01D6C1E1EE2
:10152000D8B01E2A1DC017F01EC018F0120033C01C
:1015300039F034C03AF039C001F03AC002F0000E80
:10154000046E0A0E036EABEC0CF001C037F002C063
:1015500038F03750395C016E38503A58026E000E40
:10156000046E0A0E036ED8EC0AF001C035F002C01A
:1015700036F055EC0BF000EC10F0E5EC0FF03E0E01
:10158000066E4CEC0FF0C00EC5EC0FF04C0E066E64
:101590004CEC0FF0000E0001A66F010EA56F000EBF
:1015A000406E000E3F6E000EA46F000EA36F12007F
:1015B000066A04AE06D0036C041ED8B0042A010EDD
:1015C000066E02AE06D0016C021ED8B0022A010ED1
:1015D000061A000E086E000E076E03500410D8B4F1
:1015E0001CD0010E056E04D0D89003360436052AAF
:1015F00004AEFAD7D890073608360350015C045081
:101600000258D8A005D00350015E0450025A07804A
:10161000D89004320332052EEDD70650D8B404D04A
:10162000076C081ED8B0082A07C001F008C002F0F5
:1016300012003D503E10D8A404D08D908D928D9410
:10164000120035503610D8A404D08D808D928D8430
:10165000120035043610D8A404D08D908D928D845C
:101660001200020E35183610D8A404D08D908D8249
:101670008D841200030E35183610D8A404D08D9036
:101680008D828D941200040E35183610D8A404D023
:101690008D808D828D941200050E35183610D8A4D9
:1016A00012008D808D828D8412003D503E10D8A492
:1016B00004D08D908D928D94120035503610D8A4A0
:1016C00004D08D808D928D84120035043610D8A4FC
:1016D00004D08D908D928D841200020E3518361034
:1016E000D8A404D08D908D828D841200030E3518FD
:1016F0003610D8A404D08D908D828D941200040EE3
:1017000035183610D8A404D08D808D828D941200A7
:10171000050E35183610D8A412008D808D828D8468
:10172000120019AE0FD0000E1D6E000E1E6E800E40
:101730001F6E17501D5C176E18501E58186E1950EA
:101740001F58196E1CAE0FD0000E1D6E000E1E6EBF
:10175000800E1F6E1A501D5C1A6E1B501E581B6E99
:101760001C501F581C6E000E171A000E181A800EFF
:10177000191A000E1A1A000E1B1A800E1C1A1A5083
:10178000175C1B5018581C501958D8B002D0D8906C
:101790001200D8801200500EF7EC0EF08988040E6B
:1017A0003AEC0DF01F0EE0EC0DF0EFEC0FF0150E23
:1017B000E0EC0DF0EFEC0FF01F0EE0EC0DF0EFECB5
:1017C0000FF01F0EE0EC0DF0EFEC0FF00E0EE0EC62
:1017D0000DF0EFEC0FF00A0EE0EC0DF0EFEC0FF077
:1017E0001B0EE0EC0DF0EFEC0FF0000EE0EC0DF056
:1017F000EFEC0FF08998C10EE0EC0DF0EFEC0FF07C
:10180000020E3AEC0DF01200480EF7EC0EF089884B
:10181000040E3AEC0DF01B0EE0EC0DF0EFEC0FF0C7
:10182000000EE0EC0DF0EFEC0FF01B0EE0EC0DF015
:10183000EFEC0FF01B0EE0EC0DF0EFEC0FF0000EF4
:10184000E0EC0DF0EFEC0FF0110EE0EC0DF0EFEC32
:101850000FF00E0EE0EC0DF0EFEC0FF0000EE0ECF0
:101860000DF0EFEC0FF08998C00EE0EC0DF0EFEC0E
:101870000FF0020E3AEC0DF012001C6A18AE06D002
:10188000176C181ED8B0182A010E1C6E1AAE04D0A0
:10189000196C1A1ED8B01A2A19501A10D8B418D0B8
:1018A000010E1B6E04D0D89019361A361B2A1AAEB8
:1018B000FAD71950175C1A501858D8A004D01950EC
:1018C000175E1A50185AD8901A3219321B2EF1D7B7
:1018D0001C50D8B404D0176C181ED8B0182A17C0E2
:1018E00017F018C018F012009EAA1200AECF24F014
:1018F00017D085EC0FF02DD03B503C10D8A429D048
:101900008B84000E0001A26F010EA16F22D03B500C
:101910003C10D8A41ED08B94F4D7E2EC0CF0F1D795
:101920002450410AD8B4F3D7040AD8B4E5D7150A2D
:10193000D8B4DFD7020AD8B4F0D7330AD8B4E7D77F
:10194000040AD8B4D9D7150AD8B4D3D7020AD8B460
:10195000E4D79E9A1200066A02AE06D0016C021EFF
:10196000D8B0022A010E066E04AE04D0036C041E29
:10197000D8B0042A03500410D8B418D0010E056E54
:1019800004D0D89003360436052A04AEFAD70350A3
:10199000015C04500258D8A004D00350015E0450EA
:1019A000025AD89004320332052EF1D70650D8B42B
:1019B00004D0016C021ED8B0022A01C001F002C09E
:1019C00002F0120033C031F034C032F0000E3A6E33
:1019D000000E396E000E386E000E376E000E366E39
:1019E000000E356E19EC0BF0FDEC0FF0DBEC0FF098
:1019F0007A0E1C6E24EC0FF0020E1F6E31502FEC8D
:101A000007F0C00EAFEC0FF0640E1C6E24EC0FF06C
:101A1000020E1F6E33502FEC07F0120033C031F06E
:101A200034C032F0000E3A6E000E396E000E386E81
:101A3000000E376E000E366E000E356E55EC0BF054
:101A400000EC10F0E5EC0FF07A0E066E4CEC0FF0A7
:101A5000020E096E315015EC08F0C00EC5EC0FF007
:101A6000640E066E4CEC0FF0020E096E335015EC4E
:101A700008F01200186E1BD0050E176EDE0EE82E51
:101A8000FED7172EFCD71200530EE82EFED700000B
:101A9000350EE82EFED700001200080EE82EFED705
:101AA00000001200030EE82EFED7000012001850AE
:101AB000010AD8B4E1D7030AD8B4E6D7010AD8B4EA
:101AC000ECD7070AD8A41200EDD7026E1BD0050E82
:101AD000016EDE0EE82EFED7012EFCD71200530E4B
:101AE000E82EFED70000350EE82EFED700001200CB
:101AF000080EE82EFED700001200030EE82EFED7D7
:101B0000000012000250010AD8B4E1D7030AD8B489
:101B1000E6D7010AD8B4ECD7070AD8A41200EDD74B
:101B2000000E1D6E000E1C6E19501A10D8B41CD079
:101B3000010E1B6E04D0D89019361A361B2A1AAE25
:101B4000FAD7D8901C361D361950175C1A50185801
:101B5000D8A005D01950175E1A50185A1C80D8907A
:101B60001A3219321B2EEDD71CC017F01DC018F009
:101B70001200066E41044210D8A412003F504010DB
:101B8000D8A40DD006C09DF000019E6B9D51300F72
:101B9000D0EC0FF0000E406E010E3F6E12003F04BD
:101BA0004010D8A4120006C09FF00001A06B9F5106
:101BB000300FD0EC0FF0000E406E020E3F6E1200A0
:101BC0001A6E040E4718D8A417D01AC019F0F00ED8
:101BD00019168C500F0B19108C6EEFEC0FF0010ED4
:101BE0003AEC0DF01AC019F0193AF00E19168C5093
:101BF0000F0B19108C6E1200080E4718D8A4120093
:101C00001AC08CFF1200046E040E4718D8A417D017
:101C100004C003F0F00E03168C500F0B03108C6EF3
:101C2000F6EC0FF0010E65EC0DF004C003F0033A82
:101C3000F00E03168C500F0B03108C6E1200080E62
:101C40004718D8A4120004C08CFF1200060EF66ECE
:101C5000200EF76E000EF86E0900F5CF45F0090072
:101C6000F5CF46F00900F5CF47F000EE9BF00C0EE3
:101C7000EE6AE806FDE100EE31F0140EEE6AE806C9
:101C8000FDE148904892000EF86E000142EF04F02A
:101C9000600E236E0B0E246E2EC025F02FC026F092
:101CA0002EEC06F0000E0001936F000E926F0AD02A
:101CB000ACA2FED79251600FD96EDA6ADF50AD6EDA
:101CC000924B932B9251600FD96EDA6ADF50D8B4E1
:101CD0001200EED720502110D8B418D0010E226E79
:101CE00004D0D89020362136222A21AEFAD72050AF
:101CF0001E5C21501F58D8A004D020501E5E2150D9
:101D00001F5AD89021322032222EF1D71EC01EF049
:101D10001FC01FF012001C6E1E6A1B50D8B415D0D5
:101D2000010E1D6E03D0D8901B361D2A1BAEFBD7AB
:101D3000D8901E361B501C5CD8A003D01B501C5ED4
:101D40001E80D8901B321D2EF3D71E501200066E37
:101D5000086A0550D8B415D0010E076E03D0D8908C
:101D60000536072A05AEFBD7D89008360550065C25
:101D7000D8A003D00550065E0880D8900532072E03
:101D8000F3D70850120041044210D8A41200E5EC29
:101D90000FF01D0E066E4CEC0FF0C00EC5EC0FF0F0
:101DA000000E426E010E416E000E346E000E336E58
:101DB000000E406E000E3F6E120045C001F046C09E
:101DC00002F0FF0E046E036860EC0FF001C045F0F6
:101DD00002C046F045044610D8A402D089861200FD
:101DE000452804E14628D8A41200899612001B6EEB
:101DF00089981B04D8A403D0DBEC0FF012001B5011
:101E0000FE0B020AD8A403D005EC10F012001B5000
:101E1000E0EC0DF0EFEC0FF0040E3AEC0DF01200D8
:101E2000186E080E196E1A6AD89018341A341A6E81
:101E3000D890183617501A5CD8A002D017501A5EE6
:101E4000192EF2D71A50120009D01CC0F6FF080E46
:101E5000F76E0800F550BAEC0FF01C2A1CC0F6FF14
:101E6000080EF76E0800F5500009D8B41200EDD73F
:101E7000026E080E036E046AD89002340434046EB5
:101E8000D89002360150045CD8A002D00150045E04
:101E9000032EF2D70450120009D006C0F6FF080E38
:101EA000F76E0800F550D0EC0FF0062A06C0F6FFDA
:101EB000080EF76E0800F5500009D8B41200EDD7EF
:101EC00001500302F3CF05F0F4CF06F001500402F5
:101ED000F350062602500302F350062605C001F017
:101EE00006C002F012001FC017F020C018F0196AD7
:101EF0008E0E1A6E000E1B6EB1EC09F017C01FF0AB
:101F000018C020F019C021F012008D808D928D94A0
:101F10008B94000E3C6E010E3B6EDBEC0FF06F0EEF
:101F20001C6E24EC0FF012008D808D928D948B949A
:101F3000000E3C6E010E3B6EE5EC0FF06F0E066E70
:101F40004CEC0FF01200176E040E1718D8B404D022
:101F5000080E1718D8A4120017C047F012001B6E05
:101F600089981B50E0EC0DF0EFEC0FF0040E3AEC0A
:101F70000DF012001B6E89881B50E0EC0DF0EFECA9
:101F80000FF0040E3AEC0DF01200056E8998055022
:101F900003EC0EF0F6EC0FF0040E65EC0DF0120001
:101FA000056E8988055003EC0EF0F6EC0FF0040E78
:101FB00065EC0DF012008998010EE0EC0DF0EFECED
:101FC0000FF0020E3AEC0DF012008998010E03ECAE
:101FD0000EF0F6EC0FF0020E65EC0DF01200898A9F
:101FE000030EE82EFED70000899A1200898A030E9C
:101FF000E82EFED70000899A120037C08CFF12002D
:0920000037C08CFF1200FFFF083D
:02200A001200C2
:020000040020DA
:08000000FFFFFFFFFFFFFFFF00
:020000040030CA
:0E00000000091F1EFF8181FF0FC00FE00F409F
:00000001FF
