:0400000007EF00F016
:1000080048829CED09F0D3EF14F0840E936FE8D387
:10001800250EA519D8B404D0A55103EC17F0E0D3E8
:10002800000E956F000E946F82C0F6FF83C0F7FF35
:100038000800F5502E0AD8A435D0958D824B832B15
:10004800000EA46F000EA36F22D0A3C018F0A4C0A6
:1000580019F0000E1B6E0A0E1A6E63EC16F018C02B
:10006800A3F019C0A4F082C0F6FF83C0F7FF080010
:10007800F5CF87F0D00E00018725886F896BFF0EBA
:1000880089238851A3278951A423824B832B82C0BB
:10009800F6FF83C0F7FF0800F5509BEC16F0D8A0D8
:1000A80031D0D3D7000EA46F000EA36F95892AD044
:1000B80095853FD0A351A411D8B414D0A4BF05D0BE
:1000C800A45110E1A305D8B00DD0A3C091F0A4C0ED
:1000D80092F008D09051D96EDA6ADF5003EC17F02D
:1000E8000001902B9107D8A092079129F3E192295A
:1000F800D8B476D3EFD7A50E906F000E926F010E8D
:10010800916FD8D782C0F6FF83C0F7FF0001824BFA
:10011800832B0800F5CFA5F0A551000AD8B412002A
:10012800640AD8B406D0020AD8B4C2D70F0AD8A431
:10013800E2D7070E9515D8B4A1D295A904D0000E20
:10014800A46F060EA36F9351D96EDA6ADECFA0F0C2
:10015800DECFA1F0DDCFA2F0030E9327A2AF10D01F
:10016800A0C018F0A1C019F0A2C01AF089EC16F0CE
:1001780018C0A0F019C0A1F01AC0A2F0030E941381
:10018800000E976F000E966FA051A111A211D8B45E
:1001980086D0820E876FFF0E886FA0C089F0A1C03D
:1001A8008AF0A2C08BF0A3C08CF0100E05D0D890B6
:1001B8008C338B338A338933E82EF9D789518725D5
:1001C800966F000E8821976F9607D8A0970796C05C
:1001D80018F097C019F0000E1B6E030E1A6E63EC30
:1001E80016F018C096F019C097F096C01EF097C088
:1001F8001FF0000E216E0A0E206EA6EC10F01EC035
:1002080096F01FC097F0000197AF03D09607D8A0CB
:1002180097079651000802EC04F066C098F067C092
:1002280099F068C09AF098C026F099C027F09AC053
:1002380028F0A0C029F0A1C02AF0A2C02BF0ABEC96
:100248000AF026C098F027C099F028C09AF098C004
:1002580018F099C019F09AC01AF0000E1B6E800EA3
:100268001C6E3F0E1D6EE3EC11F0D8B005D00001F6
:100278009607D8A0970713D098C018F099C019F01E
:100288009AC01AF0000E1B6E200E1C6E410E1D6ED9
:10029800E3EC11F0D8A003D00001964B972B000196
:1002A800A4BF06D0A4511BE10D0EA35DD8B017D092
:1002B800A0C070F0A1C071F0A2C072F0A351BBEC55
:1002C80005F066C073F067C074F068C075F0B0ECF4
:1002D80006F070C0A0F071C0A1F072C0A2F097BF84
:1002E80006D097511EE10A0E965DD8B01AD0A051DB
:1002F800A111A211D8B454D0A0C06DF0A1C06EF065
:10030800A2C06FF045EC0EF06D516E116F117011B7
:10031800D8B497BF45D0975104E1020E965DD8A096
:100328003FD098C018F099C019F09AC01AF0700E12
:100338001B6E890E1C6E400E1D6EE3EC11F0D8B0DA
:1003480003D00001F70E02D00001F80E9627FF0E29
:100358009723965102EC04F066C098F067C099F0B4
:1003680068C09AF0A0C018F0A1C019F0A2C01AF095
:1003780098C01BF099C01CF09AC01DF02CEC0AF034
:1003880018C09CF019C09DF01AC09EF01BC09FF0C9
:10039800000E0001A06F000EA16F000EA26F32D0F8
:1003A800A0C06DF0A1C06EF0A2C06FF045EC0EF0D9
:1003B8006DC09CF06EC09DF06FC09EF070C09FF045
:1003C800A0C07CF0A1C07DF0A2C07EF09CC020F04F
:1003D8009DC021F09EC022F09FC023F090EC13F046
:1003E80020C07FF021C080F022C081F015EC15F00C
:1003F8007CC0A0F07DC0A1F07EC0A2F0000E976F77
:10040800000E966F010EA56F0A0EA519D8B418D064
:10041800A551040D2D0EF324F66E7F0EF420F76E11
:100428000900F5509C5D0900F5509D590900F550EB
:100438009E590900F5509F59D8A002D0A52BE4D7A2
:1004480094C087F0030E8717D8B448D02D0E03EC5C
:1004580017F044D09CC018F09DC019F09EC01AF047
:100468009FC01BF0A551040D2D0EF324F66E7F0ED0
:10047800F420F76E0900F5CF1CF00900F5CF1DF048
:100488000900F5CF1EF00A00F5CF1FF0E7EC10F0D9
:1004980018C098F019C099F01AC09AF01BC09BF0C8
:1004A80098C025F099C026F09AC027F09BC028F084
:1004B8000A0E296E000E2A6E000E2B6E000E2C6E90
:1004C800FDEC12F025C098F026C099F027C09AF0EC
:1004D80028C09BF09851300F03EC17F00001A507D6
:1004E800A529D8B408D0B6D7300E03EC17F0000110
:1004F8009607D8A0970797BF05D09751F5E19605BD
:10050800D8B0F2D7A4BF09D0A45104E1090EA35D65
:10051800D8A003D0080EA56F02D0A3C0A5F0A5519E
:10052800A35F000EA45BA551D8B403D02E0E03EC34
:1005380017F00001A55102EC04F066C08DF067C009
:100548008EF068C08FF0A0C029F0A1C02AF0A2C028
:100558002BF08DC026F08EC027F08FC028F0ABECB2
:100568000AF026C06DF027C06EF028C06FF045EC89
:100578000EF06DC09CF06EC09DF06FC09EF070C014
:100588009FF06BD09CC018F09DC019F09EC01AF067
:100598009FC01BF0A551040D2D0EF324F66E7F0E9F
:1005A800F420F76E0900F5CF1CF00900F5CF1DF017
:1005B8000900F5CF1EF00A00F5CF1FF0E7EC10F0A8
:1005C80018C098F019C099F01AC09AF01BC09BF097
:1005D80098C025F099C026F09AC027F09BC028F053
:1005E8000A0E296E000E2A6E000E2B6E000E2C6E5F
:1005F800FDEC12F025C098F026C099F027C09AF0BB
:1006080028C09BF09851300F03EC17F09CC025F0E0
:100618009DC026F09EC027F09FC028F00001A5517C
:10062800040D2D0EF324F66E7F0EF420F76E0900EC
:10063800F5CF29F00900F5CF2AF00900F5CF2BF006
:100648000A00F5CF2CF0FDEC12F025C09CF026C076
:100658009DF027C09EF028C09FF0A507A529D8B413
:1006680008D090D7300E03EC17F00001A307D8A0EC
:10067800A407A351A411D8B4B3D0F4D79351D96E19
:10068800DA6ADECF9CF0DDCF9DF0000E9DBFFF0E35
:100698009E6F9F6F020E93279FAF0AD0030E94138D
:1006A8009F1F9E1F9D1F9C6D000E9D239E239F23B1
:1006B800A351A411D8A408D09C519D119E119F113B
:1006C800D8A402D0A34BA42B010EA56F0A0EA5191E
:1006D800D8B418D0A551040D2D0EF324F66E7F0E54
:1006E800F420F76E0900F5509C5D0900F5509D59FE
:1006F8000900F5509E590900F5509F59D8A002D01D
:10070800A52BE4D7A551876F886BA351875D8851C6
:10071800800A896FA451800A8959D8A010D0A551A0
:10072800876F886B8751A35DA451800A896F8851B0
:10073800800A8959D8B003D0A5C0A3F0A46B94C08F
:1007480087F0030E8717D8B442D02D0E03EC17F0AC
:100758003ED0A3C087F0A4C088F0D89087378837E8
:10076800D890873788372D0E8725F66E7F0E88211B
:10077800F76E0900F5CF1CF00900F5CF1DF0090050
:10078800F5CF1EF00A00F5CF1FF09CC018F09DC0F1
:1007980019F09EC01AF09FC01BF0E7EC10F018C0CB
:1007A80025F019C026F01AC027F01BC028F00A0E41
:1007B800296E000E2A6E000E2B6E000E2C6EFDECBC
:1007C80012F02550300FA56FA55103EC17F000016A
:1007D800A307D8A0A407A329BCE1A429D8A4B9D702
:1007E80082C0F6FF83C0F7FF0001824B832B08000D
:1007F800F5CFA5F0A551D8B412000AD46C6F00014A
:100808006CAFDBD06C6D6C51800A120FD8A07AD017
:10081800000E216E0A0E206E000E1B6E640E1A6EFC
:100828006C51186E196A18BE19068FEC12F018C0B0
:100838001EF019C01FF0A6EC10F0090E1E261E505F
:10084800030D060EF324F66E7F0EF420F76E0900F2
:10085800F5CF29F00900F5CF2AF00A00F5CF2BF0E3
:10086800000E216E640E206E00016C511E6E1F6A10
:100878001EBE1F06A6EC10F0120E1E261E50030DFB
:10088800060EF324F66E7F0EF420F76E0900F5CFFE
:1008980026F00900F5CF27F00A00F5CF28F0ABECD9
:1008A8000AF026C069F027C06AF028C06BF069C05A
:1008B80026F06AC027F06BC028F0000E1B6E0A0EE7
:1008C8001A6E6C51186E196A18BE19068FEC12F060
:1008D8001850030D060EF324F66E7F0EF420F76E03
:1008E8000900F5CF29F00900F5CF2AF00A00F5CF65
:1008F8002BF0ABEC0AF026C066F027C067F028C0E2
:1009080068F012006C51800A750FD8A044D0000E10
:10091800216E0A0E206E6C511E6E1F6A1EBE1F06C7
:10092800A6EC10F0090E1E261E50030D060EF32429
:10093800F66E7F0EF420F76E0900F5CF26F0090059
:10094800F5CF27F00A00F5CF28F0000E1B6E0A0E2F
:100958001A6E00016C51186E196A18BE19068FECD0
:1009680012F01850030D060EF324F66E7F0EF420D5
:10097800F76E0900F5CF29F00900F5CF2AF00A0033
:10098800F5CF2BF0ABEC0AF026C066F027C067F075
:1009980028C068F012006C51030D060EF324F66EA1
:1009A8007F0EF420F76E0900F5CF66F00900F5CF49
:1009B80067F00A00F5CF68F012006C51800A120F38
:1009C800D8A07AD0000E216E0A0E206E000E1B6E83
:1009D800640E1A6E6C51186E196A18BE19068FECDF
:1009E80012F018C01EF019C01FF0A6EC10F0090E86
:1009F8001E261E50030DDF0EF324F66E7E0EF42025
:100A0800F76E0900F5CF29F00900F5CF2AF00A00A2
:100A1800F5CF2BF0000E216E640E206E00016C5194
:100A28001E6E1F6A1EBE1F06A6EC10F0120E1E26B2
:100A38001E50030DDF0EF324F66E7E0EF420F76EC3
:100A48000900F5CF26F00900F5CF27F00A00F5CF09
:100A580028F0ABEC0AF026C069F027C06AF028C07D
:100A68006BF069C026F06AC027F06BC028F0000E52
:100A78001B6E0A0E1A6E6C51186E196A18BE19068A
:100A88008FEC12F01850030DDF0EF324F66E7E0E75
:100A9800F420F76E0900F5CF29F00900F5CF2AF008
:100AA8000A00F5CF2BF0ABEC0AF026C066F027C0A1
:100AB80067F028C068F012006C51800A750FD8A042
:100AC80044D0000E216E0A0E206E6C511E6E1F6AF5
:100AD8001EBE1F06A6EC10F0090E1E261E50030DA2
:100AE800DF0EF324F66E7E0EF420F76E0900F5CFC4
:100AF80026F00900F5CF27F00A00F5CF28F0000E00
:100B08001B6E0A0E1A6E00016C51186E196A18BE17
:100B180019068FEC12F01850030DDF0EF324F66E51
:100B28007E0EF420F76E0900F5CF29F00900F5CF05
:100B38002AF00A00F5CF2BF0ABEC0AF026C066F0DD
:100B480027C067F028C068F012006C51030DDF0E53
:100B5800F324F66E7E0EF420F76E0900F5CF66F0EA
:100B68000900F5CF67F00A00F5CF68F012006F6F43
:100B78006D0E00016F657DD00A0E1C6E640E186E36
:100B88006F513BEC16F06FEC15F02F6E2F50030DE4
:100B98001B0EF326000EF422060EF324F66E7F0ECB
:100BA800F420F76E0900F5CF29F00900F5CF2AF0F7
:100BB8000A00F5CF2BF0640E1C6E00016F516FEC2C
:100BC80015F0306E3050030D360EF326000EF42269
:100BD800060EF324F66E7F0EF420F76E0900F5CFAB
:100BE80026F00900F5CF27F00A00F5CF28F0ABEC86
:100BF8000AF026C06CF027C06DF028C06EF00A0E0F
:100C0800186E6F513BEC16F02F6E2F50030D060E29
:100C1800F324F66E7F0EF420F76E0900F5CF29F065
:100C28000900F5CF2AF00A00F5CF2BF06CC026F0AA
:100C38006DC027F06EC028F0ABEC0AF026C069F052
:100C480027C06AF028C06BF069C026F06AC027F098
:100C58006BC028F0000E296E000E2A6E3F0E2B6E18
:100C6800ABEC0AF026C066F027C067F028C068F031
:100C780012000A0E6F6550D00A0E186E6F513BECC9
:100C880016F02F6E2F50030D060EF324F66E7F0E0E
:100C9800F420F76E0900F5CF29F00900F5CF2AF006
:100CA8000A00F5CF2BF00A0E1C6E00016F516FEC95
:100CB80015F0306E3050030D1B0EF326000EF42293
:100CC800060EF324F66E7F0EF420F76E0900F5CFBA
:100CD80026F00900F5CF27F00A00F5CF28F0ABEC95
:100CE8000AF026C06CF027C06DF028C06EF06CC00A
:100CF80026F06DC027F06EC028F0000E296E000E99
:100D08002A6E3F0E2B6EABEC0AF026C066F027C0A9
:100D180067F028C068F012006F51030D060EF32427
:100D2800F66E7F0EF420F76E0900F5CF26F0090065
:100D3800F5CF27F00A00F5CF28F0000E296E000E37
:100D48002A6E3F0E2B6EABEC0AF026C066F027C069
:100D580067F028C068F0120072C076F0776B786B85
:100D68007135763701E3778176517B6F75C076F000
:100D7800776B786B7435763701E3778176517A6FC4
:100D88007B51D8B40AD07A517B5DD8B00DD07B5155
:100D98007A5D766F180E766507D073C070F074C0F0
:100DA80071F075C072F012007A51D8B40AD07B5134
:100DB8007A5DD8B00DD07A517B5D766F180E766566
:100DC80007D070C070F071C071F072C072F012007C
:100DD800060E796F72BF798F75BF798D718FFF0E8F
:100DE8007017FF0E7117000E7217748FFF0E7317AE
:100DF800FF0E7417000E75177A517B5DD8B01BD0A3
:100E0800D8907337743775377A077B517A19D8B405
:100E18000DD0790779C076F0070E7617D8B406D0CA
:100E2800EFD7D8907233713370337B2B7A517B199B
:100E3800D8B41FD0F6D77B517A5DD8B01AD0D890E5
:100E48007037713772377B077B517A19D8B40DD058
:100E5800790779C076F0070E7617D8B406D0EFD7A1
:100E6800D8907533743373337A2B7A517B19D8A49D
:100E7800F7D779AF0CD0FF0E701BFF0E711BFF0E5A
:100E8800721B010E7027000E7123000E722379ADBC
:100E98000CD0FF0E731BFF0E741BFF0E751B010E8B
:100EA8007327000E7423000E7523796B7051732716
:100EB800715174237251752375AF0ED0FF0E731BD9
:100EC800FF0E741BFF0E751B010E7327000E742393
:100ED800000E7523010E796F73C018F074C019F0F5
:100EE80075C01AF07BC01BF079C01CF006EC0FF03F
:100EF80018C070F019C071F01AC072F01200400EDC
:100F0800D36E530EE82EFED70000956A926A96902B
:100F1800969296948D908D928D948C6A92809494EA
:100F2800F90ECB6ECA6A0C0EBD6ECC6ACA840E0E60
:100F3800C16EA90EC06E010EC26E949095908B90F2
:100F4800240EAC6E900EAB6E080EB86E190EAF6E16
:100F5800900ECD6EF00E936EF19E210E0001AE6FD5
:100F6800760EE82EFED7AE2FFCD70000F290F28660
:100F7800F28E020E0001AF6F450EAE6FA90EE82E7D
:100F8800FED7AE2FFCD7AF2FFAD700D0040EA9ECAE
:100F980016F058EC10F03B503C10D8A407EF00F0C6
:100FA800D40E1D6E7F0E1E6E11EC16F056EC12F06C
:100FB800010EC0EC16F01DEC12F0020EC0EC16F09B
:100FC800070E0001AF6F580EAE6F590EE82EFED710
:100FD800AE2FFCD7AF2FFAD700D0E1EC16F0990E60
:100FE8001D6E7F0E1E6E11EC16F0C00EB5EC16F0DD
:100FF800000E406E010E3F6E8982F9EC0CF0F7ECA2
:1010080008F0B4EC0FF0426E090E426003D0050EF2
:10101800426005D0000E0001BB6F000EBA6F42504F
:1010280069EC0DF0520E0001AE6F290EE82EFED7C6
:10103800AE2FFCD700D0B4EC0FF0426E425069ECF2
:101048000DF0520E0001AE6F290EE82EFED7AE2F1E
:10105800FCD700D08992B4EC0FF0426E425069EC94
:101068000DF0520E0001AE6F290EE82EFED7AE2FFE
:10107800FCD700D0B4EC0FF0426E520E0001AE6FF8
:10108800290EE82EFED7AE2FFCD700D0425069ECCF
:101098000DF0B2D73F044010D8A470D00001C05161
:1010A800C111D8A46BD00A0EB603F3CF0FF0F4CF5A
:1010B80010F0B703F3501026B8510F24336EB9510E
:1010C8001020346E34BE06D034503EE13C0E335C02
:1010D800D8B03AD034BE38D0345003E13304D8A065
:1010E80033D0000EBF6F010EBE6F000EBD6F000E35
:1010F800BC6F06EC10F0426E33C031F034C032F0F1
:10110800000E406E000E3F6EEBEC16F0F60E066E0B
:101118007F0E076E26EC16F0020E096E315086EC33
:101128000CF0C00ECBEC16F0E00E066E7F0E076ECC
:1011380026EC16F0020E096E335086EC0CF0000E09
:101148003E6E000E3D6E4BD0EBEC16F0AB0E066E0D
:101158007F0E076E26EC16F0000E3E6E000E3D6EFA
:10116800040E106ECF0E0F6E020EE82EFED70F2E55
:10117800FCD7102EFAD7A7EC15F031D00001C00526
:10118800C111D8A42CD0EBEC16F0990E066E7F0E88
:10119800076E26EC16F0C00ECBEC16F0000E406E73
:1011A800010E3F6E000E3E6E000E3D6E000E0001F9
:1011B800C16F000EC06F33C031F034C032F0000E82
:1011C8003A6E000E396E000E386E000E376E000E45
:1011D800366E000E356EA6EC11F00CEC17F042508E
:1011E800D7EC0DF012009EAA1200AECF25F06DD0FC
:1011F80035EC15F060D0000E0001BD6F010EBC6F1C
:10120800000EB06F000EB16F000E0FD03B503C10B7
:10121800D8A48CD0F90EBE6E000E0001BD6F010E71
:10122800BC6F000EB06F800E1FD0B26F7FD03B50E6
:101238003C10D8A47BD0C80EBE6E000E0001BD6F56
:10124800010EBC6FCD0EB06F4C0E0ED03B503C1053
:10125800D8A46CD0960EBE6E000E0001BD6F010EB4
:10126800BC6F9A0EB06F190EB16F3F0EDED73B50B0
:101278003C10D8A45BD0640EBE6E000E0001BD6F9A
:10128800010EBC6FCD0EB06FCC0E0ED03B503C1093
:10129800D8A44CD0320EBE6E000E0001BD6F010EF8
:1012A800BC6FCD0EB06F4C0EB16F3E0EBED73B502B
:1012B8003C10D8A43BD0BE6A9ED730EC13F0000E89
:1012C8000001BD6F010EBC6F31D02550420AD8B461
:1012D800AED7010AD8B4CBD70D0AD8B497D71E0A0F
:1012E800D8B486D7020AD8B4E8D7040AD8B4AED797
:1012F8000E0AD8B4CBD7020AD8B4D9D7380AD8B48A
:1013080096D7010AD8B4B3D70D0AD8B47FD71E0A26
:10131800D8B46ED7020AD8B4D0D7040AD8B496D7AE
:101328000E0AD8B4B3D7020AD8B4C1D79E9A12000D
:101338000600F3CF12F0F4CF13F0F6CF14F0F7CF86
:1013480015F0F8CF16F0F5CF17F03B503C10D8B495
:10135800F2A070D0F00E8118D8B461D0446AFE0EA5
:101368008A6E81B804D0010E66EC14F058D081BAA8
:1013780004D0020E66EC14F052D081BC04D0030EE7
:1013880066EC14F04CD081BE03D04EEC08F047D088
:10139800FD0E8A6E81B804D0040E66EC14F03FD0BE
:1013A80081BA04D0050E66EC14F039D081BC04D0A3
:1013B800060E66EC14F033D081BE03D052EC15F063
:1013C8002ED0FB0E8A6E81B804D0070E66EC14F09E
:1013D80026D081BA04D0080E66EC14F020D081BC67
:1013E80004D0090E66EC14F01AD081BE03D0A7EC25
:1013F80015F015D0F70E8A6E81B803D060EC13F0A3
:101408000ED081BA04D0000E66EC14F008D081BC6E
:1014180003D05DEC0FF003D081AEDEEC15F0F00EDA
:101428008A6E110E116E3A0EE82EFED7112EFCD7D9
:1014380000D0F29017C0F5FF16C0F8FF15C0F7FFEF
:1014480014C0F6FF13C0F4FF12C0F3FF4892110056
:101458001AC01EF01F6A206A19341E3601E31F8065
:101468001E50266E2650D8A409D0000E186E000E05
:10147800196E000E1A6E000E1B6E12001DC01EF0B3
:101488001F6A206A1C341E3601E31F801E50256E19
:101498002550D8B4EAD7198EFF0E1816FF0E191664
:1014A800000E1A161C8EFF0E1B16FF0E1C16000EC1
:1014B8001D16000E216E000E226E000E236E000E09
:1014C800246E7F0E265E2550980F265E180E256E18
:1014D800D89021362236233624361B50185C1C50EF
:1014E80019581D501A58D8A007D01B50185E1C5008
:1014F800195A1D501A5A2180D890183619361A369A
:10150800252EE6D726AE0DD02650800A970FD8A0F4
:10151800ACD7D8902432233222322132263EF9D752
:101528000DD0170E266407D0A0D7D89021362236C2
:101538002336243626062650D8A4F7D721C018F01B
:1015480022C019F023C01AF024C01BF0120028C0D2
:101558002CF02D6A2E6A27342C3601E32D802C506E
:101568000001606F6051D8A407D0000E266E000EEF
:10157800276E000E286E12002BC02CF02D6A2E6AE2
:101588002A342C3601E32D802C50656F6551D8A480
:1015980007D0000E266E000E276E000E286E120071
:1015A80065517B0F602728C065F02B50651B800EA6
:1015B8006517278E2A8EFF0E2916FF0E2A16000E93
:1015C8002B16000E616F000E626F000E636F070E20
:1015D800646F26A006D0295061272A5062232B5019
:1015E8006323D890283227322632D89029362A36D3
:1015F8002B36642FEED7090E646F26A006D029502B
:1016080061272A5062232B506323D890283227322F
:101618002632D890633362336133642FEED761C0CA
:1016280018F062C019F063C01AF060C01BF065C002
:101638001CF006EC0FF018C026F019C027F01AC0ED
:1016480028F012001A341B34236E2350D8A409D072
:10165800000E186E000E196E000E1A6E000E1B6E2C
:1016680012001D341E34226E2250D8B4F1D71A8EBF
:10167800FF0E1816FF0E1916FF0E1A16000E1B166F
:101688001D8EFF0E1B16FF0E1C16FF0E1D16000EDC
:101698001E16000E1E6E000E1F6E000E206E000E2F
:1016A800216E7F0E235E2250A00F235E200E226E35
:1016B800D8901E361F36203621361B50185C1C5019
:1016C80019581D501A581E501B58D8A009D01B5025
:1016D800185E1C50195A1D501A5A1E501B5A1E804B
:1016E800D890183619361A361B36222EE1D723AE73
:1016F8000DD02350800A9F0FD8A0AAD7D8902132A6
:1017080020321F321E32233EF9D70DD01F0E23641C
:1017180007D09ED7D8901E361F362036213623068E
:101728002350D8A4F7D71EC018F01FC019F020C046
:101738001AF021C01BF01200246E898865D00A0EA9
:10174800186E24503BEC16F0236E2350300F8DECAE
:1017580014F0F5EC16F0040EBEEC13F012000A0EAD
:101768001C6E640E186E24503BEC16F06FEC15F0EE
:10177800226E0A0E186E24503BEC16F0236E22508F
:10178800300F8DEC14F0F5EC16F0040EBEEC13F0EF
:101798002350300F8DEC14F0F5EC16F0040EBEEC6F
:1017A80013F01200640E1C6E24506FEC15F0216EBD
:1017B8000A0E1C6E640E186E24503BEC16F06FEC8B
:1017C80015F0226E0A0E186E24503BEC16F0236EAC
:1017D8002150300F8DEC14F0F5EC16F0040EBEEC31
:1017E80013F02250300F8DEC14F0F5EC16F0040EC7
:1017F800BEEC13F02350300F8DEC14F0F5EC16F01E
:10180800040EBEEC13F012002050010AD8B497D78A
:10181800030AD8B4A4D7010AD8A41200C3D722C097
:1018280026F0276A286A2134263601E327802650C5
:101838002D6E2D50D8A407D0000E206E000E216EFC
:10184800000E226E120025C026F0276A286A24346A
:10185800263601E3278026502E6E2E50D8A407D0B6
:10186800000E206E000E216E000E226E1200000E79
:101878002A6E000E2B6E000E2C6E2E50890F2D5ED8
:1018880022C02EF025502E1A800E2E16218EFF0E05
:101898002016FF0E2116000E2216248EFF0E231688
:1018A800FF0E2416000E2516180E296ED8902A361B
:1018B8002B362C362350205C245021582550225892
:1018C800D8A007D02350205E2450215A2550225AF0
:1018D8002A80D890203621362236292EE7D72AC0EA
:1018E80018F02BC019F02CC01AF02DC01BF02EC018
:1018F8001CF006EC0FF018C020F019C021F01AC037
:1019080022F012000D6E898865D00A0E016E0D5006
:101918004FEC16F00C6E0C50300FB0EC14F0FCECE1
:1019280016F0040EE9EC13F012000A0E056E640EB0
:10193800016E0D504FEC16F08BEC15F00B6E0A0E85
:10194800016E0D504FEC16F00C6E0B50300FB0ECD2
:1019580014F0FCEC16F0040EE9EC13F00C50300F08
:10196800B0EC14F0FCEC16F0040EE9EC13F01200E5
:10197800640E056E0D508BEC15F00A6E0A0E056E9E
:10198800640E016E0D504FEC16F08BEC15F00B6EDB
:101998000A0E016E0D504FEC16F00C6E0A50300F07
:1019A800B0EC14F0FCEC16F0040EE9EC13F00B505C
:1019B800300FB0EC14F0FCEC16F0040EE9EC13F068
:1019C8000C50300FB0EC14F0FCEC16F0040EE9ECFF
:1019D80013F012000950010AD8B497D7030AD8B4F3
:1019E800A4D7010AD8A41200C3D73B503C10D8A4EE
:1019F8001200C282C2B2FED7C4500001AA6FA96BFE
:101A0800C350A925206E000EAA21216EC3EC15F043
:101A180020C0B3F021C0B4F022C0B5F0BC51BD1154
:101A2800D8A436D0B3C020F0B4C021F0B5C022F09D
:101A3800C00E236E7F0E246E440E256E13EC0CF040
:101A480020C0B0F021C0B1F022C0B2F0800EB119B0
:101A580007E13F0EB219B011D8A402D0F90E17D081
:101A6800000E296E7A0E2A6E430E2B6EB0C026F039
:101A7800B1C027F0B2C028F0ABEC0AF026C06DF078
:101A880027C06EF028C06FF045EC0EF06D51BE6EA9
:101A9800B0C026F0B1C027F0B2C028F0000E296E01
:101AA800C80E2A6E420E2B6EABEC0AF026C0ABF0C5
:101AB80027C0ACF028C0ADF0ABC0A6F0ACC0A7F012
:101AC800ADC0A8F0F5EC14F01200286E0001BE05B8
:101AD800BF11D8A41200070E286012002850D8B4ED
:101AE8001200BA51BB11D8A41200000EC36F010E28
:101AF800C26F000EBB6F010EBA6F3B503C10D8A4EA
:101B08001200394A3A2A3106D8A0320639C018F0EC
:101B18003AC019F0000E1B6E0A0E1A6E8FEC12F006
:101B280018C037F019C038F03750395C1E6E38507D
:101B38003A581F6E000E216E0A0E206EA6EC10F0A9
:101B48001EC035F01FC036F069EC11F009EC17F033
:101B5800E1EC16F0F60E1D6E7F0E1E6E11EC16F0FF
:101B6800020E206E3150A0EC0BF0C00EB5EC16F052
:101B7800E00E1D6E7F0E1E6E11EC16F0020E206E2A
:101B88003350A0EC0BF0335039180CE134503A18AC
:101B9800D8A41200000E0001BF6F000EBE6FAFEC9C
:101BA8000EF0120012000E6E0001BE05BF11D8A47F
:101BB8001200070E0E6012000E50D8B41200BA516F
:101BC800BB11D8A41200000EC36F010EC26F000E25
:101BD800BB6F010EBA6F3B503C10D8A41200394AB3
:101BE8003A2A3106D8A0320639C001F03AC002F0CC
:101BF800000E046E0A0E036EC6EC12F001C037F038
:101C080002C038F03750395C016E38503A58026ECD
:101C1800000E046E0A0E036E28EC11F001C035F0B8
:101C280002C036F0A6EC11F00CEC17F0EBEC16F055
:101C3800F60E066E7F0E076E26EC16F0020E096E83
:101C4800315086EC0CF0C00ECBEC16F0E00E066EB0
:101C58007F0E076E26EC16F0020E096E335086ECE6
:101C68000CF0335039180CE134503A18D8A412004B
:101C7800000E0001BF6F000EBE6F5DEC0FF012008A
:101C880012006FC071F0726B736B6E35713701E3C0
:101C9800728171517B6F7B51D8A409D0000E6D6F92
:101CA800000E6E6F000E6F6F000E706F1200170E31
:101CB800716F6DC072F06EC073F06FC074F07129EF
:101CC800756F04D0D890743373337233752FFAD785
:101CD80000017251766F6E8FFF0E6D17FF0E6E1733
:101CE800000E6F176D51776F6E51786F6F51796F66
:101CF8007A6B8E0E7B5F7BAF0DD07B51800A8F0F86
:101D0800D8A0CCD7D8907A337933783377337B3FE0
:101D1800F9D70DD0170E7B6507D0C0D7D890773785
:101D2800783779377A377B077B51D8A4F7D776513C
:101D3800D8B408D07A1F791F781F776D000E7823E2
:101D480079237A2377C06DF078C06EF079C06FF090
:101D58007AC070F0120033C039F034C03AF039C09C
:101D680018F03AC019F0000E1B6E0A0E1A6E8FECAE
:101D780012F018C037F019C038F03750395C1E6EB1
:101D880038503A581F6E000E216E0A0E206EA6ECCF
:101D980010F01EC035F01FC036F069EC11F009ECE8
:101DA80017F0E1EC16F0BA0E1D6E7F0E1E6E11ECE8
:101DB80016F0C00EB5EC16F0C80E1D6E7F0E1E6E26
:101DC80011EC16F0040E276ECF0E266E020EE82ECA
:101DD800FED7262EFCD7272EFAD7BE6A000E0001A2
:101DE800BD6F010EBC6F000EB06F000EB16F000E1C
:101DF800B26F000EC16F010EC06F000E3E6E000E76
:101E08003D6E12001B50D8B405D0185019101A1086
:101E1800D8A40CD0000E186E000E196E000E1A6EA3
:101E280012001B2AD8901A3219321832000E1814D0
:101E38001D6E000E19141E6EFE0E1A141F6E1D5014
:101E48001E101F10D8B40CD0ECD71B2A010E182670
:101E5800000E1922000E1A22D8901A32193218329E
:101E6800000E18141D6E000E19141E6EFF0E1A14A3
:101E78001F6E1D501E101F10D8B406D0E6D71B06C3
:101E8800D890183619361A3619BE03D0020E1B60C0
:101E9800F6D71BA0199ED8901B321B501A121C5043
:101EA800D8A41A8E18C018F019C019F01AC01AF060
:101EB800120033C039F034C03AF039C001F03AC0EA
:101EC80002F0000E046E0A0E036EC6EC12F001C09A
:101ED80037F002C038F03750395C016E38503A5844
:101EE800026E000E046E0A0E036E28EC11F001C09B
:101EF80035F002C036F0A6EC11F00CEC17F0EBEC64
:101F080016F0BA0E066E7F0E076E26EC16F0C00E9F
:101F1800CBEC16F0C80E066E7F0E076E26EC16F098
:101F2800040E0A6ECF0E096E020EE82EFED7092E99
:101F3800FCD70A2EFAD7BE6A000E0001BD6F010E4B
:101F4800BC6F000EB06F000EB16F000EB26F000EC6
:101F5800C16F010EC06F000E3E6E000E3D6E120086
:101F6800040EBA6E000ECF6E000ECE6EA190828067
:101F780000D08290010E416E82B203D04104D8B4E1
:101F8800FBD74150D8A402D0000E1200CD80A1B0DA
:101F980002D09EA0FCD7CD909EA002D0216830D060
:101FA800BBCF1FF0BCCF20F0D8901F362036D8907A
:101FB8001F362036D8901F3620368C0E1F5C390EFF
:101FC8002058D8A004D0070EBC6E310EBB6EBBCF14
:101FD8001FF0BCCF20F0D8901F362036D8901F367F
:101FE8002036D8901F3620361FC018F020C019F0B0
:101FF800000E1B6E3A0E1A6E14EC14F01828216E9F
:1020080021501200040EBA6E000ECF6E000ECE6E76
:10201800A190828000D08290010E416E82B203D0DE
:102028004104D8B4FBD74150D8A402D0000E120006
:10203800CD80A1B002D09EA0FCD7CD909EA002D0AA
:102048000A6830D0BBCF08F0BCCF09F0D89008366A
:102058000936D89008360936D890083609368C0ED5
:10206800085C390E0958D8A004D0070EBC6E310E92
:10207800BB6EBBCF08F0BCCF09F0D8900836093644
:10208800D89008360936D8900836093608C001F0C5
:1020980009C002F0000E046E3A0E036E3DEC14F017
:1020A80001280A6E0A5012008998040E4718D8A40D
:1020B80004D08C500F0B300901D03F0E8C6EF5EC1C
:1020C80016F0010EBEEC13F0040E4718D8A404D085
:1020D8008C500F0B300901D03F0E8C6EF5EC16F0CA
:1020E800030EBEEC13F0040E4718D8A404D08C508D
:1020F8000F0B300901D03F0E8C6EF5EC16F0040E74
:10210800BEEC13F0040E4718D8A411D08C500F0B56
:1021180020098C6EF5EC16F0040EBEEC13F02F0EB1
:102128008DEC14F0F5EC16F0040EBEEC13F0E1ECB7
:1021380016F00F0E8DEC14F0F5EC16F0040EBEEC54
:1021480013F01200236A21AE06D0206C211ED8B0ED
:10215800212A010E236E1FAE06D01E6C1F1ED8B09A
:102168001F2A010E231A000E256E000E246E205021
:102178002110D8B41CD0010E226E04D0D89020367D
:102188002136222A21AEFAD7D89024362536205077
:102198001E5C21501F58D8A005D020501E5E21502B
:1021A8001F5A2480D89021322032222EEDD7235076
:1021B800D8B404D0246C251ED8B0252A24C01EF01B
:1021C80025C01FF01200000E206E000E216E000EBA
:1021D800226E000E236E1C501D101E101F10D8B446
:1021E8002AD0010E246E06D0D8901C361D361E3615
:1021F8001F36242A1FAEF8D7D8902036213622362B
:1022080023361C50185C1D5019581E501A581F5060
:102218001B58D8A009D01C50185E1D50195A1E50C2
:102228001A5A1F501B5A2080D8901F321E321D3256
:102238001C32242EE1D720C018F021C019F022C08A
:102248001AF023C01BF01200066A04AE06D0036C15
:10225800041ED8B0042A010E066E02AE06D0016C28
:10226800021ED8B0022A010E061A000E086E000ED1
:10227800076E03500410D8B41CD0010E056E04D0AC
:10228800D89003360436052A04AEFAD7D890073614
:1022980008360350015C04500258D8A005D00350FA
:1022A800015E0450025A0780D89004320332052E8A
:1022B800EDD70650D8B404D0076C081ED8B0082A49
:1022C80007C001F008C002F012000001C251C3119A
:1022D800D8A404D08D908D928D941200355036106C
:1022E800D8A404D08D808D928D84120035043610C8
:1022F800D8A404D08D908D928D841200020E3518CA
:102308003610D8A404D08D908D828D841200030ECF
:1023180035183610D8A404D08D908D828D94120073
:10232800040E35183610D8A404D08D808D828D9473
:102338001200050E35183610D8A412008D808D8233
:102348008D8412000001C251C311D8A404D08D900D
:102358008D928D94120035503610D8A404D08D80FB
:102368008D928D84120035043610D8A404D08D9037
:102378008D928D841200020E35183610D8A404D020
:102388008D908D828D841200030E35183610D8A4D6
:1023980004D08D908D828D941200040E351836105D
:1023A800D8A404D08D808D828D941200050E351826
:1023B8003610D8A412008D808D828D8412001AAE3A
:1023C8000FD0000E1E6E000E1F6E800E206E18506D
:1023D8001E5C186E19501F58196E1A5020581A6E24
:1023E8001DAE0FD0000E1E6E000E1F6E800E206EEA
:1023F8001B501E5C1B6E1C501F581C6E1D50205815
:102408001D6E000E181A000E191A800E1A1A000EE8
:102418001B1A000E1C1A800E1D1A1B50185C1C502B
:1024280019581D501A58D8B002D0D8901200D88028
:102438001200500EF8EC15F08988040EBEEC13F06B
:102448001F0E8DEC14F0F5EC16F0150E8DEC14F053
:10245800F5EC16F01F0E8DEC14F0F5EC16F01F0ECF
:102468008DEC14F0F5EC16F00E0E8DEC14F0F5EC86
:1024780016F00A0E8DEC14F0F5EC16F01B0E8DEC30
:1024880014F0F5EC16F0000E8DEC14F0F5EC16F0E7
:102498008998C10E8DEC14F0F5EC16F0020EBEEC26
:1024A80013F01200480EF8EC15F08988040EBEEC03
:1024B80013F01B0E8DEC14F0F5EC16F0000E8DECFD
:1024C80014F0F5EC16F01B0E8DEC14F0F5EC16F08C
:1024D8001B0E8DEC14F0F5EC16F0000E8DEC14F0DC
:1024E800F5EC16F0110E8DEC14F0F5EC16F00E0E5E
:1024F8008DEC14F0F5EC16F0000E8DEC14F0F5EC04
:1025080016F08998C00E8DEC14F0F5EC16F0020E5A
:10251800BEEC13F012001D6A19AE06D0186C191E15
:10252800D8B0192A010E1D6E1BAE04D01A6C1B1EE2
:10253800D8B01B2A1A501B10D8B418D0010E1C6E24
:1025480004D0D8901A361B361C2A1BAEFAD71A505C
:10255800185C1B501958D8A004D01A50185E1B508C
:10256800195AD8901B321A321C2EF1D71D50D8B4E4
:1025780004D0186C191ED8B0192A18C018F019C040
:1025880019F01200066A02AE06D0016C021ED8B01D
:10259800022A010E066E04AE04D0036C041ED8B0E5
:1025A800042A03500410D8B418D0010E056E04D0C4
:1025B800D89003360436052A04AEFAD70350015CD6
:1025C80004500258D8A004D00350015E0450025AA7
:1025D800D89004320332052EF1D70650D8B404D06F
:1025E800016C021ED8B0022A01C001F002C002F03C
:1025F800120029502A102B102C10D8B424D0010E08
:102608002D6E06D0D89029362A362B362C362D2A10
:102618002CAEF8D72950255C2A5026582B5027581D
:102628002C502858D8A008D02950255E2A50265A60
:102638002B50275A2C50285AD8902C322B322A3219
:1026480029322D2EE7D725C025F026C026F027C031
:1026580027F028C028F0120033C031F034C032F01F
:10266800000E3A6E000E396E000E386E000E376E90
:10267800000E366E000E356E69EC11F009EC17F09D
:10268800E1EC16F0F60E1D6E7F0E1E6E11EC16F0C4
:10269800020E206E3150A0EC0BF0C00EB5EC16F017
:1026A800E00E1D6E7F0E1E6E11EC16F0020E206EEF
:1026B8003350A0EC0BF0120033C031F034C032F0CC
:1026C800000E3A6E000E396E000E386E000E376E30
:1026D800000E366E000E356EA6EC11F00CEC17F0FD
:1026E800EBEC16F0F60E066E7F0E076E26EC16F073
:1026F800020E096E315086EC0CF0C00ECBEC16F0D1
:10270800E00E066E7F0E076E26EC16F0020E096EBE
:10271800335086EC0CF012008E0E286E06D0D8903E
:102728002332223221322032282A000E2014246E2D
:10273800000E2114256E000E2214266EFF0E23149F
:10274800276E2450251026102710D8A4E8D720C0BB
:1027580018F021C019F022C01AF028C01BF0000E92
:102768001C6E06EC0FF018C020F019C021F01AC03A
:1027780022F01200196E1BD0050E186EDE0EE82E20
:10278800FED7182EFCD71200530EE82EFED70000F5
:10279800350EE82EFED700001200080EE82EFED7F0
:1027A80000001200030EE82EFED700001200195098
:1027B800010AD8B4E1D7030AD8B4E6D7010AD8B4D5
:1027C800ECD7070AD8A41200EDD7026E1BD0050E6D
:1027D800016EDE0EE82EFED7012EFCD71200530E36
:1027E800E82EFED70000350EE82EFED700001200B6
:1027F800080EE82EFED700001200030EE82EFED7C2
:10280800000012000250010AD8B4E1D7030AD8B474
:10281800E6D7010AD8B4ECD7070AD8A41200EDD736
:10282800000E1D6E000E1C6E1A501B10D8B41CD062
:10283800010E1E6E04D0D8901A361B361E2A1BAE07
:10284800FAD7D8901C361D361A50185C1B501958E8
:10285800D8A005D01A50185E1B50195A1C80D89061
:102868001B321A321E2EEDD71CC018F01DC019F0ED
:102878001200000E066E000E056E03500410D8B448
:102888001CD0010E076E04D0D89003360436072AF0
:1028980004AEFAD7D890053606360350015C0450CA
:1028A8000258D8A005D00350015E0450025A058092
:1028B800D89004320332072EEDD705C001F006C0C8
:1028C80002F01200066E3F044010D8A412003D50DA
:1028D8003E10D8A40DD006C0B6F00001B76BB651B3
:1028E800300FD6EC16F0000E3E6E010E3D6E120053
:1028F8003D043E10D8A4120006C0B8F00001B96B20
:10290800B851300FD6EC16F0000E3E6E020E3D6E3A
:1029180012001B6E040E4718D8A417D01BC01AF05B
:10292800F00E1A168C500F0B1A108C6EF5EC16F070
:10293800010EBEEC13F01BC01AF01A3AF00E1A166C
:102948008C500F0B1A108C6E1200080E4718D8A462
:1029580012001BC08CFF1200046E040E4718D8A486
:1029680017D004C003F0F00E03168C500F0B0310A1
:102978008C6EFCEC16F0010EE9EC13F004C003F0C9
:10298800033AF00E03168C500F0B03108C6E1200D6
:10299800080E4718D8A4120004C08CFF12001E0E9F
:1029A800F66E2E0EF76E000EF86E0900F5CF45F0A4
:1029B8000900F5CF46F00900F5CF47F000EEB0F07A
:1029C800140EEE6AE806FDE100EE31F0140EEE6A30
:1029D800E806FDE148904892000EF86E000183EF8A
:1029E80007F06E0E826F7F0E836FA6C084F0A7C0BB
:1029F80085F0A8C086F009EC00F04250D8A407D0B2
:102A0800850E826F7F0E836F09EC00F01200550E61
:102A1800826F7F0E836F42C084F0856B09EC00F0F3
:102A280012007F5180118111D8B406D0000E7F1B8F
:102A3800000E801B800E811B7CC070F07DC071F081
:102A48007EC072F07FC073F080C074F081C075F0F2
:102A5800B0EC06F070C07CF071C07DF072C07EF002
:102A680012008D808D928D948B94BE6A000E0001A9
:102A7800BD6F010EBC6F000EB06F000EB16F000E7F
:102A8800B26F000E3C6E010E3B6EE1EC16F0EB0EE1
:102A98001D6E7F0E1E6E11EC16F012008D808D9249
:102AA8008D948B94BE6A000E0001BD6F010EBC6F41
:102AB800000EB06F000EB16F000EB26F000E3C6ECC
:102AC800010E3B6EEBEC16F0EB0E066E7F0E076EFA
:102AD80026EC16F012001D6E1F6A1C50D8B415D0D3
:102AE800010E1E6E03D0D8901C361E2A1CAEFBD7D2
:102AF800D8901F361C501D5CD8A003D01C501D5EFA
:102B08001F80D8901C321E2EF3D71F501200066E5D
:102B1800086A0550D8B415D0010E076E03D0D890B6
:102B28000536072A05AEFBD7D89008360550065C4F
:102B3800D8A003D00550065E0880D8900532072E2D
:102B4800F3D7085012003F044010D8A41200EBEC51
:102B580016F0990E066E7F0E076E26EC16F0C00E64
:102B6800CBEC16F0000E406E010E3F6E000E346E78
:102B7800000E336E000E3E6E000E3D6E1200236A8C
:102B880021AE06D0206C211ED8B0212A010E236E5A
:102B980020C018F021C019F01A6A8E0E1B6E23C0CF
:102BA8001CF006EC0FF018C020F019C021F01AC074
:102BB80022F0120045C001F046C002F0FF0E046E7C
:102BC800036876EC16F001C045F002C046F04504F3
:102BD8004610D8A402D089861200452804E1462868
:102BE800D8A41200899612001C6E89981C04D8A4D7
:102BF80003D0E1EC16F012001C50FE0B020AD8A418
:102C080003D011EC17F012001C508DEC14F0F5EC09
:102C180016F0040EBEEC13F012000AD01DC0F6FF29
:102C28001EC0F7FF0800F550C0EC16F01D4A1E2A1A
:102C38001DC0F6FF1EC0F7FF0800F5500009D8B404
:102C48001200ECD70AD006C0F6FF07C0F7FF08004D
:102C5800F550D6EC16F0064A072A06C0F6FF07C05C
:102C6800F7FF0800F5500009D8B41200ECD7196E28
:102C7800080E1A6E1B6AD89019341B341B6ED89034
:102C8800193618501B5CD8A002D018501B5E1A2E9B
:102C9800F2D71B501200026E080E036E046AD89019
:102CA80002340434046ED89002360150045CD8A073
:102CB80002D00150045E032EF2D7045012001850BF
:102CC8001A02F3CF1CF0F4CF1DF018501B02F3507A
:102CD8001D2619501A02F3501D261CC018F01DC0DD
:102CE80019F0120001500302F3CF05F0F4CF06F0FB
:102CF80001500402F350062602500302F350062640
:102D080005C001F006C002F01200185019101A1080
:102D1800D8B406D0000E181A000E191A800E1A1A06
:102D280018C018F019C019F01AC01AF012001A6E5B
:102D3800196A3A0E1A6005D02F0E1A6402D0010ED5
:102D4800196E19C018F018301200186E040E1818F1
:102D5800D8B404D0080E1818D8A4120018C047F028
:102D680012001C6E89981C508DEC14F0F5EC16F0CE
:102D7800040EBEEC13F012001C6E89881C508DECFA
:102D880014F0F5EC16F0040EBEEC13F01200056E0C
:102D980089980550B0EC14F0FCEC16F0040EE9EC40
:102DA80013F01200056E89880550B0EC14F0FCECA5
:102DB80016F0040EE9EC13F012008998010E8DEC60
:102DC80014F0F5EC16F0020EBEEC13F01200899820
:102DD800010EB0EC14F0FCEC16F0020EE9EC13F066
:102DE8001200898A030EE82EFED70000899A120085
:102DF800898A030EE82EFED70000899A1200186E01
:102E0800ACA2FED718C0ADFF120037C08CFF12006D
:092E180037C08CFF1200FFFF0817
:022E220012009C
:107EDE000000803F00204100C842007A44401C460A
:107EEE0050C34724744997184BBCBE4C6B6E4E035F
:107EFE00155079AD60F3497100803FCDCC3DD7234D
:107F0E003C12833AB7D138C62737388635C0D633B8
:107F1E00CC2B32708930E7DB2EE53C1E42A20D01E0
:107F2E000000000A00000064000000E803000010DA
:107F3E00270000A086010040420F008096980000A6
:107F4E00E1F50500CA9A3B44697374616E63696119
:107F5E00206F626A65746F3A20256420636D0D0090
:107F6E0056616C6F722064652050574D3A20252E55
:107F7E0032662025250D0046616C6C6120656E20F1
:107F8E00656C2073656E736F720D005069657A6152
:107F9E0073206120436F6E7461723A200056616CDB
:107FAE006F7220496E76616C69646F0046696E204F
:107FBE006465204375656E74610050726573696FF8
:107FCE006E65204F4B004269656E76656E69646F13
:107FDE0073004F626A657469766F3A2000456D656D
:107FEE007267656E6369610046616C74616E3A20FA
:027FFE00000081
:020000040020DA
:08000000FFFFFFFFFFFFFFFF00
:020000040030CA
:0E00000000091F1EFF8181FF0FC00FE00F409F
:00000001FF
