:0400000077EF04F0A2
:1008000000000A0E016E07504AEC04F08C6E0A0ECE
:10081000076003D0050E8D6E1200140E076003D022
:10082000040E8D6E12001E0E076003D0060E8D6E34
:100830001200280E076003D0020E8D6E1200320ED9
:10084000076003D0030E8D6E12003C0E076012008D
:10085000070E8D6E1200956A966A010E8C6E010E5F
:100860008C6E076A100E066ED0B206D0100E70ECB9
:1008700004F0056ED08204D0010E70EC04F0056E19
:1008800005C007F001EC04F0040E016E06505EECAA
:1008900004F0F6D7026E080E036E046AD890023494
:1008A0000434046ED89002360150045CD8A002D003
:1008B0000150045E032EF2D704501200026E02C0F3
:1008C000A9FF01C0A8FFA69EA684F29E550EA76EA2
:1008D000AA0EA76EA682F28EA6B2FED7A69412002A
:1008E000016E01C0A9FFA69EA680A8501200076A4B
:0608F00000012BEF04F0F3
:020000040020DA
:08000000FFFFFFFFFFFFFFFF00
:020000040030CA
:0E00000000091F1EFF8381FF0FC00FE00F409D
:00000001FF
