:020000040000FA
:0400000006EF00F017
:020004000000FA
:0800080037EF00F08C6A956AE5
:100010009380F18CF292F288F28E8C6AF80E026E66
:1000200000003CEC00F08C84510E026E3CEC00F0C1
:100030008C80A50E026E3CEC00F08C94510E026E8A
:100040003CEC00F08C82A50E026E3CEC00F08C843F
:10005000F80E026E3CEC00F08C90A50E026E3CECAB
:1000600000F08C94510E026E3CEC00F0D6D7F29268
:1000700081B037EF00F010000250006E002E3EEF0E
:0400800000F012007A
:020000040030CA
:0100010009F5
:010003001EDE
:010005008179
:010006008178
:00000001FF
