:0400000007EF00F016
:0A0008002F8237ED04F077EF08F0C7
:10080000005069657A6173206120636F6E74617254
:100810003A002020434F4D504C4554415321212153
:10082000200056616C6F72206E6F2076616C696477
:100830006F0020202020454D455247454E4359002A
:1008400046616C74616E746573203A004F626A652C
:100850007469766F203A0020202020202053544FC6
:1008600050004269656E76656E696461000006003D
:10087000F3CF0FF0F4CF10F0F2A41AD0C20ED76E5F
:10088000F70ED66EF29489B202D0898201D0899295
:100890002250D8B48988222A130E226405D0280E4B
:1008A000226002D0899804D0270E226401D0030070
:1008B000F2A0F6D0F00E8118D8B4D7D02404D8A472
:1008C000D4D0FE0E8A6E81B806D02AC029F02950F5
:1008D0002A5C286EC8D081BA0BD0272A030E276065
:1008E000C2D02B6A010E096E2B50C0EC06F0BBD0B3
:1008F00081BC06D02AC028F0296A01EC08F0B3D0E8
:1009000081BE06D089B802D08988ADD08998ABD095
:10091000FD0E8A6E81B80CD0272A030E2760A3D063
:10092000070E2B6E010E096E2B50C0EC06F09BD00B
:1009300081BA0CD0272A030E276095D0080E2B6EA3
:10094000010E096E2B50C0EC06F08DD081BC0CD08E
:10095000272A030E276087D0090E2B6E010E096E21
:100960002B50C0EC06F07FD081BE1ED02704D8A447
:100970000BD0C00E47EC09F0200E3CEC09F0C00E85
:1009800047EC09F027066FD0020E2718D8A40AD02A
:10099000C10E47EC09F0200E3CEC09F0C10E47EC0B
:1009A00009F0F0D700005FD0FB0E8A6E81B80CD042
:1009B000272A030E276057D0040E2B6E010E096EF6
:1009C0002B50C0EC06F04FD081BA0CD0272A030E72
:1009D000276049D0050E2B6E010E096E2B50C0EC1E
:1009E00006F041D081BC0CD0272A030E27603BD0F3
:1009F000060E2B6E010E096E2B50C0EC06F033D0A4
:100A000081BE03D0010E236E2ED0F70E8A6E81B800
:100A10000CD0272A030E276026D0010E2B6E010E64
:100A2000096E2B50C0EC06F01ED081BA0CD0272ADC
:100A3000030E276018D0020E2B6E010E096E2B508C
:100A4000C0EC06F010D081BC0CD0272A030E276022
:100A50000AD0030E2B6E010E096E2B50C0EC06F06F
:100A600002D081AE252AF00E8A6E2550D8A407D078
:100A70002704D8A404D02B500A0DF3CF2AF0020E7D
:100A8000276405D02650D8A402D0020E276E520E3D
:100A90000E6E2A0EE82EFED70E2EFCD7226AF2909A
:100AA00010C0F4FF0FC0F3FF2F9211000F0EC16EA4
:100AB000010E926EF00E936E956A966A100E896E14
:100AC0008A6A8C6A8D6AF19EF290F286020ED56E69
:100AD000C20ED76EF70ED66EF294F28AF28ED58ED3
:100AE000040E1AEC09F033EC07F052EC09F0D0A830
:100AF0000ED066EC09F0620E166EDFEC08F0A30E65
:100B00001E6E550EE82EFED71E2EFCD70000D0B864
:100B100003D0050E8D6ED088276A2A6A256A226A5C
:100B200066EC09F05CEC09F02DC016F0DFEC08F083
:100B3000C00E31EC09F0010E246E266A04D02304A5
:100B4000D8B407EC09F02550D8B4F9D7020E2760C5
:100B500007D02B6A0A0E156E2A5093EC08F02A6E05
:100B6000030E276E3B0E2A6412D066EC09F0220EAB
:100B7000166EDFEC08F0030E1F6E8A0E1E6E560E08
:100B8000E82EFED71E2EFCD71F2EFAD7FF002A50C4
:100B90002B242A6E2AC029F029502A5C286E010EC7
:100BA000266E66EC09F0400E166EDFEC08F0020EC1
:100BB000196E29504DEC06F0C00E31EC09F04C0EC8
:100BC000166EDFEC08F0020E196E2A504DEC06F09E
:100BD000206A2304D8B407EC09F0000E80B0010E9F
:100BE000216E2050D8A428D02104D8A425D02A5082
:100BF000285CD8B021D0226A210E1E6E760EE82E17
:100C0000FED71E2EFCD700D0282A29060A0E116E08
:100C10002850CBEC08F00009D8A40ED02A50281890
:100C2000D8B40AD08984A30E1E6E550EE82EFED7C6
:100C30001E2EFCD70000899421C020F0D7EC07F0CD
:100C400052EC09F08B0E31EC09F0020E196E2950AE
:100C50004DEC06F02A502818D8A4BBD7898466EC3E
:100C600009F02CC016F0DFEC08F0020E1F6E450EE6
:100C70001E6EAA0EE82EFED71E2EFCD71F2EFAD708
:100C80008994256A2304D8B407EC09F02550D8B418
:100C9000F9D7256A2A6A276A3FD71D6E898665D0EB
:100CA0000A0E116E1D50CBEC08F01C6E1C50300F5C
:100CB0002BEC08F070EC09F0040E81EC07F0120048
:100CC0000A0E156E640E116E1D50CBEC08F093ECFD
:100CD00008F01B6E0A0E116E1D50CBEC08F01C6E56
:100CE0001B50300F2BEC08F070EC09F0040E81EC77
:100CF00007F01C50300F2BEC08F070EC09F0040EDC
:100D000081EC07F01200640E156E1D5093EC08F094
:100D10001A6E0A0E156E640E116E1D50CBEC08F0A3
:100D200093EC08F01B6E0A0E116E1D50CBEC08F010
:100D30001C6E1A50300F2BEC08F070EC09F0040E0A
:100D400081EC07F01B50300F2BEC08F070EC09F031
:100D5000040E81EC07F01C50300F2BEC08F070EC07
:100D600009F0040E81EC07F012001950010AD8B402
:100D700097D7030AD8B4A4D7010AD8A41200C3D7BE
:100D80000D6E898665D00A0E016E0D50F3EC08F0E9
:100D90000C6E0C50300F51EC08F077EC09F0040E9B
:100DA000ACEC07F012000A0E056E640E016E0D50D9
:100DB000F3EC08F0AFEC08F00B6E0A0E016E0D506C
:100DC000F3EC08F00C6E0B50300F51EC08F077ECA0
:100DD00009F0040EACEC07F00C50300F51EC08F0A9
:100DE00077EC09F0040EACEC07F01200640E056E0F
:100DF0000D50AFEC08F00A6E0A0E056E640E016E1F
:100E00000D50F3EC08F0AFEC08F00B6E0A0E016E1B
:100E10000D50F3EC08F00C6E0A50300F51EC08F056
:100E200077EC09F0040EACEC07F00B50300F51ECEE
:100E300008F077EC09F0040EACEC07F00C50300F22
:100E400051EC08F077EC09F0040EACEC07F012005E
:100E50000950010AD8B497D7030AD8B4A4D7010A15
:100E6000D8A41200C3D78996040E2E18D8A404D093
:100E70008C500F0B300901D03F0E8C6E70EC09F0D6
:100E8000010E81EC07F0040E2E18D8A404D08C506B
:100E90000F0B300901D03F0E8C6E70EC09F0030E81
:100EA00081EC07F0040E2E18D8A404D08C500F0B40
:100EB000300901D03F0E8C6E70EC09F0040E81EC0D
:100EC00007F0040E2E18D8A411D08C500F0B200957
:100ED0008C6E70EC09F0040E81EC07F02F0E2BECF9
:100EE00008F070EC09F0040E81EC07F066EC09F0F4
:100EF0000F0E2BEC08F070EC09F0040E81EC07F0FB
:100F00001200126E1BD0050E116EDE0EE82EFED7FB
:100F1000112EFCD71200530EE82EFED70000350E1E
:100F2000E82EFED700001200080EE82EFED70000C3
:100F30001200030EE82EFED7000012001250010A24
:100F4000D8B4E1D7030AD8B4E6D7010AD8B4ECD7AD
:100F5000070AD8A41200EDD7026E1BD0050E016E51
:100F6000DE0EE82EFED7012EFCD71200530EE82E1F
:100F7000FED70000350EE82EFED700001200080E46
:100F8000E82EFED700001200030EE82EFED7000068
:100F900012000250010AD8B4E1D7030AD8B4E6D748
:100FA000010AD8B4ECD7070AD8A41200EDD70A0E6C
:100FB000116E2850CBEC08F08C6E0A0E286003D01E
:100FC000050E8D6E1200140E286003D0040E8D6E77
:100FD00012001E0E286003D0060E8D6E1200280E21
:100FE000286003D0020E8D6E1200320E286003D0EE
:100FF000030E8D6E12003C0E28601200070E8D6EDF
:1010000012000A0E016E2850F3EC08F08C6E0A0EE6
:10101000286003D0050E8D6E1200140E286003D0D8
:10102000040E8D6E12001E0E286003D0060E8D6E0B
:101030001200280E286003D0020E8D6E1200320EB0
:10104000286003D0030E8D6E12003C0E2860120043
:10105000070E8D6E1200146E040E2E18D8A41AD02E
:1010600014C013F0F00E13168C500F0B13108C6E6F
:1010700070EC09F0010E81EC07F014C013F0133A84
:10108000F00E13168C500F0B13108C6E010E81ECAA
:1010900007F01200080E2E18D8A4120014C08CFFFE
:1010A0001200046E040E2E18D8A41AD004C003F047
:1010B000F00E03168C500F0B03108C6E77EC09F0BA
:1010C000010EACEC07F004C003F0033AF00E031677
:1010D0008C500F0B03108C6E010EACEC07F012005D
:1010E000080E2E18D8A4120004C08CFF1200FC0EAB
:1010F000F66E120EF76E000EF86E0900F5CF2CF0AA
:101100000900F5CF2DF00900F5CF2EF000EE22F00A
:101110000A0EEE6AE806FDE12F902F92000EF86E9F
:10112000000156EF05F0166E186A1550D8B415D0A8
:10113000010E176E03D0D8901536172A15AEFBD7BF
:10114000D89018361550165CD8A003D01550165EEE
:101150001880D8901532172EF3D718501200066E4B
:10116000086A0550D8B415D0010E076E03D0D89088
:101170000536072A05AEFBD7D89008360550065C21
:10118000D8A003D00550065E0880D8900532072EFF
:10119000F3D708501200126E080E136E146AD8901E
:1011A00012341434146ED89012361150145CD8A036
:1011B00002D01150145E132EF2D71450120009D031
:1011C00016C0F6FF080EF76E0800F55026EC09F081
:1011D000162A16C0F6FF080EF76E0800F550000933
:1011E000D8B41200EDD7026E080E036E046AD890D0
:1011F00002340434046ED89002360150045CD8A046
:1012000002D00150045E032EF2D704501200010EEA
:101210008D6E080E8C6E66EC09F0320E166EDFECE9
:1012200008F0C00E31EC09F0570E166EDFEC08F036
:10123000F29EFED7116E040E1118D8B404D0080E19
:101240001118D8A4120011C02EF01200156E898654
:1012500015502BEC08F070EC09F0040E81EC07F04F
:101260001200156E899615502BEC08F070EC09F001
:10127000040E81EC07F01200056E8986055051ECD2
:1012800008F077EC09F0040EACEC07F01200056EE4
:101290008996055051EC08F077EC09F0040EACEC9F
:1012A00007F0120089960C0E2BEC08F070EC09F098
:1012B000040E81EC07F0120089960E0E2BEC08F05C
:1012C00070EC09F0040E81EC07F012008996010E13
:1012D0002BEC08F070EC09F0020E81EC07F0120024
:1012E000898A030EE82EFED70000899A1200898AA7
:0F12F000030EE82EFED70000899A1200120108A3
:020000040020DA
:08000000FFFFFFFFFFFFFFFF00
:020000040030CA
:0E00000000091F1EFF8181FF0FC00FE00F409F
:00000001FF
