:0400000007EF00F016
:0A000800308223ED04F077EF07F0DB
:10080000005069657A6173206120636F6E74617254
:100810003A0046616C74616E746573203A004F62F1
:100820006A657469766F203A004269656E76656E16
:10083000696461005041524F00535550520046497F
:100840004E004F4B00000600F3CF0FF0F4CF10F036
:10085000F6CF11F0F7CF12F0F8CF13F0F5CF14F078
:10086000F2A40AD0C20ED76EF70ED66EF29489B2F9
:1008700002D0898201D08992F2A0CED0F00E8118E8
:10088000D8B4B8D0FE0E8A6E81B802D0FF00B0D0C6
:1008900081BA0BD0252A030E2560AAD0296A010E41
:1008A000096E295014EC06F0A3D081BC05D02AC0F3
:1008B00006F0F4EC07F09CD081BE06D089B802D0D7
:1008C000898896D0899894D0FD0E8A6E81B80CD014
:1008D000252A030E25608CD0070E296E010E096EA5
:1008E000295014EC06F084D081BA0CD0252A030ECE
:1008F00025607ED0080E296E010E096E295014EC79
:1009000006F076D081BC0CD0252A030E256070D06D
:10091000090E296E010E096E295014EC06F068D0FC
:1009200081BE05D02BC006F0F4EC07F061D0FB0EC1
:100930008A6E81B80CD0252A030E256059D0040E8A
:10094000296E010E096E295014EC06F051D081BABF
:100950000CD0252A030E25604BD0050E296E010E02
:10096000096E295014EC06F043D081BC0CD0252A26
:10097000030E25603DD0060E296E010E096E29502A
:1009800014EC06F035D081BE05D02CC006F0F4EC96
:1009900007F02ED0F70E8A6E81B80CD0252A030EF0
:1009A000256026D0010E296E010E096E295014EC27
:1009B00006F01ED081BA0CD0252A030E256018D06F
:1009C000020E296E010E096E295014EC06F010D0AB
:1009D00081BC0CD0252A030E25600AD0030E296E97
:1009E000010E096E295014EC06F002D081AE242AC3
:1009F000F00E8A6E2450D8A407D02504D8A404D0C1
:100A000029500A0DF3CF28F0520E0E6E2A0EE82E52
:100A1000FED70E2EFCD7F29014C0F5FF13C0F8FFDE
:100A200012C0F7FF11C0F6FF10C0F4FF0FC0F3FFB4
:100A3000309211000F0EC16E926AF00E936E9468A0
:100A4000956A966A100E896E8A6A8C6A8D6AF19E22
:100A5000F290F286020ED56EC20ED76EF70ED66EEB
:100A6000F294F28AF28ED58E256A286A246A040EE0
:100A70001CEC08F087EC06F049EC08F0290E1A6E21
:100A8000CCEC07F0020E236E450E226EAA0EE82E65
:100A9000FED7222EFCD7232EFAD749EC08F02EC021
:100AA0001AF0CCEC07F0C00E33EC08F0020E236E07
:100AB000450E226EAA0EE82EFED7222EFCD7232E3C
:100AC000FAD72450D8B4FDD728502924286E28C03E
:100AD00027F02750285C266E49EC08F0120E1A6E9B
:100AE000CCEC07F0020E1D6E2750A1EC05F0C00EF5
:100AF00033EC08F01E0E1A6ECCEC07F0020E1D6EE1
:100B00002850A1EC05F082A0FED7262A270626C091
:100B10008CFF49EC08F0120E1A6ECCEC07F0020EB6
:100B20001D6E2750A1EC05F0C00E33EC08F01E0E30
:100B30001A6ECCEC07F0020E1D6E2850A1EC05F0E9
:100B4000E2D7216E898665D00A0E156E2150E0EC41
:100B500007F0206E2050300F2BEC07F053EC08F01C
:100B6000040ED5EC06F012000A0E196E640E156E16
:100B70002150E0EC07F094EC07F01F6E0A0E156EA2
:100B80002150E0EC07F0206E1F50300F2BEC07F0E7
:100B900053EC08F0040ED5EC06F02050300F2BEC8F
:100BA00007F053EC08F0040ED5EC06F01200640ECA
:100BB000196E215094EC07F01E6E0A0E196E640E29
:100BC000156E2150E0EC07F094EC07F01F6E0A0E52
:100BD000156E2150E0EC07F0206E1E50300F2BEC0C
:100BE00007F053EC08F0040ED5EC06F01F50300F60
:100BF0002BEC07F053EC08F0040ED5EC06F0205077
:100C0000300F2BEC07F053EC08F0040ED5EC06F097
:100C100012001D50010AD8B497D7030AD8B4A4D73C
:100C2000010AD8A41200C3D70D6E898665D00A0EBA
:100C3000016E0D5008EC08F00C6E0C50300F51ECAA
:100C400007F05AEC08F0040E00EC07F012000A0E50
:100C5000056E640E016E0D5008EC08F0B0EC07F064
:100C60000B6E0A0E016E0D5008EC08F00C6E0B5066
:100C7000300F51EC07F05AEC08F0040E00EC07F0CE
:100C80000C50300F51EC07F05AEC08F0040E00EC59
:100C900007F01200640E056E0D50B0EC07F00A6EFE
:100CA0000A0E056E640E016E0D5008EC08F0B0ECF3
:100CB00007F00B6E0A0E016E0D5008EC08F00C6E7A
:100CC0000A50300F51EC07F05AEC08F0040E00EC1B
:100CD00007F00B50300F51EC07F05AEC08F0040EFF
:100CE00000EC07F00C50300F51EC07F05AEC08F014
:100CF000040E00EC07F012000950010AD8B497D78F
:100D0000030AD8B4A4D7010AD8A41200C3D789967D
:100D1000040E2F18D8A404D08C500F0B300901D02A
:100D20003F0E8C6E53EC08F0010ED5EC06F0040E6D
:100D30002F18D8A404D08C500F0B300901D03F0ECF
:100D40008C6E53EC08F0030ED5EC06F0040E2F1851
:100D5000D8A404D08C500F0B300901D03F0E8C6EFC
:100D600053EC08F0040ED5EC06F0040E2F18D8A4AE
:100D700011D08C500F0B20098C6E53EC08F0040E30
:100D8000D5EC06F02F0E2BEC07F053EC08F0040E18
:100D9000D5EC06F049EC08F00F0E2BEC07F053EC05
:100DA00008F0040ED5EC06F01200166E1BD0050EEE
:100DB000156EDE0EE82EFED7152EFCD71200530E50
:100DC000E82EFED70000350EE82EFED700001200F8
:100DD000080EE82EFED700001200030EE82EFED704
:100DE000000012001650010AD8B4E1D7030AD8B4A3
:100DF000E6D7010AD8B4ECD7070AD8A41200EDD779
:100E0000026E1BD0050E016EDE0EE82EFED7012EFF
:100E1000FCD71200530EE82EFED70000350EE82E48
:100E2000FED700001200080EE82EFED700001200C8
:100E3000030EE82EFED7000012000250010AD8B4BB
:100E4000E1D7030AD8B4E6D7010AD8B4ECD7070A29
:100E5000D8A41200EDD7186E040E2F18D8A41AD0FB
:100E600018C017F0F00E17168C500F0B17108C6E61
:100E700053EC08F0010ED5EC06F018C017F0173A45
:100E8000F00E17168C500F0B17108C6E010ED5EC50
:100E900006F01200080E2F18D8A4120018C08CFFFC
:100EA0001200046E040E2F18D8A41AD004C003F048
:100EB000F00E03168C500F0B03108C6E5AEC08F0DA
:100EC000010E00EC07F004C003F0033AF00E031625
:100ED0008C500F0B03108C6E010E00EC07F012000B
:100EE000080E2F18D8A4120004C08CFF1200C20EE6
:100EF000F66E100EF76E000EF86E00EE2AF010EE91
:100F000006F00900F5CFEEFFE550E150FAE1296A5D
:100F1000286A276A266A256A246A30903092000E71
:100F2000F86E00011AEF05F01A6E1C6A1950D8B459
:100F300015D0010E1B6E03D0D89019361B2A19AE9E
:100F4000FBD7D8901C3619501A5CD8A003D0195082
:100F50001A5E1C80D89019321B2EF3D71C50120039
:100F6000066E086A0550D8B415D0010E076E03D07E
:100F7000D8900536072A05AEFBD7D890083605501D
:100F8000065CD8A003D00550065E0880D8900532D4
:100F9000072EF3D70850120009D01AC0F6FF080E2A
:100FA000F76E0800F55028EC08F01A2A1AC0F6FF70
:100FB000080EF76E0800F5500009D8B41200EDD7FE
:100FC000166E080E176E186AD89016341834186EFC
:100FD000D89016361550185CD8A002D01550185E5F
:100FE000172EF2D71850120009D006C0F6FF080ECF
:100FF000F76E0800F5503EEC08F0062A06C0F6FF32
:10100000080EF76E0800F5500009D8B41200EDD7AD
:10101000026E080E036E046AD89002340434046E23
:10102000D89002360150045CD8A002D00150045E72
:10103000032EF2D704501200156E040E1518D8B402
:1010400004D0080E1518D8A4120015C02FF01200F5
:10105000196E898619502BEC07F053EC08F0040E3A
:10106000D5EC06F01200196E899619502BEC07F09A
:1010700053EC08F0040ED5EC06F01200056E8986DC
:10108000055051EC07F05AEC08F0040E00EC07F0A4
:1010900012008996010E2BEC07F053EC08F0020EBB
:1010A000D5EC06F01200898A030EE82EFED7000068
:1010B000899A1200898A030EE82EFED70000899AC9
:0810C00012003E393442010820
:020000040020DA
:08000000FFFFFFFFFFFFFFFF00
:020000040030CA
:0E00000000091F1EFF8181FF0FC00FE00F409F
:00000001FF
