:0400000007EF00F016
:0A00080030823FED04F044EF09F0F0
:100800000000000000001F151F000E0A0E001F153B
:100810001F5069657A6173206120636F6E74617225
:100820003A002020434F4D504C4554415321212143
:10083000200056616C6F72206E6F2076616C696467
:100840006F0020202020454D455247454E4359001A
:1008500046616C74616E746573203A004F626A651C
:100860007469766F203A0020202020202053544FB6
:1008700050004269656E76656E696461000006002D
:10088000F3CF0FF0F4CF10F0F2A425D0C20ED76E44
:10089000F70ED66EF29489B202D0898201D0899285
:1008A0002350D8A405D02204D8A402D08988226A73
:1008B000232A140E236001D0226A130E236407D06A
:1008C000280E236004D08998010E226E04D0270ED2
:1008D000236401D00300F2A0FCD0F00E8118D8B43C
:1008E000DDD02504D8A4DAD0FE0E8A6E81B806D0F9
:1008F0002BC02AF02A502B5C296ECED081BA0BD0A7
:10090000282A030E2860C8D02C6A010E096E2C50CC
:1009100060EC07F0C1D081BC06D02BC029F02A6A58
:10092000CEEC08F0B9D081BE06D089B802D0898853
:10093000B3D08998B1D0FD0E8A6E81B80CD0282A28
:10094000030E2860A9D0070E2C6E010E096E2C50E4
:1009500060EC07F0A1D081BA0CD0282A030E2860E1
:100960009BD0080E2C6E010E096E2C5060EC07F027
:1009700093D081BC0CD0282A030E28608DD0090E9C
:100980002C6E010E096E2C5060EC07F085D081BEF4
:1009900024D02804D8A40BD0C00E14EC0AF0200EEA
:1009A00009EC0AF0C00E14EC0AF0280675D0020E0D
:1009B0002818D8A410D0C10E14EC0AF0200E09ECAF
:1009C0000AF0C10E14EC0AF00A0E056E2B507CECF6
:1009D00009F02C6EEAD700005FD0FB0E8A6E81B85A
:1009E0000CD0282A030E286057D0040E2C6E010E5E
:1009F000096E2C5060EC07F04FD081BA0CD0282A39
:100A0000030E286049D0050E2C6E010E096E2C5085
:100A100060EC07F041D081BC0CD0282A030E28607E
:100A20003BD0060E2C6E010E096E2C5060EC07F0C8
:100A300033D081BE03D0010E246E2ED0F70E8A6E05
:100A400081B80CD0282A030E286026D0010E2C6E07
:100A5000010E096E2C5060EC07F01ED081BA0CD04C
:100A6000282A030E286018D0020E2C6E010E096E83
:100A70002C5060EC07F010D081BC0CD0282A030E5B
:100A800028600AD0030E2C6E010E096E2C5060EC0B
:100A900007F002D081AE262AF00E8A6E2650D8A426
:100AA00007D02804D8A404D02C500A0DF3CF2BF083
:100AB000020E286405D02750D8A402D0020E286E5A
:100AC000520E0E6E2A0EE82EFED70E2EFCD7236A8B
:100AD000F29010C0F4FF0FC0F3FF309211000F0E20
:100AE000C16E010E926EF00E936E956A9468966ACE
:100AF000100E896E8A6A8B6A8C6A8D6AF19EF290FA
:100B0000F286020ED56EC20ED76EF70ED66EF29436
:100B1000F28AF28ED58E040EE7EC09F0D3EC07F0E2
:100B20001FEC0AF0D0A816D033EC0AF070EC06F0F7
:100B3000236A33EC0AF0720E166EACEC09F0020E6A
:100B40001F6E450E1E6EAA0EE82EFED71E2EFCD777
:100B50001F2EFAD7D0B803D0050E8D6ED088286A24
:100B60002B6A266A236A33EC0AF029EC0AF02EC0BD
:100B700016F0ACEC09F0C00EFEEC09F0010E256E8B
:100B8000276A04D02404D8B4D4EC09F02650D8B491
:100B9000F9D7020E286007D02C6A0A0E156E2B506A
:100BA00060EC09F02B6E030E286E3B0E2B6412D006
:100BB00033EC0AF0320E166EACEC09F0030E1F6E29
:100BC0008A0E1E6E560EE82EFED71E2EFCD71F2E46
:100BD000FAD7FF002B502C242B6E2BC02AF02A5062
:100BE0002B5C296E010E276E33EC0AF0500E166E48
:100BF000ACEC09F0020E196E2A50EDEC06F0C00EB6
:100C0000FEEC09F05C0E166EACEC09F0020E196EEB
:100C10002B50EDEC06F0206A2404D8B4D4EC09F093
:100C2000000E82B4010E216E2050D8A428D02104D9
:100C3000D8A425D02B50295CD8B021D0236A210E0E
:100C40001E6E760EE82EFED71E2EFCD700D0292A67
:100C50002A060A0E116E295098EC09F00009D8A452
:100C60000ED02B502918D8B40AD08984A30E1E6E3A
:100C7000550EE82EFED71E2EFCD70000899421C009
:100C800020F0A4EC08F01FEC0AF08B0EFEEC09F04B
:100C9000020E196E2A50EDEC06F02B502918D8A43C
:100CA000BBD7898433EC0AF02DC016F0ACEC09F008
:100CB000020E1F6E450E1E6EAA0EE82EFED71E2EC9
:100CC000FCD71F2EFAD78994266A2404D8B4D4EC12
:100CD00009F02650D8B4F9D7266A2B6A286A3FD77C
:100CE0000F0E1A6E040EE7EC09F0D3EC07F01FECC0
:100CF0000AF0090E156E000E21EC08F0010E156EBB
:100D0000010E21EC08F01B6A10D01B50800FFEEC86
:100D100009F0010EF3EC09F0110E196E3A0EE82EEF
:100D2000FED7192EFCD700D01B2A1B501A5CD8B056
:100D3000ECD71B6A1FD01B50800FFEEC09F0000E91
:100D4000F3EC09F0110E196E3A0EE82EFED7192EAB
:100D5000FCD700D01B50800FFEEC09F0010EF3EC25
:100D600009F0110E196E3A0EE82EFED7192EFCD797
:100D700000D01B2A1A501B5CD8A0DDD71A50800F58
:100D8000FEEC09F0000EF3EC09F01AC01BF01B504A
:100D9000D8B420D01B50800FFEEC09F0000EF3EC0D
:100DA00009F0110E196E3A0EE82EFED7192EFCD757
:100DB00000D01B50800FFEEC09F0010EF3EC09F09F
:100DC000110E196E3A0EE82EFED7192EFCD700D060
:100DD0001B06DDD729EC0AF012001D6E898665D04E
:100DE0000A0E116E1D5098EC09F01C6E1C50300F4D
:100DF000F8EC08F03DEC0AF0040E4EEC08F012009E
:100E00000A0E156E640E116E1D5098EC09F060EC20
:100E100009F01B6E0A0E116E1D5098EC09F01C6E45
:100E20001B50300FF8EC08F03DEC0AF0040E4EECCD
:100E300008F01C50300FF8EC08F03DEC0AF0040EFE
:100E40004EEC08F01200640E156E1D5060EC09F0B7
:100E50001A6E0A0E156E640E116E1D5098EC09F094
:100E600060EC09F01B6E0A0E116E1D5098EC09F033
:100E70001C6E1A50300FF8EC08F03DEC0AF0040E2E
:100E80004EEC08F01B50300FF8EC08F03DEC0AF087
:100E9000040E4EEC08F01C50300FF8EC08F03DEC5E
:100EA0000AF0040E4EEC08F012001950010AD8B4F2
:100EB00097D7030AD8B4A4D7010AD8A41200C3D77D
:100EC0000D6E898665D00A0E016E0D50C0EC09F0DA
:100ED0000C6E0C50300F1EEC09F044EC0AF0040EBE
:100EE00079EC08F012000A0E056E640E016E0D50CA
:100EF000C0EC09F07CEC09F00B6E0A0E016E0D508F
:100F0000C0EC09F00C6E0B50300F1EEC09F044ECF5
:100F10000AF0040E79EC08F00C50300F1EEC09F0CA
:100F200044EC0AF0040E79EC08F01200640E056E31
:100F30000D507CEC09F00A6E0A0E056E640E016E0F
:100F40000D50C0EC09F07CEC09F00B6E0A0E016E3E
:100F50000D50C0EC09F00C6E0A50300F1EEC09F079
:100F600044EC0AF0040E79EC08F00B50300F1EEC44
:100F700009F044EC0AF0040E79EC08F00C50300F44
:100F80001EEC09F044EC0AF0040E79EC08F01200B3
:100F90000950010AD8B497D7030AD8B4A4D7010AD4
:100FA000D8A41200C3D78996040E2F18D8A404D051
:100FB0008C500F0B300901D03F0E8C6E3DEC0AF0C7
:100FC000010E4EEC08F0040E2F18D8A404D08C505B
:100FD0000F0B300901D03F0E8C6E3DEC0AF0030E72
:100FE0004EEC08F0040E2F18D8A404D08C500F0B30
:100FF000300901D03F0E8C6E3DEC0AF0040E4EEC31
:1010000008F0040E2F18D8A411D08C500F0B200913
:101010008C6E3DEC0AF0040E4EEC08F02F0EF8EC4E
:1010200008F03DEC0AF0040E4EEC08F033EC0AF048
:101030000F0EF8EC08F03DEC0AF0040E4EEC08F050
:101040001200176E89961750080DF350400FF8ECF8
:1010500008F03DEC0AF0040E4EEC08F08986186AA0
:1010600015501824166E16C0F6FF080EF76E08000D
:10107000F550F8EC08F03DEC0AF0040E4EEC08F0E8
:10108000182A070E1864ECD78996800EF8EC08F041
:101090003DEC0AF0040E4EEC08F01200126E1BD06C
:1010A000050E116EDE0EE82EFED7112EFCD71200B3
:1010B000530EE82EFED70000350EE82EFED70000B6
:1010C0001200080EE82EFED700001200030EE82ED4
:1010D000FED7000012001250010AD8B4E1D7030A6B
:1010E000D8B4E6D7010AD8B4ECD7070AD8A41200BE
:1010F000EDD7026E1BD0050E016EDE0EE82EFED778
:10110000012EFCD71200530EE82EFED70000350E3C
:10111000E82EFED700001200080EE82EFED70000D1
:101120001200030EE82EFED7000012000250010A42
:10113000D8B4E1D7030AD8B4E6D7010AD8B4ECD7BB
:10114000070AD8A41200EDD70A0E116E295098ECA8
:1011500009F08C6E0A0E296003D0050E8D6E120008
:10116000140E296003D0040E8D6E12001E0E29602D
:1011700003D0060E8D6E1200280E296003D0020ED9
:101180008D6E1200320E296003D0030E8D6E120098
:101190003C0E29601200070E8D6E12000A0E016EC1
:1011A0002950C0EC09F08C6E0A0E296003D0050EA0
:1011B0008D6E1200140E296003D0040E8D6E120085
:1011C0001E0E296003D0060E8D6E1200280E2960B7
:1011D00003D0020E8D6E1200320E296003D0030E72
:1011E0008D6E12003C0E29601200070E8D6E1200EB
:1011F000146E040E2F18D8A41AD014C013F0F00ED9
:1012000013168C500F0B13108C6E3DEC0AF0010E70
:101210004EEC08F014C013F0133AF00E13168C5075
:101220000F0B13108C6E010E4EEC08F01200080E1E
:101230002F18D8A4120014C08CFF1200046E040EE4
:101240002F18D8A41AD004C003F0F00E03168C5047
:101250000F0B03108C6E44EC0AF0010E79EC08F0D1
:1012600004C003F0033AF00E03168C500F0B03106A
:101270008C6E010E79EC08F01200080E2F18D8A41D
:10128000120004C08CFF1200960EF66E140EF76E5C
:10129000000EF86E0900F5CF2DF00900F5CF2EF005
:1012A0000900F5CF2FF000EE22F00B0EEE6AE806F3
:1012B000FDE130903092000EF86E00016FEF05F006
:1012C000166E186A1550D8B415D0010E176E03D0DB
:1012D000D8901536172A15AEFBD7D890183615506A
:1012E000165CD8A003D01550165E1880D890153221
:1012F000172EF3D718501200066E086A0550D8B49E
:1013000015D0010E076E03D0D8900536072A05AE1A
:10131000FBD7D89008360550065CD8A003D00550FE
:10132000065E0880D8900532072EF3D708501200C9
:10133000126E080E136E146AD89012341434146EA0
:10134000D89012361150145CD8A002D01150145EFF
:10135000132EF2D71450120009D016C0F6FF080E53
:10136000F76E0800F550F3EC09F0162A16C0F6FFE8
:10137000080EF76E0800F5500009D8B41200EDD73A
:10138000026E080E036E046AD89002340434046EB0
:10139000D89002360150045CD8A002D00150045EFF
:1013A000032EF2D704501200010E8D6E080E8C6EC3
:1013B00033EC0AF0420E166EACEC09F0C00EFEECF7
:1013C00009F0670E166EACEC09F0F29EFED7116EB6
:1013D000040E1118D8B404D0080E1118D8A41200A5
:1013E00011C02FF01200156E89861550F8EC08F028
:1013F0003DEC0AF0040E4EEC08F01200156E8996D2
:101400001550F8EC08F03DEC0AF0040E4EEC08F034
:101410001200056E898605501EEC09F044EC0AF0B6
:10142000040E79EC08F01200056E899605501EEC4A
:1014300009F044EC0AF0040E79EC08F012008996E9
:101440000C0EF8EC08F03DEC0AF0040E4EEC08F03F
:10145000120089960E0EF8EC08F03DEC0AF0040E2E
:101460004EEC08F012008996010EF8EC08F03DEC05
:101470000AF0020E4EEC08F01200898A030EE82EE4
:10148000FED70000899A1200898A030EE82EFED743
:091490000000899A1200221108E3
:020000040020DA
:08000000FFFFFFFFFFFFFFFF00
:020000040030CA
:0E00000000091F1EFF8181FF0FC00FE00F409F
:00000001FF
