:0400000007EF00F016
:0A0008000D8288ED04F09FEF04F074
:100800000000040EBA6E000ECF6E000ECE6EA190E8
:10081000828000D08290010E0C6E82B203D00C0454
:10082000D8B4FBD70C50D8A402D0000E1200CD8053
:10083000A1B002D09EA0FCD7CD909EA002D00868A7
:1008400016D0E40EBB5C0D0EBC58D8A004D00D0E23
:10085000BC6EE40EBB6EBBCF01F0BCCF02F0000E4D
:10086000046E0E0E036E39EC04F00150086E085051
:100870001200000E066E000E056E03500410D8B470
:100880001CD0010E076E04D0D89003360436072A18
:1008900004AEFAD7D890053606360350015C0450F2
:1008A0000258D8A005D00350015E0450025A0580BA
:1008B000D89004320332072EEDD705C001F006C0F0
:1008C00002F012009490956A8B908C6A240EAC6EA4
:1008D000800EAB6E080EB86E190EAF6E0B0ED76E93
:1008E000DC0ED66E080ED56E800ECD6EF294F28AB6
:1008F000F28ED58E01EC04F00A6E0AC08CFFA30EB6
:10090000096E550EE82EFED7092EFCD70000F2D74F
:100910000600F2940B0ED76EDC0ED66E8CBE02D0A3
:100920008C8E01D08C9E0C04D8A402D00B2A01D04E
:100930000B6A010E0B6401D00C6A0D9211000C6A57
:0C0940000B6A0D900D92000162EF04F0B4
:020000040020DA
:08000000FFFFFFFFFFFFFFFF00
:020000040030CA
:0E00000000091F1EFF8381FF0FC00FE00F409D
:00000001FF
