:04000000BFEF02F05C
:1005000000000000030E276E030E216E060EA3EC02
:1005100002F095908C803D0E266EE10E256E400E09
:10052000E82EFED7252EFCD7262EFAD78C903D0E2E
:10053000266EE10E256E400EE82EFED7252EFCD746
:10054000262EFAD7E7D7226E246A2150D8B415D0C8
:10055000010E236E03D0D8902136232A21AEFBD77B
:10056000D89024362150225CD8A003D02150225E9E
:100570002480D8902132232EF3D724501200286AE9
:1005800000EE01F0200EEE6AE806FDE1000181EFC9
:0205900002F077
:020000040020DA
:08000000FFFFFFFFFFFFFFFF00
:020000040030CA
:0E00000000091F1EFF8285FF034003600340BE
:00000001FF
