:0400000007EF00F016
:0A000800428251ED04F090EF0CF07D
:100800000000000000001F151F000E0A0E001F153B
:100810001F0D44697374616E636961206F626A655C
:10082000746F3A20005069657A6173206120636FAC
:100830006E7461723A002020434F4D504C45544134
:1008400053212121200056616C6F72206E6F20763B
:10085000616C69646F0056616C6F72206465205032
:10086000574D3A200020202020454D455247454E07
:1008700043590046616C74616E746573203A004F91
:10088000626A657469766F203A002020202020205B
:1008900053544F50004269656E76656E696461001D
:0108A0000057
:1008A2000600D9CF12F0DACF13F0F3CF14F0F4CF61
:1008B20015F0F6CF16F0F7CF17F0F8CF18F0F5CF06
:1008C20019F0F2A48AD0C20ED76EF70ED66EF29449
:1008D20089B202D0898201D0899289A27ED02B501E
:1008E200D8A410D0000E74EC0DF02A6E2A50640DBC
:1008F200F3CF01F0F4CF02F0000E046E036857EC60
:100902000AF00CD02950640DF3CF01F0F4CF02F0BD
:10091200000E046EF00E036E57EC0AF001C03DF0BB
:1009220002C03EF03DC009F03EC00AF01A0E0B6E46
:10093200000E0C6EE0EC08F0560E026E0250D8A4C7
:10094200080E036EF2EC0BF01A0E026E000E036E2E
:10095200F2EC0BF0250EE8EC0DF0110E026E0250D7
:10096200D8A4080E036EF2EC0BF098EC0AF0286E95
:10097200090E286402D0090E286E2850300FE8ECC8
:100982000DF00D0EE8EC0DF0000E046E640E036E19
:10099200F00E3D02F3CF10F0F4CF11F03E02F3500F
:1009A200112610C001F011C002F057EC0AF001C08C
:1009B20009F002C00AF0E4EC0CF009C01AF00AC017
:1009C2001BF00BC01CF01AC001F01BC002F01CC0CF
:1009D20003F049EC09F00150BE6EF2A0FCD0F00E1B
:1009E2008118D8B4DDD03504D8A4DAD0FE0E8A6ED0
:1009F20081B808D03BC03AF03A503B5C396E3BECD0
:100A02000BF0CCD081BA0BD0382A030E3860C6D096
:100A12003C6A010E096E3C506DEC08F0BFD081BCFF
:100A220004D03BC039F03A6AEAD781BE06D089B811
:100A320002D08988B3D08998B1D0FD0E8A6E81B870
:100A42000CD0382A030E3860A9D0070E3C6E010E76
:100A5200096E3C506DEC08F0A1D081BA0CD0382A56
:100A6200030E38609BD0080E3C6E010E096E3C509E
:100A72006DEC08F093D081BC0CD0382A030E38609C
:100A82008DD0090E3C6E010E096E3C506DEC08F0E3
:100A920085D081BE24D03804D8A40BD0C00EB1ECCE
:100AA2000DF0200EA6EC0DF0C00EB1EC0DF03806E4
:100AB20075D0020E3818D8A410D0C10EB1EC0DF0CA
:100AC200200EA6EC0DF0C10EB1EC0DF00A0E056E73
:100AD2003B50C8EC0CF03C6EEAD700005FD0FB0E36
:100AE2008A6E81B80CD0382A030E386057D0040EB3
:100AF2003C6E010E096E3C506DEC08F04FD081BA8D
:100B02000CD0382A030E386049D0050E3C6E010E17
:100B1200096E3C506DEC08F041D081BC0CD0382AF3
:100B2200030E38603BD0060E3C6E010E096E3C503F
:100B32006DEC08F033D081BE03D0010E346E2ED09E
:100B4200F70E8A6E81B80CD0382A030E386026D090
:100B5200010E3C6E010E096E3C506DEC08F01ED089
:100B620081BA0CD0382A030E386018D0020E3C6EBF
:100B7200010E096E3C506DEC08F010D081BC0CD017
:100B8200382A030E38600AD0030E3C6E010E096E3D
:100B92003C506DEC08F002D081AE362AF00E8A6E1F
:100BA2003650D8A407D03804D8A404D03C500A0D3B
:100BB200F3CF3BF0020E386405D03750D8A402D0F0
:100BC200020E386E520E106E2A0EE82EFED7102E2E
:100BD200FCD7336AF2909EAA3CD09E9AAECF1DF00B
:100BE2000DD0296A30D0300E07D0600E05D0900E9D
:100BF20003D0C00E01D0F00E296E25D01D50420A3E
:100C0200D8B4F7D7010AD8B4F0D70D0AD8B4F3D7BD
:100C1200180AD8B4ECD70E0AD8B4E5D7020AD8B469
:100C2200E0D7380AD8B4E5D7010AD8B4DED70D0A1E
:100C3200D8B4E1D7180AD8B4DAD70E0AD8B4D3D7C1
:100C4200020AD8B4CED729C0BEFF010E2B6EAB88E4
:100C52009D8A19C0F5FF18C0F8FF17C0F7FF16C02C
:100C6200F6FF15C0F4FF14C0F3FF13C0DAFF12C081
:100C7200D9FF42921100010E926EF00E936E949083
:100C82009494956A966A100E896E8A6A8B6A8C6A47
:100C92008D6AF19E240EAC6E900EAB6E080EB86E8D
:100CA200190EAF6E9D8A010EC26E0E0EC16E080E37
:100CB200C06ECC6AF90ECB6ECA6A010EBE6E0C0E05
:100CC200BD6ECA84800ECD6EF290F286020ED56E93
:100CD200C20ED76EF70ED66EF294F28AF28ED58ECF
:100CE200040E84EC0DF009EC0AF0BCEC0DF0D0A877
:100CF20018D0D0EC0DF068EC07F0336AD0EC0DF0B0
:100D0200950E236E28EC0DF0020E0001656F450E64
:100D1200646FA90EE82EFED7642FFCD7652FFAD791
:100D220000D0D0B803D0050E8D6ED088386A3B6AE9
:100D3200366A336AD0EC0DF0C6EC0DF040C023F0F9
:100D420028EC0DF0C00E9BEC0DF0010E356E376AEB
:100D520004D03404D8B4FFEC0CF03650D8B4F9D730
:100D6200020E386007D03C6A0A0E226E3B50ACEC91
:100D72000CF03B6E030E386E3B0E3B6414D0D0EC8D
:100D82000DF0460E236E28EC0DF0030E0001656F88
:100D92008A0E646F550EE82EFED7642FFCD7652F9E
:100DA200FAD700D0FF003B503C243B6E3BC03AF0E8
:100DB2003A503B5C396E010E376ED0EC0DF0730E7B
:100DC200236E28EC0DF0020E266E3A50EDEC07F081
:100DD200C00E9BEC0DF07F0E236E28EC0DF0020E80
:100DE200266E3B50EDEC07F0276A3404D8B4FFECD2
:100DF2000CF028C02FF0070E2F6006D02F50D8B469
:100E020003D02FC02CF001D02C6A2C50D8B42BD098
:100E12002750D8A428D03B50395CD8B024D0336AAC
:100E2200210E0001646F760EE82EFED7642FFCD7E8
:100E32000000392A3A060A0E1E6E395014EC0DF0E3
:100E42000009D8A40ED03B503918D8B40AD08984EE
:100E5200A30E0001646F550EE82EFED7642FFCD757
:100E6200899407EC0BF02CC027F0BCEC0DF08B0E34
:100E72009BEC0DF0020E266E3A50EDEC07F03B5063
:100E82003918D8A4B2D78984D0EC0DF03FC023F032
:100E920028EC0DF0020E0001656F450E646FA90E7D
:100EA200E82EFED7642FFCD7652FFAD700D089949D
:100EB200366A3404D8B4FFEC0CF03650D8B4F9D703
:100EC200366A3B6A396A386A07EC0BF02FD70F0E85
:100ED2000001606F040E84EC0DF009EC0AF0BCEC2A
:100EE2000DF0090E226E000E6FEC0BF0010E226E59
:100EF200010E6FEC0BF00001616B11D06151800F9C
:100F02009BEC0DF0010E90EC0DF0110E266E3A0ED8
:100F1200E82EFED7262EFCD700D00001612B6151AE
:100F2200605DD8B0EBD7616B21D06151800F9BEC33
:100F32000DF0000E90EC0DF0110E266E3A0EE82E1A
:100F4200FED7262EFCD700D000016151800F9BEC0A
:100F52000DF0010E90EC0DF0110E266E3A0EE82EF9
:100F6200FED7262EFCD700D00001612B6051615DB7
:100F7200D8A0DBD76051800F9BEC0DF0000E90ECF7
:100F82000DF060C061F000016151D8B422D061510E
:100F9200800F9BEC0DF0000E90EC0DF0110E266E02
:100FA2003A0EE82EFED7262EFCD700D00001615162
:100FB200800F9BEC0DF0010E90EC0DF0110E266EE1
:100FC2003A0EE82EFED7262EFCD700D0000161078C
:100FD200DAD7C6EC0DF012000001636F898671D07A
:100FE2000A0E1E6E0001635114EC0DF00001626FD7
:100FF2006251300F44EC0CF0DAEC0DF0040E9CEC74
:101002000BF012000A0E226E640E1E6E0001635176
:1010120014EC0DF0ACEC0CF00001616F0A0E1E6EC8
:10102200635114EC0DF00001626F6151300F44EC1A
:101032000CF0DAEC0DF0040E9CEC0BF000016251A6
:10104200300F44EC0CF0DAEC0DF0040E9CEC0BF0DB
:101052001200640E226E00016351ACEC0CF0000130
:10106200606F0A0E226E640E1E6E635114EC0DF058
:10107200ACEC0CF00001616F0A0E1E6E635114ECB1
:101082000DF00001626F6051300F44EC0CF0DAECAD
:101092000DF0040E9CEC0BF000016151300F44EC9A
:1010A2000CF0DAEC0DF0040E9CEC0BF00001625136
:1010B200300F44EC0CF0DAEC0DF0040E9CEC0BF06B
:1010C20012002650010AD8B48BD7030AD8B49AD793
:1010D200010AD8A41200BDD70D6E898665D00A0E0A
:1010E200016E0D503CEC0DF00C6E0C50300F6AECA2
:1010F2000CF0E1EC0DF0040EC7EC0BF012000A0E3E
:10110200056E640E016E0D503CEC0DF0C8EC0CF057
:101112000B6E0A0E016E0D503CEC0DF00C6E0B5076
:10112200300F6AEC0CF0E1EC0DF0040EC7EC0BF0A2
:101132000C50300F6AEC0CF0E1EC0DF0040EC7EC31
:101142000BF01200640E056E0D50C8EC0CF00A6E26
:101152000A0E056E640E016E0D503CEC0DF0C8ECEB
:101162000CF00B6E0A0E016E0D503CEC0DF00C6E85
:101172000A50300F6AEC0CF0E1EC0DF0040EC7ECF3
:101182000BF00B50300F6AEC0CF0E1EC0DF0040E9A
:10119200C7EC0BF00C50300F6AEC0CF0E1EC0DF0E8
:1011A200040EC7EC0BF012000950010AD8B497D70D
:1011B200030AD8B4A4D7010AD8A41200C3D70ABE1E
:1011C20006D00A5013E10A0E095CD8B00FD00950BC
:1011D200300F0BC0D9FF0CC0DAFFDF6E20EE01F03A
:1011E2000B50D9260C50DA22DF6A12000ABE06D052
:1011F2000A5030E1640E095CD8B02CD009C001F06D
:101202000AC002F0000E046E0A0E036E57EC0AF0DA
:101212000150300F0BC0D9FF0CC0DAFFDF6E20EE99
:1012220001F00B50D9260C50DA2209C001F00AC095
:1012320002F0000E046E0A0E036ED0EC0AF00150AA
:10124200300FDF6E20EE02F00B50D9260C50DA225E
:10125200DF6A12000BC0D9FF0CC0DAFF310EDF6E5D
:1012620020EE01F00B50D9260C50DA22300EDF6E40
:1012720020EE02F00B50D9260C50DA22300EDF6E2F
:1012820020EE03F00B50D9260C50DA22DF6A12004E
:1012920003C005F0066A076A0234053601E30680D8
:1012A20005500F6E0F50D8A409D0000E016E000E2B
:1012B200026E000E036E000E046E1200170E056E13
:1012C20001C006F002C007F003C008F00528096E4D
:1012D20004D0D890083207320632092EFAD70650C7
:1012E2000A6E028EFF0E0116FF0E0216000E031684
:1012F20001500B6E02500C6E03500D6E0E6A8E0E74
:101302000F5E0FAE0DD00F50800A8F0FD8A0CDD731
:10131200D8900E320D320C320B320F3EF9D70DD06F
:10132200170E0F6407D0C1D7D8900B360C360D3686
:101332000E360F060F50D8A4F7D70A50D8B408D0EB
:101342000E1E0D1E0C1E0B6C000E0C220D220E2208
:101352000BC001F00CC002F00DC003F00EC004F08F
:1013620012000450D8B405D0015002100310D8A4C2
:101372000CD0000E016E000E026E000E036E120003
:10138200042AD890033202320132000E0114066E92
:10139200000E0214076EFE0E0314086E06500710AC
:1013A2000810D8B40CD0ECD7042A010E0126000E86
:1013B2000222000E0322D890033202320132000EC2
:1013C2000114066E000E0214076EFF0E0314086E5F
:1013D200065007100810D8B406D0E6D70406D890F5
:1013E20001360236033602BE03D0020E0460F6D77F
:1013F20004A0029ED8900432045003120550D8A4CF
:10140200038E01C001F002C002F003C003F012001B
:101412008996040E4118D8A404D08C500F0B3009C1
:1014220001D03F0E8C6EDAEC0DF0010E9CEC0BF04D
:10143200040E4118D8A404D08C500F0B300901D0EF
:101442003F0E8C6EDAEC0DF0030E9CEC0BF0040EEA
:101452004118D8A404D08C500F0B300901D03F0E94
:101462008C6EDAEC0DF0040E9CEC0BF0040E4118BD
:10147200D8A411D08C500F0B20098C6EDAEC0DF031
:10148200040E9CEC0BF02F0E44EC0CF0DAEC0DF099
:10149200040E9CEC0BF0D0EC0DF00F0E44EC0CF0B3
:1014A200DAEC0DF0040E9CEC0BF01200066A04AEAE
:1014B20006D0036C041ED8B0042A010E066E02AEDA
:1014C20006D0016C021ED8B0022A010E061A000EC6
:1014D200086E000E076E03500410D8B41CD0010E23
:1014E200056E04D0D89003360436052A04AEFAD726
:1014F200D890073608360350015C04500258D8A031
:1015020005D00350015E0450025A0780D89004327D
:101512000332052EEDD70650D8B404D0076C081E4E
:10152200D8B0082A07C001F008C002F01200040E69
:10153200BA6E000ECF6E000ECE6EA190828000D0E9
:101542008290010E316E82B203D03104D8B4FBD73F
:101552003150D8A402D0000E1200CD80A1B002D02A
:101562009EA0FCD7CD909EA002D0086816D0BC5099
:1015720004E19A0EBB5CD8A004D0000EBC6E9A0E99
:10158200BB6EBBCF01F0BCCF02F0000E046E0E0E9C
:10159200036E1BEC0CF00150086E08501200066A34
:1015A20002AE06D0016C021ED8B0022A010E066EEF
:1015B20004AE04D0036C041ED8B0042A03500410F5
:1015C200D8B418D0010E056E04D0D8900336043674
:1015D200052A04AEFAD70350015C04500258D8A081
:1015E20004D00350015E0450025AD89004320332F0
:1015F200052EF1D70650D8B404D0016C021ED8B023
:10160200022A01C001F002C002F012000A0E1E6E90
:10161200395014EC0DF08C6E0A0E396002D0050EB2
:1016220018D0140E396002D0040E13D01E0E396089
:1016320002D0060E0ED0280E396002D0020E09D05A
:10164200320E396002D0030E04D03C0E396002D053
:10165200070E8D6E3BC01EF0010E50EC0DF039C02E
:101662001EF0020E50EC0DF03AC01EF0030E50ECCC
:101672000DF012000A0E016E39503CEC0DF08C6E2A
:101682000A0E396002D0050E18D0140E396002D04D
:10169200040E13D01E0E396002D0060E0ED0280E94
:1016A200396002D0020E09D0320E396002D0030E28
:1016B20004D03C0E396002D0070E8D6E3BC001F0A3
:1016C200010E62EC0DF039C001F0020E62EC0DF079
:1016D2003AC001F0030E62EC0DF01200246E8996FE
:1016E2002450080DF350400F44EC0CF0DAEC0DF0EE
:1016F200040E9CEC0BF08986256A22502524236E69
:1017020023C0F6FF080EF76E0800F55044EC0CF00B
:10171200DAEC0DF0040E9CEC0BF0252A070E256482
:10172200ECD78996800E44EC0CF0DAEC0DF0040E46
:101732009CEC0BF012001F6E1BD0050E1E6EDE0E0F
:10174200E82EFED71E2EFCD71200530EE82EFED72F
:101752000000350EE82EFED700001200080EE82E1B
:10176200FED700001200030EE82EFED70000120082
:101772001F50010AD8B4E1D7030AD8B4E6D7010A48
:10178200D8B4ECD7070AD8A41200EDD7026E1BD04A
:10179200050E016EDE0EE82EFED7012EFCD71200DA
:1017A200530EE82EFED70000350EE82EFED70000BD
:1017B2001200080EE82EFED700001200030EE82EDB
:1017C200FED7000012000250010AD8B4E1D7030A82
:1017D200D8B4E6D7010AD8B4ECD7070AD8A41200C5
:1017E200EDD714D002C0F6FF03C0F7FFF86A070E68
:1017F200F76403D00800F55005D0F6CFD9FFF7CF34
:10180200DAFFDF50E8EC0DF0024A032A02C0F6FFCD
:1018120003C0F7FFF86A070EF76403D00800F5501B
:1018220005D0F6CFD9FFF7CFDAFFDF500009D8B4E1
:101832001200D8D7000E066E000E056E035004107B
:10184200D8B41CD0010E076E04D0D89003360436EB
:10185200072A04AEFAD7D890053606360350015C43
:1018620004500258D8A005D00350015E0450025A19
:101872000580D89004320332072EEDD705C001F05F
:1018820006C002F01200216E040E4118D8A41AD02C
:1018920021C020F0F00E20168C500F0B20108C6E01
:1018A200DAEC0DF0010E9CEC0BF021C020F0203A96
:1018B200F00E20168C500F0B20108C6E010E9CEC3B
:1018C2000BF01200080E4118D8A4120021C08CFFA0
:1018D2001200046E040E4118D8A41AD004C003F0FA
:1018E200F00E03168C500F0B03108C6EE1EC0DF012
:1018F200010EC7EC0BF004C003F0033AF00E03161E
:101902008C500F0B03108C6E010EC7EC0BF0120003
:10191200080E4118D8A4120004C08CFF1200DC0E7D
:10192200F66E1B0EF76E000EF86E0900F5CF3FF053
:101932000900F5CF40F00900F5CF41F000EE28F0A4
:10194200170EEE6AE806FDE142904292000EF86E32
:1019520000013CEF06F0236E256A2250D8B415D060
:10196200010E246E03D0D8902236242A22AEFBD751
:10197200D89025362250235CD8A003D02250235E73
:101982002580D8902232242EF3D725501200066EDD
:10199200086A0550D8B415D0010E076E03D0D8904E
:1019A2000536072A05AEFBD7D89008360550065CE7
:1019B200D8A003D00550065E0880D8900532072EC5
:1019C200F3D7085012000C6A0AAE06D0096C0A1E40
:1019D200D8B00A2A010E0C6E09C001F00AC002F04A
:1019E200036A8E0E046E0CC005F0B2EC09F001C061
:1019F20009F002C00AF003C00BF01200010E8D6E56
:101A0200080E8C6ED0EC0DF0650E236E28EC0DF0F6
:101A1200C00E9BEC0DF08A0E236E28EC0DF0010E29
:101A2200BE6EF29EFED71F6E080E206E216AD890FF
:101A32001F342134216ED8901F361E50215CD8A04D
:101A420002D01E50215E202EF2D72150120009D062
:101A520023C0F6FF080EF76E0800F55090EC0DF06B
:101A6200232A23C0F6FF080EF76E0800F55000097E
:101A7200D8B41200EDD7026E080E036E046AD89035
:101A820002340434046ED89002360150045CD8A0AB
:101A920002D00150045E032EF2D7045012001F6ED2
:101AA2001FC0A9FF1EC0A8FFA69EA684F29E550EC7
:101AB200A76EAA0EA76EA682F28EA6B2FED7A69433
:101AC2001200026E02C0A9FF01C0A8FFA69EA68452
:101AD200F29E550EA76EAA0EA76EA682F28EA6B22F
:101AE200FED7A6941200016E0C0E016402D0000E05
:101AF20012000144E846FC0B0109C26EC282C2B266
:101B0200FED7C45012001E6E040E1E18D8B404D0A4
:101B1200080E1E18D8A412001EC041F01200226E38
:101B22008986225044EC0CF0DAEC0DF0040E9CECA9
:101B32000BF01200226E8996225044EC0CF0DAEC83
:101B42000DF0040E9CEC0BF01200056E8986055018
:101B52006AEC0CF0E1EC0DF0040EC7EC0BF0120095
:101B6200056E899605506AEC0CF0E1EC0DF0040E5E
:101B7200C7EC0BF0120089960C0E44EC0CF0DAEC78
:101B82000DF0040E9CEC0BF0120089960E0E44EC44
:101B92000CF0DAEC0DF0040E9CEC0BF012008996BE
:101BA200010E44EC0CF0DAEC0DF0020E9CEC0BF0A2
:101BB2001200898A030EE82EFED70000899A1200CD
:101BC200898A030EE82EFED70000899A1200016E60
:0D1BD200ACA2FED701C0ADFF120036250801
:020000040020DA
:08000000FFFFFFFFFFFFFFFF00
:020000040030CA
:0E00000000091F1EFF8181FF0FC00FE00F409F
:00000001FF
